{
  "abi": [
    {
      "inputs": [],
      "stateMutability": "nonpayable",
      "type": "constructor"
    },
    {
      "anonymous": false,
      "inputs": [
        {
          "indexed": true,
          "internalType": "address",
          "name": "adr",
          "type": "address"
        },
        {
          "indexed": false,
          "internalType": "uint256",
          "name": "bnbToEat",
          "type": "uint256"
        },
        {
          "indexed": false,
          "internalType": "uint256",
          "name": "beansBeforeFee",
          "type": "uint256"
        }
      ],
      "name": "EmitAte",
      "type": "event"
    },
    {
      "anonymous": false,
      "inputs": [
        {
          "indexed": true,
          "internalType": "address",
          "name": "adr",
          "type": "address"
        },
        {
          "indexed": true,
          "internalType": "address",
          "name": "ref",
          "type": "address"
        },
        {
          "indexed": false,
          "internalType": "uint256",
          "name": "beansFrom",
          "type": "uint256"
        },
        {
          "indexed": false,
          "internalType": "uint256",
          "name": "beansTo",
          "type": "uint256"
        }
      ],
      "name": "EmitBaked",
      "type": "event"
    },
    {
      "anonymous": false,
      "inputs": [
        {
          "indexed": true,
          "internalType": "address",
          "name": "adr",
          "type": "address"
        },
        {
          "indexed": true,
          "internalType": "address",
          "name": "ref",
          "type": "address"
        },
        {
          "indexed": false,
          "internalType": "uint256",
          "name": "bnbamount",
          "type": "uint256"
        },
        {
          "indexed": false,
          "internalType": "uint256",
          "name": "beansFrom",
          "type": "uint256"
        },
        {
          "indexed": false,
          "internalType": "uint256",
          "name": "beansTo",
          "type": "uint256"
        }
      ],
      "name": "EmitBoughtBeans",
      "type": "event"
    },
    {
      "anonymous": false,
      "inputs": [
        {
          "indexed": true,
          "internalType": "address",
          "name": "previousOwner",
          "type": "address"
        },
        {
          "indexed": true,
          "internalType": "address",
          "name": "newOwner",
          "type": "address"
        }
      ],
      "name": "OwnershipTransferred",
      "type": "event"
    },
    {
      "inputs": [],
      "name": "CEO_ADDRESS",
      "outputs": [
        {
          "internalType": "address",
          "name": "",
          "type": "address"
        }
      ],
      "stateMutability": "view",
      "type": "function"
    },
    {
      "inputs": [],
      "name": "DEV_ADDRESS",
      "outputs": [
        {
          "internalType": "address",
          "name": "",
          "type": "address"
        }
      ],
      "stateMutability": "view",
      "type": "function"
    },
    {
      "inputs": [],
      "name": "GIVEAWAY_ADDRESS",
      "outputs": [
        {
          "internalType": "address",
          "name": "",
          "type": "address"
        }
      ],
      "stateMutability": "view",
      "type": "function"
    },
    {
      "inputs": [],
      "name": "MARKETING_ADDRESS",
      "outputs": [
        {
          "internalType": "address",
          "name": "",
          "type": "address"
        }
      ],
      "stateMutability": "view",
      "type": "function"
    },
    {
      "inputs": [],
      "name": "OWNER_ADDRESS",
      "outputs": [
        {
          "internalType": "address",
          "name": "",
          "type": "address"
        }
      ],
      "stateMutability": "view",
      "type": "function"
    },
    {
      "inputs": [],
      "name": "bake",
      "outputs": [],
      "stateMutability": "nonpayable",
      "type": "function"
    },
    {
      "inputs": [
        {
          "internalType": "uint256",
          "name": "",
          "type": "uint256"
        }
      ],
      "name": "bakerAddress",
      "outputs": [
        {
          "internalType": "address",
          "name": "",
          "type": "address"
        }
      ],
      "stateMutability": "view",
      "type": "function"
    },
    {
      "inputs": [
        {
          "internalType": "address",
          "name": "adr",
          "type": "address"
        }
      ],
      "name": "bnbRewards",
      "outputs": [
        {
          "internalType": "uint256",
          "name": "",
          "type": "uint256"
        }
      ],
      "stateMutability": "view",
      "type": "function"
    },
    {
      "inputs": [
        {
          "internalType": "address",
          "name": "adr",
          "type": "address"
        }
      ],
      "name": "bnbTvl",
      "outputs": [
        {
          "internalType": "uint256",
          "name": "",
          "type": "uint256"
        }
      ],
      "stateMutability": "view",
      "type": "function"
    },
    {
      "inputs": [
        {
          "internalType": "address",
          "name": "ref",
          "type": "address"
        },
        {
          "internalType": "uint256",
          "name": "_amount",
          "type": "uint256"
        }
      ],
      "name": "buyBeans",
      "outputs": [],
      "stateMutability": "nonpayable",
      "type": "function"
    },
    {
      "inputs": [],
      "name": "contractBalance",
      "outputs": [
        {
          "internalType": "uint256",
          "name": "",
          "type": "uint256"
        }
      ],
      "stateMutability": "view",
      "type": "function"
    },
    {
      "inputs": [
        {
          "internalType": "address",
          "name": "adr",
          "type": "address"
        }
      ],
      "name": "dailyReward",
      "outputs": [
        {
          "internalType": "uint256",
          "name": "",
          "type": "uint256"
        }
      ],
      "stateMutability": "view",
      "type": "function"
    },
    {
      "inputs": [],
      "name": "eat",
      "outputs": [],
      "stateMutability": "nonpayable",
      "type": "function"
    },
    {
      "inputs": [
        {
          "internalType": "address",
          "name": "adr",
          "type": "address"
        }
      ],
      "name": "hasBeanTaxed",
      "outputs": [
        {
          "internalType": "uint256",
          "name": "",
          "type": "uint256"
        }
      ],
      "stateMutability": "view",
      "type": "function"
    },
    {
      "inputs": [
        {
          "internalType": "address",
          "name": "adr",
          "type": "address"
        }
      ],
      "name": "hasInvested",
      "outputs": [
        {
          "internalType": "bool",
          "name": "",
          "type": "bool"
        }
      ],
      "stateMutability": "view",
      "type": "function"
    },
    {
      "inputs": [],
      "name": "initializeContract",
      "outputs": [],
      "stateMutability": "nonpayable",
      "type": "function"
    },
    {
      "inputs": [
        {
          "internalType": "address",
          "name": "adr",
          "type": "address"
        }
      ],
      "name": "maxPayout",
      "outputs": [
        {
          "internalType": "uint256",
          "name": "",
          "type": "uint256"
        }
      ],
      "stateMutability": "view",
      "type": "function"
    },
    {
      "inputs": [
        {
          "internalType": "address",
          "name": "adr",
          "type": "address"
        }
      ],
      "name": "maxPayoutReached",
      "outputs": [
        {
          "internalType": "bool",
          "name": "",
          "type": "bool"
        }
      ],
      "stateMutability": "view",
      "type": "function"
    },
    {
      "inputs": [
        {
          "internalType": "address",
          "name": "adr",
          "type": "address"
        }
      ],
      "name": "maxTvlReached",
      "outputs": [
        {
          "internalType": "bool",
          "name": "",
          "type": "bool"
        }
      ],
      "stateMutability": "view",
      "type": "function"
    },
    {
      "inputs": [],
      "name": "owner",
      "outputs": [
        {
          "internalType": "address",
          "name": "",
          "type": "address"
        }
      ],
      "stateMutability": "view",
      "type": "function"
    },
    {
      "inputs": [],
      "name": "renounceOwnership",
      "outputs": [],
      "stateMutability": "nonpayable",
      "type": "function"
    },
    {
      "inputs": [
        {
          "internalType": "address",
          "name": "adr",
          "type": "address"
        }
      ],
      "name": "secondsSinceLastEat",
      "outputs": [
        {
          "internalType": "uint256",
          "name": "",
          "type": "uint256"
        }
      ],
      "stateMutability": "view",
      "type": "function"
    },
    {
      "inputs": [],
      "name": "totalBakers",
      "outputs": [
        {
          "internalType": "uint256",
          "name": "",
          "type": "uint256"
        }
      ],
      "stateMutability": "view",
      "type": "function"
    },
    {
      "inputs": [
        {
          "internalType": "address",
          "name": "newOwner",
          "type": "address"
        }
      ],
      "name": "transferOwnership",
      "outputs": [],
      "stateMutability": "nonpayable",
      "type": "function"
    },
    {
      "inputs": [
        {
          "internalType": "address",
          "name": "adr",
          "type": "address"
        }
      ],
      "name": "user",
      "outputs": [
        {
          "components": [
            {
              "internalType": "address",
              "name": "adr",
              "type": "address"
            },
            {
              "internalType": "uint256",
              "name": "beans",
              "type": "uint256"
            },
            {
              "internalType": "uint256",
              "name": "bakedAt",
              "type": "uint256"
            },
            {
              "internalType": "uint256",
              "name": "ateAt",
              "type": "uint256"
            },
            {
              "internalType": "address",
              "name": "upline",
              "type": "address"
            },
            {
              "internalType": "bool",
              "name": "hasReferred",
              "type": "bool"
            },
            {
              "internalType": "address[]",
              "name": "referrals",
              "type": "address[]"
            },
            {
              "internalType": "address[]",
              "name": "bonusEligibleReferrals",
              "type": "address[]"
            },
            {
              "internalType": "uint256",
              "name": "firstDeposit",
              "type": "uint256"
            },
            {
              "internalType": "uint256",
              "name": "totalDeposit",
              "type": "uint256"
            },
            {
              "internalType": "uint256",
              "name": "totalPayout",
              "type": "uint256"
            }
          ],
          "internalType": "struct MinersOasis.Baker",
          "name": "",
          "type": "tuple"
        }
      ],
      "stateMutability": "view",
      "type": "function"
    },
    {
      "inputs": [
        {
          "internalType": "address",
          "name": "adr",
          "type": "address"
        }
      ],
      "name": "userBonusEligibleReferrals",
      "outputs": [
        {
          "internalType": "address[]",
          "name": "",
          "type": "address[]"
        }
      ],
      "stateMutability": "view",
      "type": "function"
    },
    {
      "inputs": [
        {
          "internalType": "address",
          "name": "adr",
          "type": "address"
        }
      ],
      "name": "userReferrals",
      "outputs": [
        {
          "internalType": "address[]",
          "name": "",
          "type": "address[]"
        }
      ],
      "stateMutability": "view",
      "type": "function"
    }
  ],
  "devdoc": {
    "kind": "dev",
    "methods": {
      "owner()": {
        "details": "Returns the address of the current owner."
      }
    },
    "version": 1
  },
  "evm": {
    "assembly": "    /* \"contract.sol\":5434:19520  contract MinersOasis is Context, Ownable {... */\n  mstore(0x40, 0x80)\n    /* \"contract.sol\":5548:5580  bool private initialized = false */\n  0x01\n  dup1\n  sload\n  not(shl(0xa0, 0xff))\n  dup2\n  and\n  swap1\n  swap2\n  sstore\n    /* \"contract.sol\":5587:5644  address BUSD = 0xe9e7CEA3DedcA5984780Bafc599bD69ADd087D56 */\n  0x02\n  dup1\n  sload\n    /* \"contract.sol\":5602:5644  0xe9e7CEA3DedcA5984780Bafc599bD69ADd087D56 */\n  0xe9e7cea3dedca5984780bafc599bd69add087d56\n  not(sub(shl(0xa0, 0x01), 0x01))\n    /* \"contract.sol\":5587:5644  address BUSD = 0xe9e7CEA3DedcA5984780Bafc599bD69ADd087D56 */\n  swap2\n  dup3\n  and\n  or\n  swap1\n  swap2\n  sstore\n    /* \"contract.sol\":5651:5722  address public DEV_ADDRESS = 0xCa4EE92973E4b06ebDace430A2f380198f027B56 */\n  0x03\n  dup1\n  sload\n    /* \"contract.sol\":5680:5722  0xCa4EE92973E4b06ebDace430A2f380198f027B56 */\n  0xca4ee92973e4b06ebdace430a2f380198f027b56\n    /* \"contract.sol\":5651:5722  address public DEV_ADDRESS = 0xCa4EE92973E4b06ebDace430A2f380198f027B56 */\n  swap1\n  dup4\n  and\n  dup2\n  or\n  swap1\n  swap2\n  sstore\n    /* \"contract.sol\":5729:5806  address public MARKETING_ADDRESS = 0x62d563fE47c570d22C927a6B19183b5B6E77E945 */\n  0x04\n  dup1\n  sload\n    /* \"contract.sol\":5764:5806  0x62d563fE47c570d22C927a6B19183b5B6E77E945 */\n  0x62d563fe47c570d22c927a6b19183b5b6e77e945\n    /* \"contract.sol\":5729:5806  address public MARKETING_ADDRESS = 0x62d563fE47c570d22C927a6B19183b5B6E77E945 */\n  swap1\n  dup5\n  and\n  dup2\n  or\n  swap1\n  swap2\n  sstore\n    /* \"contract.sol\":5813:5884  address public CEO_ADDRESS = 0x5F5FE741A43E9A2b9e4BC31583F71e15eba30ef9 */\n  0x05\n  dup1\n  sload\n    /* \"contract.sol\":5842:5884  0x5F5FE741A43E9A2b9e4BC31583F71e15eba30ef9 */\n  0x5f5fe741a43e9a2b9e4bc31583f71e15eba30ef9\n    /* \"contract.sol\":5813:5884  address public CEO_ADDRESS = 0x5F5FE741A43E9A2b9e4BC31583F71e15eba30ef9 */\n  swap1\n  dup6\n  and\n  dup2\n  or\n  swap1\n  swap2\n  sstore\n    /* \"contract.sol\":5891:5967  address public GIVEAWAY_ADDRESS = 0x644c002aB8222F198133AFE7a0046351bC80467d */\n  0x06\n  dup1\n  sload\n    /* \"contract.sol\":5925:5967  0x644c002aB8222F198133AFE7a0046351bC80467d */\n  0x644c002ab8222f198133afe7a0046351bc80467d\n    /* \"contract.sol\":5891:5967  address public GIVEAWAY_ADDRESS = 0x644c002aB8222F198133AFE7a0046351bC80467d */\n  swap1\n  dup7\n  and\n  dup2\n  or\n  swap1\n  swap2\n  sstore\n    /* \"contract.sol\":5974:6000  address _dev = DEV_ADDRESS */\n  0x07\n  dup1\n  sload\n  dup7\n  and\n  swap1\n  swap5\n  or\n  swap1\n  swap4\n  sstore\n    /* \"contract.sol\":6007:6045  address _marketing = MARKETING_ADDRESS */\n  0x08\n  dup1\n  sload\n  dup6\n  and\n  swap1\n  swap3\n  or\n  swap1\n  swap2\n  sstore\n    /* \"contract.sol\":6052:6078  address _ceo = CEO_ADDRESS */\n  0x09\n  dup1\n  sload\n  dup5\n  and\n  swap1\n  swap2\n  or\n  swap1\n  sstore\n    /* \"contract.sol\":6085:6121  address _giveAway = GIVEAWAY_ADDRESS */\n  0x0a\n  dup1\n  sload\n  dup4\n  and\n  swap1\n  swap2\n  or\n  swap1\n  sstore\n    /* \"contract.sol\":6128:6158  address _owner = OWNER_ADDRESS */\n  0x0b\n  dup1\n  sload\n  sub(shl(0xa0, 0x01), 0x01)\n    /* \"contract.sol\":6145:6158  OWNER_ADDRESS */\n  swap1\n  swap4\n  and\n    /* \"contract.sol\":6128:6158  address _owner = OWNER_ADDRESS */\n  swap3\n  swap1\n  swap2\n  and\n  swap2\n  swap1\n  swap2\n  or\n  swap1\n  sstore\n    /* \"contract.sol\":6165:6201  uint136 BNB_PER_BEAN = 1000000000000 */\n  0x0c\n  dup1\n  sload\n    /* \"contract.sol\":6441:6474  uint8 FIRST_DEPOSIT_REF_BONUS = 5 */\n  0xff00000000000000000000000000000000000000000000000000000000000000\n  and\n  0x0505420013000a05010100015180000000000000000000000000e8d4a51000\n  or\n  swap1\n  sstore\n    /* \"contract.sol\":6503:6512  100 ether */\n  0x056bc75e2d63100000\n    /* \"contract.sol\":6481:6512  uint256 MIN_DEPOSIT = 100 ether */\n  0x0d\n  sstore\n    /* \"contract.sol\":6550:6558  10 ether */\n  0x8ac7230489e80000\n    /* \"contract.sol\":6531:6558  uint256 MIN_BAKE = 10 ether */\n  0x0e\n  sstore\n    /* \"contract.sol\":6608:6620  100000 ether */\n  0x152d02c7e14af6800000\n    /* \"contract.sol\":6576:6620  uint256 MAX_WALLET_TVL_IN_BNB = 100000 ether */\n  0x0f\n  sstore\n    /* \"contract.sol\":6677:6687  6500 ether */\n  0x01605d9ee98627100000\n    /* \"contract.sol\":6642:6687  uint256 MAX_DAILY_REWARDS_IN_BNB = 6500 ether */\n  0x10\n  sstore\n    /* \"contract.sol\":6743:6752  200 ether */\n  0x0ad78ebc5ac6200000\n    /* \"contract.sol\":6208:6238  uint32 SECONDS_PER_DAY = 86400 */\n  0x11\n    /* \"contract.sol\":6707:6752  uint256 MIN_REF_DEPOSIT_FOR_BONUS = 200 ether */\n  sstore\n    /* \"contract.sol\":7697:7754  constructor() {... */\n  callvalue\n  dup1\n  iszero\n  tag_1\n  jumpi\n  0x00\n  dup1\n  revert\ntag_1:\n  pop\n    /* \"contract.sol\":1095:1112  address msgSender */\n  0x00\n    /* \"contract.sol\":1136:1154  _owner = msgSender */\n  dup1\n  sload\n  not(sub(shl(0xa0, 0x01), 0x01))\n  and\n    /* \"contract.sol\":682:692  msg.sender */\n  caller\n    /* \"contract.sol\":1136:1154  _owner = msgSender */\n  swap1\n  dup2\n  or\n  dup3\n  sstore\n    /* \"contract.sol\":1168:1211  OwnershipTransferred(address(0), msgSender) */\n  mload(0x40)\n    /* \"contract.sol\":682:692  msg.sender */\n  swap1\n  swap2\n  dup3\n  swap2\n    /* \"contract.sol\":1168:1211  OwnershipTransferred(address(0), msgSender) */\n  0x8be0079c531659141344cd1fd0a4f28419497f9722a3daafe3b4186f6b6457e0\n  swap1\n    /* \"contract.sol\":1095:1112  address msgSender */\n  dup3\n  swap1\n    /* \"contract.sol\":1168:1211  OwnershipTransferred(address(0), msgSender) */\n  log3\n  pop\n    /* \"contract.sol\":7722:7735  OWNER_ADDRESS */\n  0x01\n    /* \"contract.sol\":7722:7746  OWNER_ADDRESS=msg.sender */\n  dup1\n  sload\n  not(sub(shl(0xa0, 0x01), 0x01))\n  and\n    /* \"contract.sol\":7736:7746  msg.sender */\n  caller\n    /* \"contract.sol\":7722:7746  OWNER_ADDRESS=msg.sender */\n  or\n  swap1\n  sstore\n    /* \"contract.sol\":5434:19520  contract MinersOasis is Context, Ownable {... */\n  dataSize(sub_0)\n  dup1\n  dataOffset(sub_0)\n  0x00\n  codecopy\n  0x00\n  return\nstop\n\nsub_0: assembly {\n        /* \"contract.sol\":5434:19520  contract MinersOasis is Context, Ownable {... */\n      mstore(0x40, 0x80)\n      callvalue\n      dup1\n      iszero\n      tag_1\n      jumpi\n      0x00\n      dup1\n      revert\n    tag_1:\n      pop\n      jumpi(tag_2, lt(calldatasize, 0x04))\n      shr(0xe0, calldataload(0x00))\n      dup1\n      0x9703073c\n      gt\n      tag_30\n      jumpi\n      dup1\n      0xd65cfbbe\n      gt\n      tag_31\n      jumpi\n      dup1\n      0xe72aabb5\n      gt\n      tag_32\n      jumpi\n      dup1\n      0xe72aabb5\n      eq\n      tag_26\n      jumpi\n      dup1\n      0xedb9a5c0\n      eq\n      tag_27\n      jumpi\n      dup1\n      0xf2fde38b\n      eq\n      tag_28\n      jumpi\n      dup1\n      0xf5c9b7da\n      eq\n      tag_29\n      jumpi\n      0x00\n      dup1\n      revert\n    tag_32:\n      dup1\n      0xd65cfbbe\n      eq\n      tag_23\n      jumpi\n      dup1\n      0xe300e98b\n      eq\n      tag_24\n      jumpi\n      dup1\n      0xe689c476\n      eq\n      tag_25\n      jumpi\n      0x00\n      dup1\n      revert\n    tag_31:\n      dup1\n      0xad06de62\n      gt\n      tag_33\n      jumpi\n      dup1\n      0xad06de62\n      eq\n      tag_19\n      jumpi\n      dup1\n      0xb0de262e\n      eq\n      tag_20\n      jumpi\n      dup1\n      0xcb868f54\n      eq\n      tag_21\n      jumpi\n      dup1\n      0xd5e156dc\n      eq\n      tag_22\n      jumpi\n      0x00\n      dup1\n      revert\n    tag_33:\n      dup1\n      0x9703073c\n      eq\n      tag_16\n      jumpi\n      dup1\n      0x9eb32fdb\n      eq\n      tag_17\n      jumpi\n      dup1\n      0xa70ed057\n      eq\n      tag_18\n      jumpi\n      0x00\n      dup1\n      revert\n    tag_30:\n      dup1\n      0x733ba492\n      gt\n      tag_34\n      jumpi\n      dup1\n      0x83c4c62b\n      gt\n      tag_35\n      jumpi\n      dup1\n      0x83c4c62b\n      eq\n      tag_12\n      jumpi\n      dup1\n      0x8b7afe2e\n      eq\n      tag_13\n      jumpi\n      dup1\n      0x8da5cb5b\n      eq\n      tag_14\n      jumpi\n      dup1\n      0x933f5d3f\n      eq\n      tag_15\n      jumpi\n      0x00\n      dup1\n      revert\n    tag_35:\n      dup1\n      0x733ba492\n      eq\n      tag_9\n      jumpi\n      dup1\n      0x8055c217\n      eq\n      tag_10\n      jumpi\n      dup1\n      0x81e7e20e\n      eq\n      tag_11\n      jumpi\n      0x00\n      dup1\n      revert\n    tag_34:\n      dup1\n      0x5639e8cf\n      gt\n      tag_36\n      jumpi\n      dup1\n      0x5639e8cf\n      eq\n      tag_6\n      jumpi\n      dup1\n      0x6b277e37\n      eq\n      tag_7\n      jumpi\n      dup1\n      0x715018a6\n      eq\n      tag_8\n      jumpi\n      0x00\n      dup1\n      revert\n    tag_36:\n      dup1\n      0x06c18a31\n      eq\n      tag_3\n      jumpi\n      dup1\n      0x340a2a4e\n      eq\n      tag_4\n      jumpi\n      dup1\n      0x3b0923aa\n      eq\n      tag_5\n      jumpi\n    tag_2:\n      0x00\n      dup1\n      revert\n        /* \"contract.sol\":5513:5541  address public OWNER_ADDRESS */\n    tag_3:\n      sload(0x01)\n      tag_37\n      swap1\n      sub(shl(0xa0, 0x01), 0x01)\n      and\n      dup2\n      jump\n    tag_37:\n      mload(0x40)\n      sub(shl(0xa0, 0x01), 0x01)\n        /* \"#utility.yul\":310:365   */\n      swap1\n      swap2\n      and\n        /* \"#utility.yul\":292:366   */\n      dup2\n      mstore\n        /* \"#utility.yul\":280:282   */\n      0x20\n        /* \"#utility.yul\":265:283   */\n      add\n        /* \"contract.sol\":5513:5541  address public OWNER_ADDRESS */\n    tag_39:\n      mload(0x40)\n      dup1\n      swap2\n      sub\n      swap1\n      return\n        /* \"contract.sol\":12019:13495  function eat() public {... */\n    tag_4:\n      tag_41\n      tag_42\n      jump\t// in\n    tag_41:\n      stop\n        /* \"contract.sol\":6773:6820  mapping(uint256 => address) public bakerAddress */\n    tag_5:\n      tag_37\n      tag_44\n      calldatasize\n      0x04\n      tag_45\n      jump\t// in\n    tag_44:\n      mstore(0x20, 0x12)\n      0x00\n      swap1\n      dup2\n      mstore\n      0x40\n      swap1\n      keccak256\n      sload\n      sub(shl(0xa0, 0x01), 0x01)\n      and\n      dup2\n      jump\n        /* \"contract.sol\":5651:5722  address public DEV_ADDRESS = 0xCa4EE92973E4b06ebDace430A2f380198f027B56 */\n    tag_6:\n      sload(0x03)\n      tag_37\n      swap1\n      sub(shl(0xa0, 0x01), 0x01)\n      and\n      dup2\n      jump\n        /* \"contract.sol\":15437:15559  function userReferrals(address adr) public view returns (address[] memory) {... */\n    tag_7:\n      tag_51\n      tag_52\n      calldatasize\n      0x04\n      tag_53\n      jump\t// in\n    tag_52:\n      tag_54\n      jump\t// in\n    tag_51:\n      mload(0x40)\n      tag_39\n      swap2\n      swap1\n      tag_56\n      jump\t// in\n        /* \"contract.sol\":1512:1648  function renounceOwnership() public onlyOwner {... */\n    tag_8:\n      tag_41\n      tag_58\n      jump\t// in\n        /* \"contract.sol\":7869:10208  function buyBeans(address ref, uint256 _amount) public {... */\n    tag_9:\n      tag_41\n      tag_60\n      calldatasize\n      0x04\n      tag_61\n      jump\t// in\n    tag_60:\n      tag_62\n      jump\t// in\n        /* \"contract.sol\":16623:16775  function bnbTvl(address adr) public view returns (uint256) {... */\n    tag_10:\n      tag_63\n      tag_64\n      calldatasize\n      0x04\n      tag_53\n      jump\t// in\n    tag_64:\n      tag_65\n      jump\t// in\n    tag_63:\n      mload(0x40)\n        /* \"#utility.yul\":2045:2070   */\n      swap1\n      dup2\n      mstore\n        /* \"#utility.yul\":2033:2035   */\n      0x20\n        /* \"#utility.yul\":2018:2036   */\n      add\n        /* \"contract.sol\":16623:16775  function bnbTvl(address adr) public view returns (uint256) {... */\n      tag_39\n        /* \"#utility.yul\":1899:2076   */\n      jump\n        /* \"contract.sol\":7762:7861  function user(address adr) public view returns (Baker memory) {... */\n    tag_11:\n      tag_68\n      tag_69\n      calldatasize\n      0x04\n      tag_53\n      jump\t// in\n    tag_69:\n      tag_70\n      jump\t// in\n    tag_68:\n      mload(0x40)\n      tag_39\n      swap2\n      swap1\n      tag_72\n      jump\t// in\n        /* \"contract.sol\":14290:14841  function hasBeanTaxed(address adr) public view returns (uint256) {... */\n    tag_12:\n      tag_63\n      tag_74\n      calldatasize\n      0x04\n      tag_53\n      jump\t// in\n    tag_74:\n      tag_75\n      jump\t// in\n        /* \"contract.sol\":17325:17445  function contractBalance() public view returns (uint256) {... */\n    tag_13:\n      tag_63\n      tag_78\n      jump\t// in\n        /* \"contract.sol\":1298:1375  function owner() public view returns (address) {... */\n    tag_14:\n        /* \"contract.sol\":1336:1343  address */\n      0x00\n        /* \"contract.sol\":1361:1367  _owner */\n      sload\n      sub(shl(0xa0, 0x01), 0x01)\n      and\n        /* \"contract.sol\":1298:1375  function owner() public view returns (address) {... */\n      jump(tag_37)\n        /* \"contract.sol\":5813:5884  address public CEO_ADDRESS = 0x5F5FE741A43E9A2b9e4BC31583F71e15eba30ef9 */\n    tag_15:\n      sload(0x05)\n      tag_37\n      swap1\n      sub(shl(0xa0, 0x01), 0x01)\n      and\n      dup2\n      jump\n        /* \"contract.sol\":15265:15429  function userBonusEligibleReferrals(... */\n    tag_16:\n      tag_51\n      tag_87\n      calldatasize\n      0x04\n      tag_53\n      jump\t// in\n    tag_87:\n      tag_88\n      jump\t// in\n        /* \"contract.sol\":19433:19517  function initializeContract() public onlyOwner {... */\n    tag_17:\n      tag_41\n      tag_91\n      jump\t// in\n        /* \"contract.sol\":16135:16278  function maxTvlReached(address adr) public view returns (bool) {... */\n    tag_18:\n      tag_92\n      tag_93\n      calldatasize\n      0x04\n      tag_53\n      jump\t// in\n    tag_93:\n      tag_94\n      jump\t// in\n    tag_92:\n      mload(0x40)\n        /* \"#utility.yul\":4204:4218   */\n      swap1\n      iszero\n        /* \"#utility.yul\":4197:4219   */\n      iszero\n        /* \"#utility.yul\":4179:4220   */\n      dup2\n      mstore\n        /* \"#utility.yul\":4167:4169   */\n      0x20\n        /* \"#utility.yul\":4152:4170   */\n      add\n        /* \"contract.sol\":16135:16278  function maxTvlReached(address adr) public view returns (bool) {... */\n      tag_39\n        /* \"#utility.yul\":4039:4226   */\n      jump\n        /* \"contract.sol\":6827:6853  uint256 public totalBakers */\n    tag_19:\n      tag_63\n      sload(0x13)\n      dup2\n      jump\n        /* \"contract.sol\":11953:12011  function bake() public {... */\n    tag_20:\n      tag_41\n      tag_101\n      jump\t// in\n        /* \"contract.sol\":17453:17926  function dailyReward(address adr) public view returns (uint256) {... */\n    tag_21:\n      tag_63\n      tag_103\n      calldatasize\n      0x04\n      tag_53\n      jump\t// in\n    tag_103:\n      tag_104\n      jump\t// in\n        /* \"contract.sol\":5891:5967  address public GIVEAWAY_ADDRESS = 0x644c002aB8222F198133AFE7a0046351bC80467d */\n    tag_22:\n      sload(0x06)\n      tag_37\n      swap1\n      sub(shl(0xa0, 0x01), 0x01)\n      and\n      dup2\n      jump\n        /* \"contract.sol\":16410:16615  function bnbRewards(address adr) public view returns (uint256) {... */\n    tag_23:\n      tag_63\n      tag_110\n      calldatasize\n      0x04\n      tag_53\n      jump\t// in\n    tag_110:\n      tag_111\n      jump\t// in\n        /* \"contract.sol\":13644:13769  function maxPayout(address adr) public view returns (uint256) {... */\n    tag_24:\n      tag_63\n      tag_114\n      calldatasize\n      0x04\n      tag_53\n      jump\t// in\n    tag_114:\n      tag_115\n      jump\t// in\n        /* \"contract.sol\":5729:5806  address public MARKETING_ADDRESS = 0x62d563fE47c570d22C927a6B19183b5B6E77E945 */\n    tag_25:\n      sload(0x04)\n      tag_37\n      swap1\n      sub(shl(0xa0, 0x01), 0x01)\n      and\n      dup2\n      jump\n        /* \"contract.sol\":13503:13636  function maxPayoutReached(address adr) public view returns (bool) {... */\n    tag_26:\n      tag_92\n      tag_121\n      calldatasize\n      0x04\n      tag_53\n      jump\t// in\n    tag_121:\n      tag_122\n      jump\t// in\n        /* \"contract.sol\":16286:16402  function hasInvested(address adr) public view returns (bool) {... */\n    tag_27:\n      tag_92\n      tag_125\n      calldatasize\n      0x04\n      tag_53\n      jump\t// in\n    tag_125:\n      sub(shl(0xa0, 0x01), 0x01)\n        /* \"contract.sol\":16365:16376  bakers[adr] */\n      and\n        /* \"contract.sol\":16341:16345  bool */\n      0x00\n        /* \"contract.sol\":16365:16376  bakers[adr] */\n      swap1\n      dup2\n      mstore\n        /* \"contract.sol\":16365:16371  bakers */\n      0x14\n        /* \"contract.sol\":16365:16376  bakers[adr] */\n      0x20\n      mstore\n      0x40\n      swap1\n      keccak256\n        /* \"contract.sol\":16365:16389  bakers[adr].firstDeposit */\n      0x07\n      add\n      sload\n        /* \"contract.sol\":16365:16394  bakers[adr].firstDeposit != 0 */\n      iszero\n      iszero\n      swap1\n        /* \"contract.sol\":16286:16402  function hasInvested(address adr) public view returns (bool) {... */\n      jump\n        /* \"contract.sol\":1656:1763  function transferOwnership(address newOwner) public onlyOwner {... */\n    tag_28:\n      tag_41\n      tag_129\n      calldatasize\n      0x04\n      tag_53\n      jump\t// in\n    tag_129:\n      tag_130\n      jump\t// in\n        /* \"contract.sol\":14849:15257  function secondsSinceLastEat(address adr) public view returns (uint256) {... */\n    tag_29:\n      tag_63\n      tag_132\n      calldatasize\n      0x04\n      tag_53\n      jump\t// in\n    tag_132:\n      tag_133\n      jump\t// in\n        /* \"contract.sol\":12019:13495  function eat() public {... */\n    tag_42:\n        /* \"contract.sol\":12081:12091  msg.sender */\n      caller\n        /* \"contract.sol\":12052:12071  Baker storage baker */\n      0x00\n        /* \"contract.sol\":12074:12092  bakers[msg.sender] */\n      swap1\n      dup2\n      mstore\n        /* \"contract.sol\":12074:12080  bakers */\n      0x14\n        /* \"contract.sol\":12074:12092  bakers[msg.sender] */\n      0x20\n      mstore\n      0x40\n      dup1\n      dup3\n      keccak256\n        /* \"contract.sol\":12123:12132  baker.adr */\n      dup1\n      sload\n      sub(shl(0xa0, 0x01), 0x01)\n      and\n        /* \"contract.sol\":16365:16376  bakers[adr] */\n      dup4\n      mstore\n      swap2\n      keccak256\n        /* \"contract.sol\":16365:16389  bakers[adr].firstDeposit */\n      0x07\n      add\n      sload\n        /* \"contract.sol\":12103:12161  require(hasInvested(baker.adr), \"Must be invested to eat\") */\n      tag_137\n      jumpi\n      mload(0x40)\n      shl(0xe5, 0x461bcd)\n      dup2\n      mstore\n        /* \"#utility.yul\":4433:4435   */\n      0x20\n        /* \"contract.sol\":12103:12161  require(hasInvested(baker.adr), \"Must be invested to eat\") */\n      0x04\n      dup3\n      add\n        /* \"#utility.yul\":4415:4436   */\n      mstore\n        /* \"#utility.yul\":4472:4474   */\n      0x17\n        /* \"#utility.yul\":4452:4470   */\n      0x24\n      dup3\n      add\n        /* \"#utility.yul\":4445:4475   */\n      mstore\n        /* \"#utility.yul\":4511:4536   */\n      0x4d75737420626520696e76657374656420746f20656174000000000000000000\n        /* \"#utility.yul\":4491:4509   */\n      0x44\n      dup3\n      add\n        /* \"#utility.yul\":4484:4537   */\n      mstore\n        /* \"#utility.yul\":4554:4572   */\n      0x64\n      add\n        /* \"contract.sol\":12103:12161  require(hasInvested(baker.adr), \"Must be invested to eat\") */\n    tag_138:\n      mload(0x40)\n      dup1\n      swap2\n      sub\n      swap1\n      revert\n    tag_137:\n        /* \"contract.sol\":12211:12220  baker.adr */\n      dup1\n      sload\n        /* \"contract.sol\":12194:12221  maxPayoutReached(baker.adr) */\n      tag_140\n      swap1\n      sub(shl(0xa0, 0x01), 0x01)\n        /* \"contract.sol\":12211:12220  baker.adr */\n      and\n        /* \"contract.sol\":12194:12210  maxPayoutReached */\n      tag_122\n        /* \"contract.sol\":12194:12221  maxPayoutReached(baker.adr) */\n      jump\t// in\n    tag_140:\n        /* \"contract.sol\":12194:12230  maxPayoutReached(baker.adr) == false */\n      iszero\n        /* \"contract.sol\":12172:12285  require(... */\n      tag_141\n      jumpi\n      mload(0x40)\n      shl(0xe5, 0x461bcd)\n      dup2\n      mstore\n        /* \"#utility.yul\":4785:4787   */\n      0x20\n        /* \"contract.sol\":12172:12285  require(... */\n      0x04\n      dup3\n      add\n        /* \"#utility.yul\":4767:4788   */\n      mstore\n        /* \"#utility.yul\":4824:4826   */\n      0x1b\n        /* \"#utility.yul\":4804:4822   */\n      0x24\n      dup3\n      add\n        /* \"#utility.yul\":4797:4827   */\n      mstore\n        /* \"#utility.yul\":4863:4892   */\n      0x596f7520686176652072656163686564206d6178207061796f75740000000000\n        /* \"#utility.yul\":4843:4861   */\n      0x44\n      dup3\n      add\n        /* \"#utility.yul\":4836:4893   */\n      mstore\n        /* \"#utility.yul\":4910:4928   */\n      0x64\n      add\n        /* \"contract.sol\":12172:12285  require(... */\n      tag_138\n        /* \"#utility.yul\":4583:4934   */\n      jump\n        /* \"contract.sol\":12172:12285  require(... */\n    tag_141:\n        /* \"contract.sol\":12337:12346  baker.adr */\n      dup1\n      sload\n        /* \"contract.sol\":12298:12320  uint256 beansBeforeFee */\n      0x00\n      swap1\n        /* \"contract.sol\":12323:12347  rewardedBeans(baker.adr) */\n      tag_144\n      swap1\n      sub(shl(0xa0, 0x01), 0x01)\n        /* \"contract.sol\":12337:12346  baker.adr */\n      and\n        /* \"contract.sol\":12323:12336  rewardedBeans */\n      tag_145\n        /* \"contract.sol\":12323:12347  rewardedBeans(baker.adr) */\n      jump\t// in\n    tag_144:\n        /* \"contract.sol\":12298:12347  uint256 beansBeforeFee = rewardedBeans(baker.adr) */\n      swap1\n      pop\n        /* \"contract.sol\":12358:12385  uint256 beansInBnbBeforeFee */\n      0x00\n        /* \"contract.sol\":12388:12414  beansToBnb(beansBeforeFee) */\n      tag_146\n        /* \"contract.sol\":12399:12413  beansBeforeFee */\n      dup3\n        /* \"contract.sol\":12388:12398  beansToBnb */\n      tag_147\n        /* \"contract.sol\":12388:12414  beansToBnb(beansBeforeFee) */\n      jump\t// in\n    tag_146:\n        /* \"contract.sol\":12515:12529  WITHDRAWAL_FEE */\n      sload(0x0c)\n        /* \"contract.sol\":12358:12414  uint256 beansInBnbBeforeFee = beansToBnb(beansBeforeFee) */\n      swap1\n      swap2\n      pop\n        /* \"contract.sol\":12427:12446  uint256 totalBnbFee */\n      0x00\n      swap1\n        /* \"contract.sol\":12449:12540  percentFromAmount(... */\n      tag_148\n      swap1\n        /* \"contract.sol\":12358:12414  uint256 beansInBnbBeforeFee = beansToBnb(beansBeforeFee) */\n      dup4\n      swap1\n        /* \"contract.sol\":12515:12529  WITHDRAWAL_FEE */\n      0x010000000000000000000000000000000000000000000000\n      swap1\n      div\n      0xff\n      and\n        /* \"contract.sol\":12449:12466  percentFromAmount */\n      tag_149\n        /* \"contract.sol\":12449:12540  percentFromAmount(... */\n      jump\t// in\n    tag_148:\n        /* \"contract.sol\":12427:12540  uint256 totalBnbFee = percentFromAmount(... */\n      swap1\n      pop\n        /* \"contract.sol\":12553:12569  uint256 bnbToEat */\n      0x00\n        /* \"contract.sol\":12572:12614  Math.sub(beansInBnbBeforeFee, totalBnbFee) */\n      tag_150\n        /* \"contract.sol\":12581:12600  beansInBnbBeforeFee */\n      dup4\n        /* \"contract.sol\":12602:12613  totalBnbFee */\n      dup4\n        /* \"contract.sol\":12572:12580  Math.sub */\n      tag_151\n        /* \"contract.sol\":12572:12614  Math.sub(beansInBnbBeforeFee, totalBnbFee) */\n      jump\t// in\n    tag_150:\n        /* \"contract.sol\":12666:12675  baker.adr */\n      dup6\n      sload\n        /* \"contract.sol\":12553:12614  uint256 bnbToEat = Math.sub(beansInBnbBeforeFee, totalBnbFee) */\n      swap1\n      swap2\n      pop\n        /* \"contract.sol\":12625:12644  uint256 forGiveAway */\n      0x00\n      swap1\n        /* \"contract.sol\":12647:12686  calcGiveAwayAmount(baker.adr, bnbToEat) */\n      tag_152\n      swap1\n      sub(shl(0xa0, 0x01), 0x01)\n        /* \"contract.sol\":12666:12675  baker.adr */\n      and\n        /* \"contract.sol\":12553:12614  uint256 bnbToEat = Math.sub(beansInBnbBeforeFee, totalBnbFee) */\n      dup4\n        /* \"contract.sol\":12647:12665  calcGiveAwayAmount */\n      tag_153\n        /* \"contract.sol\":12647:12686  calcGiveAwayAmount(baker.adr, bnbToEat) */\n      jump\t// in\n    tag_152:\n        /* \"contract.sol\":12727:12736  baker.adr */\n      dup7\n      sload\n        /* \"contract.sol\":12625:12686  uint256 forGiveAway = calcGiveAwayAmount(baker.adr, bnbToEat) */\n      swap1\n      swap2\n      pop\n        /* \"contract.sol\":12708:12747  addWithdrawalTaxes(baker.adr, bnbToEat) */\n      tag_154\n      swap1\n      sub(shl(0xa0, 0x01), 0x01)\n        /* \"contract.sol\":12727:12736  baker.adr */\n      and\n        /* \"contract.sol\":12738:12746  bnbToEat */\n      dup4\n        /* \"contract.sol\":12708:12726  addWithdrawalTaxes */\n      tag_155\n        /* \"contract.sol\":12708:12747  addWithdrawalTaxes(baker.adr, bnbToEat) */\n      jump\t// in\n    tag_154:\n        /* \"contract.sol\":12853:12862  baker.adr */\n      dup7\n      sload\n        /* \"contract.sol\":12697:12747  bnbToEat = addWithdrawalTaxes(baker.adr, bnbToEat) */\n      swap1\n      swap3\n      pop\n        /* \"contract.sol\":12843:12863  maxPayout(baker.adr) */\n      tag_156\n      swap1\n      sub(shl(0xa0, 0x01), 0x01)\n        /* \"contract.sol\":12853:12862  baker.adr */\n      and\n        /* \"contract.sol\":12843:12852  maxPayout */\n      tag_115\n        /* \"contract.sol\":12843:12863  maxPayout(baker.adr) */\n      jump\t// in\n    tag_156:\n        /* \"contract.sol\":12778:12826  Math.add(beansInBnbBeforeFee, baker.totalPayout) */\n      tag_157\n        /* \"contract.sol\":12787:12806  beansInBnbBeforeFee */\n      dup6\n        /* \"contract.sol\":12808:12813  baker */\n      dup9\n        /* \"contract.sol\":12808:12825  baker.totalPayout */\n      0x09\n      add\n      sload\n        /* \"contract.sol\":12778:12786  Math.add */\n      tag_158\n        /* \"contract.sol\":12778:12826  Math.add(beansInBnbBeforeFee, baker.totalPayout) */\n      jump\t// in\n    tag_157:\n        /* \"contract.sol\":12778:12863  Math.add(beansInBnbBeforeFee, baker.totalPayout) >=... */\n      lt\n        /* \"contract.sol\":12760:13240  if (... */\n      tag_159\n      jumpi\n        /* \"contract.sol\":12920:12929  baker.adr */\n      dup6\n      sload\n        /* \"contract.sol\":12901:12950  Math.sub(maxPayout(baker.adr), baker.totalPayout) */\n      tag_160\n      swap1\n        /* \"contract.sol\":12910:12930  maxPayout(baker.adr) */\n      tag_161\n      swap1\n      sub(shl(0xa0, 0x01), 0x01)\n        /* \"contract.sol\":12920:12929  baker.adr */\n      and\n        /* \"contract.sol\":12910:12919  maxPayout */\n      tag_115\n        /* \"contract.sol\":12910:12930  maxPayout(baker.adr) */\n      jump\t// in\n    tag_161:\n        /* \"contract.sol\":12932:12937  baker */\n      dup8\n        /* \"contract.sol\":12932:12949  baker.totalPayout */\n      0x09\n      add\n      sload\n        /* \"contract.sol\":12901:12909  Math.sub */\n      tag_151\n        /* \"contract.sol\":12901:12950  Math.sub(maxPayout(baker.adr), baker.totalPayout) */\n      jump\t// in\n    tag_160:\n        /* \"contract.sol\":12995:13004  baker.adr */\n      dup7\n      sload\n        /* \"contract.sol\":12890:12950  bnbToEat = Math.sub(maxPayout(baker.adr), baker.totalPayout) */\n      swap1\n      swap3\n      pop\n        /* \"contract.sol\":12985:13005  maxPayout(baker.adr) */\n      tag_162\n      swap1\n      sub(shl(0xa0, 0x01), 0x01)\n        /* \"contract.sol\":12995:13004  baker.adr */\n      and\n        /* \"contract.sol\":12985:12994  maxPayout */\n      tag_115\n        /* \"contract.sol\":12985:13005  maxPayout(baker.adr) */\n      jump\t// in\n    tag_162:\n        /* \"contract.sol\":12965:12982  baker.totalPayout */\n      0x09\n      dup8\n      add\n        /* \"contract.sol\":12965:13005  baker.totalPayout = maxPayout(baker.adr) */\n      sstore\n        /* \"contract.sol\":12760:13240  if (... */\n      jump(tag_163)\n    tag_159:\n        /* \"contract.sol\":13094:13103  baker.adr */\n      dup6\n      sload\n        /* \"contract.sol\":13038:13054  uint256 afterTax */\n      0x00\n      swap1\n        /* \"contract.sol\":13057:13156  addWithdrawalTaxes(... */\n      tag_164\n      swap1\n      sub(shl(0xa0, 0x01), 0x01)\n        /* \"contract.sol\":13094:13103  baker.adr */\n      and\n        /* \"contract.sol\":13122:13141  beansInBnbBeforeFee */\n      dup7\n        /* \"contract.sol\":13057:13075  addWithdrawalTaxes */\n      tag_155\n        /* \"contract.sol\":13057:13156  addWithdrawalTaxes(... */\n      jump\t// in\n    tag_164:\n        /* \"contract.sol\":13038:13156  uint256 afterTax = addWithdrawalTaxes(... */\n      swap1\n      pop\n        /* \"contract.sol\":13191:13228  Math.add(baker.totalPayout, afterTax) */\n      tag_165\n        /* \"contract.sol\":13200:13205  baker */\n      dup8\n        /* \"contract.sol\":13200:13217  baker.totalPayout */\n      0x09\n      add\n      sload\n        /* \"contract.sol\":13219:13227  afterTax */\n      dup3\n        /* \"contract.sol\":13191:13199  Math.add */\n      tag_158\n        /* \"contract.sol\":13191:13228  Math.add(baker.totalPayout, afterTax) */\n      jump\t// in\n    tag_165:\n        /* \"contract.sol\":13171:13188  baker.totalPayout */\n      0x09\n      dup9\n      add\n        /* \"contract.sol\":13171:13228  baker.totalPayout = Math.add(baker.totalPayout, afterTax) */\n      sstore\n      pop\n        /* \"contract.sol\":12760:13240  if (... */\n    tag_163:\n        /* \"contract.sol\":13266:13281  block.timestamp */\n      timestamp\n        /* \"contract.sol\":13252:13263  baker.ateAt */\n      0x03\n      dup8\n      add\n        /* \"contract.sol\":13252:13281  baker.ateAt = block.timestamp */\n      dup2\n      swap1\n      sstore\n        /* \"contract.sol\":13292:13305  baker.bakedAt */\n      0x02\n      dup8\n      add\n        /* \"contract.sol\":13292:13323  baker.bakedAt = block.timestamp */\n      sstore\n        /* \"contract.sol\":13336:13370  sendFees(totalBnbFee, forGiveAway) */\n      tag_166\n        /* \"contract.sol\":13345:13356  totalBnbFee */\n      dup4\n        /* \"contract.sol\":13358:13369  forGiveAway */\n      dup3\n        /* \"contract.sol\":13336:13344  sendFees */\n      tag_167\n        /* \"contract.sol\":13336:13370  sendFees(totalBnbFee, forGiveAway) */\n      jump\t// in\n    tag_166:\n        /* \"contract.sol\":13388:13392  BUSD */\n      sload(0x02)\n        /* \"contract.sol\":13381:13424  IERC20(BUSD).transfer(msg.sender, bnbToEat) */\n      mload(0x40)\n      shl(0xe0, 0xa9059cbb)\n      dup2\n      mstore\n        /* \"contract.sol\":13403:13413  msg.sender */\n      caller\n        /* \"contract.sol\":13381:13424  IERC20(BUSD).transfer(msg.sender, bnbToEat) */\n      0x04\n      dup3\n      add\n        /* \"#utility.yul\":5113:5187   */\n      mstore\n        /* \"#utility.yul\":5203:5221   */\n      0x24\n      dup2\n      add\n        /* \"#utility.yul\":5196:5230   */\n      dup5\n      swap1\n      mstore\n      sub(shl(0xa0, 0x01), 0x01)\n        /* \"contract.sol\":13388:13392  BUSD */\n      swap1\n      swap2\n      and\n      swap1\n        /* \"contract.sol\":13381:13402  IERC20(BUSD).transfer */\n      0xa9059cbb\n      swap1\n        /* \"#utility.yul\":5086:5104   */\n      0x44\n      add\n        /* \"contract.sol\":13381:13424  IERC20(BUSD).transfer(msg.sender, bnbToEat) */\n      0x20\n      mload(0x40)\n      dup1\n      dup4\n      sub\n      dup2\n      0x00\n      dup8\n      gas\n      call\n      iszero\n      dup1\n      iszero\n      tag_171\n      jumpi\n      returndatasize\n      0x00\n      dup1\n      returndatacopy\n      revert(0x00, returndatasize)\n    tag_171:\n      pop\n      pop\n      pop\n      pop\n      mload(0x40)\n      returndatasize\n      not(0x1f)\n      0x1f\n      dup3\n      add\n      and\n      dup3\n      add\n      dup1\n      0x40\n      mstore\n      pop\n      dup2\n      add\n      swap1\n      tag_172\n      swap2\n      swap1\n      tag_173\n      jump\t// in\n    tag_172:\n      pop\n        /* \"contract.sol\":13442:13487  EmitAte(msg.sender, bnbToEat, beansBeforeFee) */\n      0x40\n      dup1\n      mload\n        /* \"#utility.yul\":5697:5722   */\n      dup4\n      dup2\n      mstore\n        /* \"#utility.yul\":5753:5755   */\n      0x20\n        /* \"#utility.yul\":5738:5756   */\n      dup2\n      add\n        /* \"#utility.yul\":5731:5765   */\n      dup8\n      swap1\n      mstore\n        /* \"contract.sol\":13450:13460  msg.sender */\n      caller\n      swap2\n        /* \"contract.sol\":13442:13487  EmitAte(msg.sender, bnbToEat, beansBeforeFee) */\n      0xb113e92e5ecc8d9be9ddb22e2542cbf1ed96ce65136ebec77021e72ce8af16ed\n      swap2\n        /* \"#utility.yul\":5670:5688   */\n      add\n        /* \"contract.sol\":13442:13487  EmitAte(msg.sender, bnbToEat, beansBeforeFee) */\n      mload(0x40)\n      dup1\n      swap2\n      sub\n      swap1\n      log2\n        /* \"contract.sol\":12041:13495  {... */\n      pop\n      pop\n      pop\n      pop\n      pop\n      pop\n        /* \"contract.sol\":12019:13495  function eat() public {... */\n      jump\t// out\n        /* \"contract.sol\":15437:15559  function userReferrals(address adr) public view returns (address[] memory) {... */\n    tag_54:\n      sub(shl(0xa0, 0x01), 0x01)\n        /* \"contract.sol\":15530:15541  bakers[adr] */\n      dup2\n      and\n      0x00\n      swap1\n      dup2\n      mstore\n        /* \"contract.sol\":15530:15536  bakers */\n      0x14\n        /* \"contract.sol\":15530:15541  bakers[adr] */\n      0x20\n      swap1\n      dup2\n      mstore\n      0x40\n      swap2\n      dup3\n      swap1\n      keccak256\n        /* \"contract.sol\":15530:15551  bakers[adr].referrals */\n      0x05\n      add\n        /* \"contract.sol\":15523:15551  return bakers[adr].referrals */\n      dup1\n      sload\n      dup4\n      mload\n      dup2\n      dup5\n      mul\n      dup2\n      add\n      dup5\n      add\n      swap1\n      swap5\n      mstore\n      dup1\n      dup5\n      mstore\n        /* \"contract.sol\":15494:15510  address[] memory */\n      0x60\n      swap4\n        /* \"contract.sol\":15523:15551  return bakers[adr].referrals */\n      swap3\n      dup4\n      add\n        /* \"contract.sol\":15530:15551  bakers[adr].referrals */\n      dup3\n        /* \"contract.sol\":15523:15551  return bakers[adr].referrals */\n      dup3\n      dup1\n      iszero\n      tag_177\n      jumpi\n      0x20\n      mul\n      dup3\n      add\n      swap2\n      swap1\n      0x00\n      mstore\n      keccak256(0x00, 0x20)\n      swap1\n    tag_178:\n      dup2\n      sload\n      sub(shl(0xa0, 0x01), 0x01)\n      and\n      dup2\n      mstore\n      0x01\n      swap1\n      swap2\n      add\n      swap1\n      0x20\n      add\n      dup1\n      dup4\n      gt\n      tag_178\n      jumpi\n    tag_177:\n      pop\n      pop\n      pop\n      pop\n      pop\n      swap1\n      pop\n        /* \"contract.sol\":15437:15559  function userReferrals(address adr) public view returns (address[] memory) {... */\n      swap2\n      swap1\n      pop\n      jump\t// out\n        /* \"contract.sol\":1512:1648  function renounceOwnership() public onlyOwner {... */\n    tag_58:\n        /* \"contract.sol\":1427:1433  _owner */\n      and(sub(shl(0xa0, 0x01), 0x01), sload(0x00))\n        /* \"contract.sol\":682:692  msg.sender */\n      caller\n        /* \"contract.sol\":1427:1449  _owner == _msgSender() */\n      eq\n        /* \"contract.sol\":1419:1486  require(_owner == _msgSender(), \"Ownable: caller is not the owner\") */\n      tag_182\n      jumpi\n      mload(0x40)\n      shl(0xe5, 0x461bcd)\n      dup2\n      mstore\n        /* \"#utility.yul\":5978:5980   */\n      0x20\n        /* \"contract.sol\":1419:1486  require(_owner == _msgSender(), \"Ownable: caller is not the owner\") */\n      0x04\n      dup3\n      add\n        /* \"#utility.yul\":5960:5981   */\n      dup2\n      swap1\n      mstore\n        /* \"#utility.yul\":5997:6015   */\n      0x24\n      dup3\n      add\n        /* \"#utility.yul\":5990:6020   */\n      mstore\n        /* \"#utility.yul\":6056:6090   */\n      0x4f776e61626c653a2063616c6c6572206973206e6f7420746865206f776e6572\n        /* \"#utility.yul\":6036:6054   */\n      0x44\n      dup3\n      add\n        /* \"#utility.yul\":6029:6091   */\n      mstore\n        /* \"#utility.yul\":6108:6126   */\n      0x64\n      add\n        /* \"contract.sol\":1419:1486  require(_owner == _msgSender(), \"Ownable: caller is not the owner\") */\n      tag_138\n        /* \"#utility.yul\":5776:6132   */\n      jump\n        /* \"contract.sol\":1419:1486  require(_owner == _msgSender(), \"Ownable: caller is not the owner\") */\n    tag_182:\n        /* \"contract.sol\":1609:1610  0 */\n      0x00\n        /* \"contract.sol\":1593:1599  _owner */\n      dup1\n      sload\n        /* \"contract.sol\":1572:1612  OwnershipTransferred(_owner, address(0)) */\n      mload(0x40)\n      sub(shl(0xa0, 0x01), 0x01)\n        /* \"contract.sol\":1593:1599  _owner */\n      swap1\n      swap2\n      and\n      swap1\n        /* \"contract.sol\":1572:1612  OwnershipTransferred(_owner, address(0)) */\n      0x8be0079c531659141344cd1fd0a4f28419497f9722a3daafe3b4186f6b6457e0\n      swap1\n        /* \"contract.sol\":1609:1610  0 */\n      dup4\n      swap1\n        /* \"contract.sol\":1572:1612  OwnershipTransferred(_owner, address(0)) */\n      log3\n        /* \"contract.sol\":1638:1639  0 */\n      0x00\n        /* \"contract.sol\":1621:1640  _owner = address(0) */\n      dup1\n      sload\n      not(sub(shl(0xa0, 0x01), 0x01))\n      and\n      swap1\n      sstore\n        /* \"contract.sol\":1512:1648  function renounceOwnership() public onlyOwner {... */\n      jump\t// out\n        /* \"contract.sol\":7869:10208  function buyBeans(address ref, uint256 _amount) public {... */\n    tag_62:\n        /* \"contract.sol\":7943:7954  initialized */\n      sload(0x01)\n      shl(0xa0, 0x01)\n      swap1\n      div\n      0xff\n      and\n        /* \"contract.sol\":7935:7955  require(initialized) */\n      tag_187\n      jumpi\n      0x00\n      dup1\n      revert\n    tag_187:\n        /* \"contract.sol\":7995:8005  msg.sender */\n      caller\n        /* \"contract.sol\":7966:7985  Baker storage baker */\n      0x00\n        /* \"contract.sol\":7988:8006  bakers[msg.sender] */\n      swap1\n      dup2\n      mstore\n        /* \"contract.sol\":7988:7994  bakers */\n      0x14\n        /* \"contract.sol\":7988:8006  bakers[msg.sender] */\n      0x20\n      mstore\n      0x40\n      dup1\n      dup3\n      keccak256\n      sub(shl(0xa0, 0x01), 0x01)\n        /* \"contract.sol\":8040:8051  bakers[ref] */\n      dup6\n      and\n      dup4\n      mstore\n      swap2\n      keccak256\n        /* \"contract.sol\":8095:8106  MIN_DEPOSIT */\n      sload(0x0d)\n        /* \"contract.sol\":8084:8106  _amount >= MIN_DEPOSIT */\n      dup4\n      lt\n      iszero\n        /* \"contract.sol\":8062:8179  require(... */\n      tag_188\n      jumpi\n      mload(0x40)\n      shl(0xe5, 0x461bcd)\n      dup2\n      mstore\n        /* \"#utility.yul\":6339:6341   */\n      0x20\n        /* \"contract.sol\":8062:8179  require(... */\n      0x04\n      dup3\n      add\n        /* \"#utility.yul\":6321:6342   */\n      mstore\n        /* \"#utility.yul\":6378:6380   */\n      0x2d\n        /* \"#utility.yul\":6358:6376   */\n      0x24\n      dup3\n      add\n        /* \"#utility.yul\":6351:6381   */\n      mstore\n        /* \"#utility.yul\":6417:6451   */\n      0x4465706f73697420646f65736e2774206d65657420746865206d696e696d756d\n        /* \"#utility.yul\":6397:6415   */\n      0x44\n      dup3\n      add\n        /* \"#utility.yul\":6390:6452   */\n      mstore\n        /* \"#utility.yul\":6488:6503   */\n      0x20726571756972656d656e747300000000000000000000000000000000000000\n        /* \"#utility.yul\":6468:6486   */\n      0x64\n      dup3\n      add\n        /* \"#utility.yul\":6461:6504   */\n      mstore\n        /* \"#utility.yul\":6521:6540   */\n      0x84\n      add\n        /* \"contract.sol\":8062:8179  require(... */\n      tag_138\n        /* \"#utility.yul\":6137:6546   */\n      jump\n        /* \"contract.sol\":8062:8179  require(... */\n    tag_188:\n        /* \"contract.sol\":8253:8274  MAX_WALLET_TVL_IN_BNB */\n      sload(0x0f)\n        /* \"contract.sol\":8212:8249  Math.add(baker.totalDeposit, _amount) */\n      tag_191\n        /* \"contract.sol\":8221:8226  baker */\n      dup4\n        /* \"contract.sol\":8221:8239  baker.totalDeposit */\n      0x08\n      add\n      sload\n        /* \"contract.sol\":8241:8248  _amount */\n      dup6\n        /* \"contract.sol\":8212:8220  Math.add */\n      tag_158\n        /* \"contract.sol\":8212:8249  Math.add(baker.totalDeposit, _amount) */\n      jump\t// in\n    tag_191:\n        /* \"contract.sol\":8212:8274  Math.add(baker.totalDeposit, _amount) <= MAX_WALLET_TVL_IN_BNB */\n      gt\n      iszero\n        /* \"contract.sol\":8190:8327  require(... */\n      tag_192\n      jumpi\n      mload(0x40)\n      shl(0xe5, 0x461bcd)\n      dup2\n      mstore\n        /* \"#utility.yul\":6753:6755   */\n      0x20\n        /* \"contract.sol\":8190:8327  require(... */\n      0x04\n      dup3\n      add\n        /* \"#utility.yul\":6735:6756   */\n      mstore\n        /* \"#utility.yul\":6792:6794   */\n      0x19\n        /* \"#utility.yul\":6772:6790   */\n      0x24\n      dup3\n      add\n        /* \"#utility.yul\":6765:6795   */\n      mstore\n        /* \"#utility.yul\":6831:6858   */\n      0x4d617820746f74616c206465706f736974207265616368656400000000000000\n        /* \"#utility.yul\":6811:6829   */\n      0x44\n      dup3\n      add\n        /* \"#utility.yul\":6804:6859   */\n      mstore\n        /* \"#utility.yul\":6876:6894   */\n      0x64\n      add\n        /* \"contract.sol\":8190:8327  require(... */\n      tag_138\n        /* \"#utility.yul\":6551:6900   */\n      jump\n        /* \"contract.sol\":8190:8327  require(... */\n    tag_192:\n      sub(shl(0xa0, 0x01), 0x01)\n        /* \"contract.sol\":8360:8377  ref == address(0) */\n      dup5\n      and\n      iszero\n      dup1\n        /* \"contract.sol\":8360:8398  ref == address(0) || ref == msg.sender */\n      tag_195\n      jumpi\n      pop\n      sub(shl(0xa0, 0x01), 0x01)\n        /* \"contract.sol\":8381:8398  ref == msg.sender */\n      dup5\n      and\n        /* \"contract.sol\":8388:8398  msg.sender */\n      caller\n        /* \"contract.sol\":8381:8398  ref == msg.sender */\n      eq\n        /* \"contract.sol\":8360:8398  ref == address(0) || ref == msg.sender */\n    tag_195:\n        /* \"contract.sol\":8360:8425  ref == address(0) || ref == msg.sender || hasInvested(upline.adr) */\n      dup1\n      tag_197\n      jumpi\n      pop\n        /* \"contract.sol\":8414:8424  upline.adr */\n      dup1\n      sload\n      sub(shl(0xa0, 0x01), 0x01)\n      and\n        /* \"contract.sol\":16341:16345  bool */\n      0x00\n        /* \"contract.sol\":16365:16376  bakers[adr] */\n      swap1\n      dup2\n      mstore\n        /* \"contract.sol\":16365:16371  bakers */\n      0x14\n        /* \"contract.sol\":16365:16376  bakers[adr] */\n      0x20\n      mstore\n      0x40\n      swap1\n      keccak256\n        /* \"contract.sol\":16365:16389  bakers[adr].firstDeposit */\n      0x07\n      add\n      sload\n        /* \"contract.sol\":16365:16394  bakers[adr].firstDeposit != 0 */\n      iszero\n      iszero\n        /* \"contract.sol\":8402:8425  hasInvested(upline.adr) */\n    tag_197:\n        /* \"contract.sol\":8338:8490  require(... */\n      tag_198\n      jumpi\n      mload(0x40)\n      shl(0xe5, 0x461bcd)\n      dup2\n      mstore\n        /* \"#utility.yul\":7107:7109   */\n      0x20\n        /* \"contract.sol\":8338:8490  require(... */\n      0x04\n      dup3\n      add\n        /* \"#utility.yul\":7089:7110   */\n      mstore\n        /* \"#utility.yul\":7146:7148   */\n      0x25\n        /* \"#utility.yul\":7126:7144   */\n      0x24\n      dup3\n      add\n        /* \"#utility.yul\":7119:7149   */\n      mstore\n        /* \"#utility.yul\":7185:7219   */\n      0x526566206d75737420626520696e766573746f7220746f207365742061732075\n        /* \"#utility.yul\":7165:7183   */\n      0x44\n      dup3\n      add\n        /* \"#utility.yul\":7158:7220   */\n      mstore\n        /* \"#utility.yul\":7256:7263   */\n      0x706c696e65000000000000000000000000000000000000000000000000000000\n        /* \"#utility.yul\":7236:7254   */\n      0x64\n      dup3\n      add\n        /* \"#utility.yul\":7229:7264   */\n      mstore\n        /* \"#utility.yul\":7281:7300   */\n      0x84\n      add\n        /* \"contract.sol\":8338:8490  require(... */\n      tag_138\n        /* \"#utility.yul\":6905:7306   */\n      jump\n        /* \"contract.sol\":8338:8490  require(... */\n    tag_198:\n        /* \"contract.sol\":8508:8512  BUSD */\n      sload(0x02)\n        /* \"contract.sol\":8501:8562  IERC20(BUSD).transferFrom(msg.sender, address(this), _amount) */\n      mload(0x40)\n      shl(0xe0, 0x23b872dd)\n      dup2\n      mstore\n        /* \"contract.sol\":8527:8537  msg.sender */\n      caller\n        /* \"contract.sol\":8501:8562  IERC20(BUSD).transferFrom(msg.sender, address(this), _amount) */\n      0x04\n      dup3\n      add\n        /* \"#utility.yul\":7574:7608   */\n      mstore\n        /* \"contract.sol\":8547:8551  this */\n      address\n        /* \"#utility.yul\":7624:7642   */\n      0x24\n      dup3\n      add\n        /* \"#utility.yul\":7617:7660   */\n      mstore\n        /* \"#utility.yul\":7676:7694   */\n      0x44\n      dup2\n      add\n        /* \"#utility.yul\":7669:7703   */\n      dup6\n      swap1\n      mstore\n      sub(shl(0xa0, 0x01), 0x01)\n        /* \"contract.sol\":8508:8512  BUSD */\n      swap1\n      swap2\n      and\n      swap1\n        /* \"contract.sol\":8501:8526  IERC20(BUSD).transferFrom */\n      0x23b872dd\n      swap1\n        /* \"#utility.yul\":7486:7504   */\n      0x64\n      add\n        /* \"contract.sol\":8501:8562  IERC20(BUSD).transferFrom(msg.sender, address(this), _amount) */\n      0x20\n      mload(0x40)\n      dup1\n      dup4\n      sub\n      dup2\n      0x00\n      dup8\n      gas\n      call\n      iszero\n      dup1\n      iszero\n      tag_204\n      jumpi\n      returndatasize\n      0x00\n      dup1\n      returndatacopy\n      revert(0x00, returndatasize)\n    tag_204:\n      pop\n      pop\n      pop\n      pop\n      mload(0x40)\n      returndatasize\n      not(0x1f)\n      0x1f\n      dup3\n      add\n      and\n      dup3\n      add\n      dup1\n      0x40\n      mstore\n      pop\n      dup2\n      add\n      swap1\n      tag_205\n      swap2\n      swap1\n      tag_173\n      jump\t// in\n    tag_205:\n      pop\n        /* \"contract.sol\":8573:8595  baker.adr = msg.sender */\n      dup2\n      sload\n      not(sub(shl(0xa0, 0x01), 0x01))\n      and\n        /* \"contract.sol\":8585:8595  msg.sender */\n      caller\n        /* \"contract.sol\":8573:8595  baker.adr = msg.sender */\n      or\n      dup3\n      sstore\n      0x01\n        /* \"contract.sol\":8626:8637  baker.beans */\n      dup3\n      add\n      sload\n        /* \"contract.sol\":8699:8710  DEPOSIT_FEE */\n      sload(0x0c)\n        /* \"contract.sol\":8573:8582  baker.adr */\n      0x00\n      swap1\n        /* \"contract.sol\":8672:8711  percentFromAmount(_amount, DEPOSIT_FEE) */\n      tag_206\n      swap1\n        /* \"contract.sol\":8690:8697  _amount */\n      dup7\n      swap1\n        /* \"contract.sol\":8699:8710  DEPOSIT_FEE */\n      0xff\n      0x01000000000000000000000000000000000000000000\n      swap1\n      swap2\n      div\n      and\n        /* \"contract.sol\":8672:8689  percentFromAmount */\n      tag_149\n        /* \"contract.sol\":8672:8711  percentFromAmount(_amount, DEPOSIT_FEE) */\n      jump\t// in\n    tag_206:\n        /* \"contract.sol\":8650:8711  uint256 totalBnbFee = percentFromAmount(_amount, DEPOSIT_FEE) */\n      swap1\n      pop\n        /* \"contract.sol\":8722:8738  uint256 bnbValue */\n      0x00\n        /* \"contract.sol\":8741:8771  Math.sub(_amount, totalBnbFee) */\n      tag_207\n        /* \"contract.sol\":8750:8757  _amount */\n      dup7\n        /* \"contract.sol\":8759:8770  totalBnbFee */\n      dup4\n        /* \"contract.sol\":8741:8749  Math.sub */\n      tag_151\n        /* \"contract.sol\":8741:8771  Math.sub(_amount, totalBnbFee) */\n      jump\t// in\n    tag_207:\n        /* \"contract.sol\":8722:8771  uint256 bnbValue = Math.sub(_amount, totalBnbFee) */\n      swap1\n      pop\n        /* \"contract.sol\":8782:8801  uint256 beansBought */\n      0x00\n        /* \"contract.sol\":8804:8824  bnbToBeans(bnbValue) */\n      tag_208\n        /* \"contract.sol\":8815:8823  bnbValue */\n      dup3\n        /* \"contract.sol\":8804:8814  bnbToBeans */\n      tag_209\n        /* \"contract.sol\":8804:8824  bnbToBeans(bnbValue) */\n      jump\t// in\n    tag_208:\n        /* \"contract.sol\":8873:8882  baker.adr */\n      dup7\n      sload\n        /* \"contract.sol\":8782:8824  uint256 beansBought = bnbToBeans(bnbValue) */\n      swap1\n      swap2\n      pop\n        /* \"contract.sol\":8837:8861  uint256 totalBeansBought */\n      0x00\n      swap1\n        /* \"contract.sol\":8864:8896  addBeans(baker.adr, beansBought) */\n      tag_210\n      swap1\n      sub(shl(0xa0, 0x01), 0x01)\n        /* \"contract.sol\":8873:8882  baker.adr */\n      and\n        /* \"contract.sol\":8782:8824  uint256 beansBought = bnbToBeans(bnbValue) */\n      dup4\n        /* \"contract.sol\":8864:8872  addBeans */\n      tag_211\n        /* \"contract.sol\":8864:8896  addBeans(baker.adr, beansBought) */\n      jump\t// in\n    tag_210:\n        /* \"contract.sol\":8907:8918  baker.beans */\n      0x01\n      dup9\n      add\n        /* \"contract.sol\":8907:8937  baker.beans = totalBeansBought */\n      dup2\n      swap1\n      sstore\n        /* \"contract.sol\":8969:8986  baker.hasReferred */\n      0x04\n      dup9\n      add\n      sload\n        /* \"contract.sol\":8907:8937  baker.beans = totalBeansBought */\n      swap1\n      swap2\n      pop\n      shl(0xa0, 0x01)\n        /* \"contract.sol\":8969:8986  baker.hasReferred */\n      swap1\n      div\n      0xff\n      and\n        /* \"contract.sol\":8968:8986  !baker.hasReferred */\n      iszero\n        /* \"contract.sol\":8968:9020  !baker.hasReferred &&... */\n      dup1\n      iszero\n      tag_212\n      jumpi\n      pop\n      sub(shl(0xa0, 0x01), 0x01)\n        /* \"contract.sol\":9003:9020  ref != msg.sender */\n      dup10\n      and\n        /* \"contract.sol\":9010:9020  msg.sender */\n      caller\n        /* \"contract.sol\":9003:9020  ref != msg.sender */\n      eq\n      iszero\n        /* \"contract.sol\":8968:9020  !baker.hasReferred &&... */\n    tag_212:\n        /* \"contract.sol\":8968:9054  !baker.hasReferred &&... */\n      dup1\n      iszero\n      tag_213\n      jumpi\n      pop\n      sub(shl(0xa0, 0x01), 0x01)\n        /* \"contract.sol\":9037:9054  ref != address(0) */\n      dup10\n      and\n      iszero\n      iszero\n        /* \"contract.sol\":8968:9054  !baker.hasReferred &&... */\n    tag_213:\n        /* \"contract.sol\":8968:9097  !baker.hasReferred &&... */\n      dup1\n      iszero\n      tag_214\n      jumpi\n      pop\n        /* \"contract.sol\":9071:9083  baker.upline */\n      0x04\n      dup8\n      add\n      sload\n      sub(shl(0xa0, 0x01), 0x01)\n      and\n        /* \"contract.sol\":9087:9097  msg.sender */\n      caller\n        /* \"contract.sol\":9071:9097  baker.upline != msg.sender */\n      eq\n      iszero\n        /* \"contract.sol\":8968:9097  !baker.hasReferred &&... */\n    tag_214:\n        /* \"contract.sol\":8950:9536  if (... */\n      iszero\n      tag_218\n      jumpi\n        /* \"contract.sol\":9124:9136  baker.upline */\n      0x04\n      dup8\n      add\n        /* \"contract.sol\":9124:9142  baker.upline = ref */\n      dup1\n      sload\n        /* \"contract.sol\":9157:9181  baker.hasReferred = true */\n      0xffffffffffffffffffffff000000000000000000000000000000000000000000\n      and\n      sub(shl(0xa0, 0x01), 0x01)\n        /* \"contract.sol\":9124:9142  baker.upline = ref */\n      dup1\n      dup13\n      and\n        /* \"contract.sol\":9157:9181  baker.hasReferred = true */\n      swap2\n      swap1\n      swap2\n      or\n      shl(0xa0, 0x01)\n      or\n      swap1\n      swap2\n      sstore\n        /* \"contract.sol\":9198:9214  upline.referrals */\n      0x05\n      dup8\n      add\n        /* \"contract.sol\":9198:9231  upline.referrals.push(msg.sender) */\n      dup1\n      sload\n        /* \"contract.sol\":9124:9142  baker.upline = ref */\n      0x01\n        /* \"contract.sol\":9198:9231  upline.referrals.push(msg.sender) */\n      dup2\n      add\n      dup3\n      sstore\n        /* \"contract.sol\":9124:9136  baker.upline */\n      0x00\n        /* \"contract.sol\":9198:9231  upline.referrals.push(msg.sender) */\n      swap2\n      dup3\n      mstore\n      0x20\n      swap1\n      swap2\n      keccak256\n      add\n      dup1\n      sload\n      not(sub(shl(0xa0, 0x01), 0x01))\n      and\n        /* \"contract.sol\":9220:9230  msg.sender */\n      caller\n        /* \"contract.sol\":9198:9231  upline.referrals.push(msg.sender) */\n      or\n      swap1\n      sstore\n        /* \"contract.sol\":9262:9271  baker.adr */\n      dup8\n      sload\n        /* \"contract.sol\":9250:9272  hasInvested(baker.adr) */\n      tag_217\n      swap2\n        /* \"contract.sol\":9262:9271  baker.adr */\n      and\n      sub(shl(0xa0, 0x01), 0x01)\n        /* \"contract.sol\":16365:16376  bakers[adr] */\n      and\n        /* \"contract.sol\":16341:16345  bool */\n      0x00\n        /* \"contract.sol\":16365:16376  bakers[adr] */\n      swap1\n      dup2\n      mstore\n        /* \"contract.sol\":16365:16371  bakers */\n      0x14\n        /* \"contract.sol\":16365:16376  bakers[adr] */\n      0x20\n      mstore\n      0x40\n      swap1\n      keccak256\n        /* \"contract.sol\":16365:16389  bakers[adr].firstDeposit */\n      0x07\n      add\n      sload\n        /* \"contract.sol\":16365:16394  bakers[adr].firstDeposit != 0 */\n      iszero\n      iszero\n      swap1\n        /* \"contract.sol\":16286:16402  function hasInvested(address adr) public view returns (bool) {... */\n      jump\n        /* \"contract.sol\":9250:9272  hasInvested(baker.adr) */\n    tag_217:\n        /* \"contract.sol\":9250:9281  hasInvested(baker.adr) == false */\n      iszero\n      iszero\n        /* \"contract.sol\":9276:9281  false */\n      0x00\n        /* \"contract.sol\":9250:9281  hasInvested(baker.adr) == false */\n      sub\n        /* \"contract.sol\":9246:9525  if (hasInvested(baker.adr) == false) {... */\n      tag_218\n      jumpi\n        /* \"contract.sol\":9302:9318  uint256 refBonus */\n      0x00\n        /* \"contract.sol\":9321:9445  percentFromAmount(... */\n      tag_219\n        /* \"contract.sol\":9361:9380  bnbToBeans(_amount) */\n      tag_220\n        /* \"contract.sol\":9372:9379  _amount */\n      dup11\n        /* \"contract.sol\":9361:9371  bnbToBeans */\n      tag_209\n        /* \"contract.sol\":9361:9380  bnbToBeans(_amount) */\n      jump\t// in\n    tag_220:\n        /* \"contract.sol\":9403:9426  FIRST_DEPOSIT_REF_BONUS */\n      sload(0x0c)\n      shl(0xf0, 0x01)\n      swap1\n      div\n      0xff\n      and\n        /* \"contract.sol\":9321:9338  percentFromAmount */\n      tag_149\n        /* \"contract.sol\":9321:9445  percentFromAmount(... */\n      jump\t// in\n    tag_219:\n        /* \"contract.sol\":9488:9498  upline.adr */\n      dup8\n      sload\n        /* \"contract.sol\":9302:9445  uint256 refBonus = percentFromAmount(... */\n      swap1\n      swap2\n      pop\n        /* \"contract.sol\":9479:9509  addBeans(upline.adr, refBonus) */\n      tag_221\n      swap1\n      sub(shl(0xa0, 0x01), 0x01)\n        /* \"contract.sol\":9488:9498  upline.adr */\n      and\n        /* \"contract.sol\":9302:9445  uint256 refBonus = percentFromAmount(... */\n      dup3\n        /* \"contract.sol\":9479:9487  addBeans */\n      tag_211\n        /* \"contract.sol\":9479:9509  addBeans(upline.adr, refBonus) */\n      jump\t// in\n    tag_221:\n        /* \"contract.sol\":9464:9476  upline.beans */\n      0x01\n      dup9\n      add\n        /* \"contract.sol\":9464:9509  upline.beans = addBeans(upline.adr, refBonus) */\n      sstore\n      pop\n        /* \"contract.sol\":9246:9525  if (hasInvested(baker.adr) == false) {... */\n    tag_218:\n        /* \"contract.sol\":9564:9573  baker.adr */\n      dup7\n      sload\n      sub(shl(0xa0, 0x01), 0x01)\n      and\n        /* \"contract.sol\":16341:16345  bool */\n      0x00\n        /* \"contract.sol\":16365:16376  bakers[adr] */\n      swap1\n      dup2\n      mstore\n        /* \"contract.sol\":16365:16371  bakers */\n      0x14\n        /* \"contract.sol\":16365:16376  bakers[adr] */\n      0x20\n      mstore\n      0x40\n      dup2\n      keccak256\n        /* \"contract.sol\":16365:16389  bakers[adr].firstDeposit */\n      0x07\n      add\n      sload\n        /* \"contract.sol\":16365:16394  bakers[adr].firstDeposit != 0 */\n      iszero\n      iszero\n        /* \"contract.sol\":9552:9583  hasInvested(baker.adr) == false */\n      swap1\n      sub\n        /* \"contract.sol\":9548:9728  if (hasInvested(baker.adr) == false) {... */\n      tag_223\n      jumpi\n        /* \"contract.sol\":9621:9636  block.timestamp */\n      timestamp\n        /* \"contract.sol\":9600:9618  baker.firstDeposit */\n      0x07\n      dup9\n      add\n        /* \"contract.sol\":9600:9636  baker.firstDeposit = block.timestamp */\n      sstore\n        /* \"contract.sol\":9679:9688  baker.adr */\n      dup7\n      sload\n        /* \"contract.sol\":9664:9675  totalBakers */\n      0x13\n      dup1\n      sload\n        /* \"contract.sol\":9679:9688  baker.adr */\n      0x00\n        /* \"contract.sol\":9651:9676  bakerAddress[totalBakers] */\n      swap1\n      dup2\n      mstore\n        /* \"contract.sol\":9651:9663  bakerAddress */\n      0x12\n        /* \"contract.sol\":9651:9676  bakerAddress[totalBakers] */\n      0x20\n      mstore\n      0x40\n      dup2\n      keccak256\n        /* \"contract.sol\":9651:9688  bakerAddress[totalBakers] = baker.adr */\n      dup1\n      sload\n      not(sub(shl(0xa0, 0x01), 0x01))\n      and\n      sub(shl(0xa0, 0x01), 0x01)\n        /* \"contract.sol\":9679:9688  baker.adr */\n      swap1\n      swap5\n      and\n        /* \"contract.sol\":9651:9688  bakerAddress[totalBakers] = baker.adr */\n      swap4\n      swap1\n      swap4\n      or\n      swap1\n      swap3\n      sstore\n        /* \"contract.sol\":9703:9716  totalBakers++ */\n      dup1\n      sload\n      swap2\n      tag_224\n      dup4\n      tag_225\n      jump\t// in\n    tag_224:\n      swap2\n      swap1\n      pop\n      sstore\n      pop\n        /* \"contract.sol\":9548:9728  if (hasInvested(baker.adr) == false) {... */\n    tag_223:\n        /* \"contract.sol\":9761:9798  Math.add(baker.totalDeposit, _amount) */\n      tag_226\n        /* \"contract.sol\":9770:9775  baker */\n      dup8\n        /* \"contract.sol\":9770:9788  baker.totalDeposit */\n      0x08\n      add\n      sload\n        /* \"contract.sol\":9790:9797  _amount */\n      dup10\n        /* \"contract.sol\":9761:9769  Math.add */\n      tag_158\n        /* \"contract.sol\":9761:9798  Math.add(baker.totalDeposit, _amount) */\n      jump\t// in\n    tag_226:\n        /* \"contract.sol\":9740:9758  baker.totalDeposit */\n      0x08\n      dup9\n      add\n        /* \"contract.sol\":9740:9798  baker.totalDeposit = Math.add(baker.totalDeposit, _amount) */\n      sstore\n        /* \"contract.sol\":9827:9844  baker.hasReferred */\n      0x04\n      dup8\n      add\n      sload\n      shl(0xa0, 0x01)\n      swap1\n      div\n      0xff\n      and\n        /* \"contract.sol\":9827:9908  baker.hasReferred &&... */\n      dup1\n      iszero\n      tag_227\n      jumpi\n      pop\n        /* \"contract.sol\":9883:9908  MIN_REF_DEPOSIT_FOR_BONUS */\n      sload(0x11)\n        /* \"contract.sol\":9861:9866  baker */\n      dup8\n        /* \"contract.sol\":9861:9879  baker.totalDeposit */\n      0x08\n      add\n      sload\n        /* \"contract.sol\":9861:9908  baker.totalDeposit >= MIN_REF_DEPOSIT_FOR_BONUS */\n      lt\n      iszero\n        /* \"contract.sol\":9827:9908  baker.hasReferred &&... */\n    tag_227:\n        /* \"contract.sol\":9827:9968  baker.hasReferred &&... */\n      dup1\n      iszero\n      tag_228\n      jumpi\n      pop\n        /* \"contract.sol\":9935:9944  baker.adr */\n      dup7\n      sload\n        /* \"contract.sol\":9946:9958  baker.upline */\n      0x04\n      dup9\n      add\n      sload\n        /* \"contract.sol\":9925:9959  refExists(baker.adr, baker.upline) */\n      tag_229\n      swap2\n      sub(shl(0xa0, 0x01), 0x01)\n        /* \"contract.sol\":9935:9944  baker.adr */\n      swap1\n      dup2\n      and\n      swap2\n        /* \"contract.sol\":9946:9958  baker.upline */\n      and\n        /* \"contract.sol\":9925:9934  refExists */\n      tag_230\n        /* \"contract.sol\":9925:9959  refExists(baker.adr, baker.upline) */\n      jump\t// in\n    tag_229:\n        /* \"contract.sol\":9925:9968  refExists(baker.adr, baker.upline) == false */\n      iszero\n        /* \"contract.sol\":9827:9968  baker.hasReferred &&... */\n    tag_228:\n        /* \"contract.sol\":9809:10053  if (... */\n      iszero\n      tag_231\n      jumpi\n        /* \"contract.sol\":9995:10024  upline.bonusEligibleReferrals */\n      0x06\n      dup7\n      add\n        /* \"contract.sol\":9995:10041  upline.bonusEligibleReferrals.push(msg.sender) */\n      dup1\n      sload\n      0x01\n      dup2\n      add\n      dup3\n      sstore\n      0x00\n      swap2\n      dup3\n      mstore\n      0x20\n      swap1\n      swap2\n      keccak256\n      add\n      dup1\n      sload\n      not(sub(shl(0xa0, 0x01), 0x01))\n      and\n        /* \"contract.sol\":10030:10040  msg.sender */\n      caller\n        /* \"contract.sol\":9995:10041  upline.bonusEligibleReferrals.push(msg.sender) */\n      or\n      swap1\n      sstore\n        /* \"contract.sol\":9809:10053  if (... */\n    tag_231:\n        /* \"contract.sol\":10065:10089  sendFees(totalBnbFee, 0) */\n      tag_233\n        /* \"contract.sol\":10074:10085  totalBnbFee */\n      dup5\n        /* \"contract.sol\":10087:10088  0 */\n      0x00\n        /* \"contract.sol\":10065:10073  sendFees */\n      tag_167\n        /* \"contract.sol\":10065:10089  sendFees(totalBnbFee, 0) */\n      jump\t// in\n    tag_233:\n        /* \"contract.sol\":10100:10117  handleBake(false) */\n      tag_234\n        /* \"contract.sol\":10111:10116  false */\n      0x00\n        /* \"contract.sol\":10100:10110  handleBake */\n      tag_235\n        /* \"contract.sol\":10100:10117  handleBake(false) */\n      jump\t// in\n    tag_234:\n        /* \"contract.sol\":10188:10199  baker.beans */\n      0x01\n      dup8\n      add\n      sload\n        /* \"contract.sol\":10135:10200  EmitBoughtBeans(msg.sender, ref, _amount, beansFrom, baker.beans) */\n      0x40\n      dup1\n      mload\n        /* \"#utility.yul\":8188:8213   */\n      dup11\n      dup2\n      mstore\n        /* \"#utility.yul\":8244:8246   */\n      0x20\n        /* \"#utility.yul\":8229:8247   */\n      dup2\n      add\n        /* \"#utility.yul\":8222:8256   */\n      dup9\n      swap1\n      mstore\n        /* \"#utility.yul\":8272:8290   */\n      dup1\n      dup3\n      add\n        /* \"#utility.yul\":8265:8299   */\n      swap3\n      swap1\n      swap3\n      mstore\n        /* \"contract.sol\":10135:10200  EmitBoughtBeans(msg.sender, ref, _amount, beansFrom, baker.beans) */\n      mload\n      sub(shl(0xa0, 0x01), 0x01)\n      dup12\n      and\n      swap2\n        /* \"contract.sol\":10151:10161  msg.sender */\n      caller\n      swap2\n        /* \"contract.sol\":10135:10200  EmitBoughtBeans(msg.sender, ref, _amount, beansFrom, baker.beans) */\n      0x8879552d239927199ffd503b3778d279fea6d215e50781bd537b8b6400483e43\n      swap2\n      dup2\n      swap1\n      sub\n        /* \"#utility.yul\":8176:8178   */\n      0x60\n        /* \"contract.sol\":10135:10200  EmitBoughtBeans(msg.sender, ref, _amount, beansFrom, baker.beans) */\n      add\n      swap1\n      log3\n        /* \"contract.sol\":7924:10208  {... */\n      pop\n      pop\n      pop\n      pop\n      pop\n      pop\n      pop\n        /* \"contract.sol\":7869:10208  function buyBeans(address ref, uint256 _amount) public {... */\n      pop\n      pop\n      jump\t// out\n        /* \"contract.sol\":16623:16775  function bnbTvl(address adr) public view returns (uint256) {... */\n    tag_65:\n      sub(shl(0xa0, 0x01), 0x01)\n        /* \"contract.sol\":16723:16734  bakers[adr] */\n      dup2\n      and\n        /* \"contract.sol\":16673:16680  uint256 */\n      0x00\n        /* \"contract.sol\":16723:16734  bakers[adr] */\n      swap1\n      dup2\n      mstore\n        /* \"contract.sol\":16723:16729  bakers */\n      0x14\n        /* \"contract.sol\":16723:16734  bakers[adr] */\n      0x20\n      mstore\n      0x40\n      dup2\n      keccak256\n        /* \"contract.sol\":16723:16740  bakers[adr].beans */\n      0x01\n      add\n      sload\n        /* \"contract.sol\":16673:16680  uint256 */\n      dup2\n      swap1\n        /* \"contract.sol\":16712:16741  beansToBnb(bakers[adr].beans) */\n      tag_239\n      swap1\n        /* \"contract.sol\":16712:16722  beansToBnb */\n      tag_147\n        /* \"contract.sol\":16712:16741  beansToBnb(bakers[adr].beans) */\n      jump\t// in\n    tag_239:\n        /* \"contract.sol\":16693:16741  uint256 bnbinWei = beansToBnb(bakers[adr].beans) */\n      swap4\n        /* \"contract.sol\":16623:16775  function bnbTvl(address adr) public view returns (uint256) {... */\n      swap3\n      pop\n      pop\n      pop\n      jump\t// out\n        /* \"contract.sol\":7762:7861  function user(address adr) public view returns (Baker memory) {... */\n    tag_70:\n        /* \"contract.sol\":7810:7822  Baker memory */\n      tag_240\n      mload(0x40)\n      dup1\n      0x0160\n      add\n      0x40\n      mstore\n      dup1\n      and(sub(shl(0xa0, 0x01), 0x01), 0x00)\n      dup2\n      mstore\n      0x20\n      add\n      0x00\n      dup2\n      mstore\n      0x20\n      add\n      0x00\n      dup2\n      mstore\n      0x20\n      add\n      0x00\n      dup2\n      mstore\n      0x20\n      add\n      and(sub(shl(0xa0, 0x01), 0x01), 0x00)\n      dup2\n      mstore\n      0x20\n      add\n      iszero(iszero(0x00))\n      dup2\n      mstore\n      0x20\n      add\n      0x60\n      dup2\n      mstore\n      0x20\n      add\n      0x60\n      dup2\n      mstore\n      0x20\n      add\n      0x00\n      dup2\n      mstore\n      0x20\n      add\n      0x00\n      dup2\n      mstore\n      0x20\n      add\n      0x00\n      dup2\n      mstore\n      pop\n      swap1\n      jump\n    tag_240:\n      sub(shl(0xa0, 0x01), 0x01)\n        /* \"contract.sol\":7842:7853  bakers[adr] */\n      dup3\n      dup2\n      and\n      0x00\n      swap1\n      dup2\n      mstore\n        /* \"contract.sol\":7842:7848  bakers */\n      0x14\n        /* \"contract.sol\":7842:7853  bakers[adr] */\n      0x20\n      swap1\n      dup2\n      mstore\n      0x40\n      swap2\n      dup3\n      swap1\n      keccak256\n        /* \"contract.sol\":7835:7853  return bakers[adr] */\n      dup3\n      mload\n      0x0160\n      dup2\n      add\n      dup5\n      mstore\n      dup2\n      sload\n      dup6\n      and\n      dup2\n      mstore\n      0x01\n      dup3\n      add\n      sload\n      dup2\n      dup5\n      add\n      mstore\n      0x02\n      dup3\n      add\n      sload\n      dup2\n      dup6\n      add\n      mstore\n      0x03\n      dup3\n      add\n      sload\n      0x60\n      dup3\n      add\n      mstore\n      0x04\n      dup3\n      add\n      sload\n      swap5\n      dup6\n      and\n      0x80\n      dup3\n      add\n      mstore\n      shl(0xa0, 0x01)\n      swap1\n      swap5\n      div\n      0xff\n      and\n      iszero\n      iszero\n      0xa0\n      dup6\n      add\n      mstore\n      0x05\n      dup2\n      add\n      dup1\n      sload\n      dup5\n      mload\n      dup2\n      dup6\n      mul\n      dup2\n      add\n      dup6\n      add\n      swap1\n      swap6\n      mstore\n      dup1\n      dup6\n      mstore\n        /* \"contract.sol\":7842:7853  bakers[adr] */\n      swap2\n      swap4\n        /* \"contract.sol\":7835:7853  return bakers[adr] */\n      0xc0\n      dup7\n      add\n      swap4\n      swap1\n      swap3\n      swap1\n      dup4\n      add\n      dup3\n      dup3\n      dup1\n      iszero\n      tag_243\n      jumpi\n      0x20\n      mul\n      dup3\n      add\n      swap2\n      swap1\n      0x00\n      mstore\n      keccak256(0x00, 0x20)\n      swap1\n    tag_244:\n      dup2\n      sload\n      sub(shl(0xa0, 0x01), 0x01)\n      and\n      dup2\n      mstore\n      0x01\n      swap1\n      swap2\n      add\n      swap1\n      0x20\n      add\n      dup1\n      dup4\n      gt\n      tag_244\n      jumpi\n    tag_243:\n      pop\n      pop\n      pop\n      pop\n      pop\n      dup2\n      mstore\n      0x20\n      add\n      0x06\n      dup3\n      add\n      dup1\n      sload\n      dup1\n      0x20\n      mul\n      0x20\n      add\n      mload(0x40)\n      swap1\n      dup2\n      add\n      0x40\n      mstore\n      dup1\n      swap3\n      swap2\n      swap1\n      dup2\n      dup2\n      mstore\n      0x20\n      add\n      dup3\n      dup1\n      sload\n      dup1\n      iszero\n      tag_245\n      jumpi\n      0x20\n      mul\n      dup3\n      add\n      swap2\n      swap1\n      0x00\n      mstore\n      keccak256(0x00, 0x20)\n      swap1\n    tag_246:\n      dup2\n      sload\n      sub(shl(0xa0, 0x01), 0x01)\n      and\n      dup2\n      mstore\n      0x01\n      swap1\n      swap2\n      add\n      swap1\n      0x20\n      add\n      dup1\n      dup4\n      gt\n      tag_246\n      jumpi\n    tag_245:\n      pop\n      pop\n      pop\n      pop\n      pop\n      dup2\n      mstore\n      0x20\n      add\n      0x07\n      dup3\n      add\n      sload\n      dup2\n      mstore\n      0x20\n      add\n      0x08\n      dup3\n      add\n      sload\n      dup2\n      mstore\n      0x20\n      add\n      0x09\n      dup3\n      add\n      sload\n      dup2\n      mstore\n      pop\n      pop\n      swap1\n      pop\n        /* \"contract.sol\":7762:7861  function user(address adr) public view returns (Baker memory) {... */\n      swap2\n      swap1\n      pop\n      jump\t// out\n        /* \"contract.sol\":14290:14841  function hasBeanTaxed(address adr) public view returns (uint256) {... */\n    tag_75:\n        /* \"contract.sol\":14346:14353  uint256 */\n      0x00\n        /* \"contract.sol\":14366:14384  uint256 daysPassed */\n      dup1\n        /* \"contract.sol\":14387:14408  daysSinceLastEat(adr) */\n      tag_248\n        /* \"contract.sol\":14404:14407  adr */\n      dup4\n        /* \"contract.sol\":14387:14403  daysSinceLastEat */\n      tag_249\n        /* \"contract.sol\":14387:14408  daysSinceLastEat(adr) */\n      jump\t// in\n    tag_248:\n        /* \"contract.sol\":14366:14408  uint256 daysPassed = daysSinceLastEat(adr) */\n      swap1\n      pop\n        /* \"contract.sol\":14419:14436  uint256 lastDigit */\n      0x00\n        /* \"contract.sol\":14439:14454  daysPassed % 10 */\n      tag_250\n        /* \"contract.sol\":14452:14454  10 */\n      0x0a\n        /* \"contract.sol\":14366:14408  uint256 daysPassed = daysSinceLastEat(adr) */\n      dup4\n        /* \"contract.sol\":14439:14454  daysPassed % 10 */\n      tag_251\n      jump\t// in\n    tag_250:\n        /* \"contract.sol\":14419:14454  uint256 lastDigit = daysPassed % 10 */\n      swap1\n      pop\n        /* \"contract.sol\":14482:14483  0 */\n      0x00\n        /* \"contract.sol\":14469:14478  lastDigit */\n      dup2\n        /* \"contract.sol\":14469:14483  lastDigit <= 0 */\n      gt\n        /* \"contract.sol\":14465:14494  if (lastDigit <= 0) return 90 */\n      tag_252\n      jumpi\n      pop\n        /* \"contract.sol\":14492:14494  90 */\n      0x5a\n      swap4\n        /* \"contract.sol\":14290:14841  function hasBeanTaxed(address adr) public view returns (uint256) {... */\n      swap3\n      pop\n      pop\n      pop\n      jump\t// out\n        /* \"contract.sol\":14465:14494  if (lastDigit <= 0) return 90 */\n    tag_252:\n        /* \"contract.sol\":14522:14523  1 */\n      0x01\n        /* \"contract.sol\":14509:14518  lastDigit */\n      dup2\n        /* \"contract.sol\":14509:14523  lastDigit <= 1 */\n      gt\n        /* \"contract.sol\":14505:14534  if (lastDigit <= 1) return 80 */\n      tag_253\n      jumpi\n      pop\n        /* \"contract.sol\":14532:14534  80 */\n      0x50\n      swap4\n        /* \"contract.sol\":14290:14841  function hasBeanTaxed(address adr) public view returns (uint256) {... */\n      swap3\n      pop\n      pop\n      pop\n      jump\t// out\n        /* \"contract.sol\":14505:14534  if (lastDigit <= 1) return 80 */\n    tag_253:\n        /* \"contract.sol\":14562:14563  2 */\n      0x02\n        /* \"contract.sol\":14549:14558  lastDigit */\n      dup2\n        /* \"contract.sol\":14549:14563  lastDigit <= 2 */\n      gt\n        /* \"contract.sol\":14545:14574  if (lastDigit <= 2) return 70 */\n      tag_254\n      jumpi\n      pop\n        /* \"contract.sol\":14572:14574  70 */\n      0x46\n      swap4\n        /* \"contract.sol\":14290:14841  function hasBeanTaxed(address adr) public view returns (uint256) {... */\n      swap3\n      pop\n      pop\n      pop\n      jump\t// out\n        /* \"contract.sol\":14545:14574  if (lastDigit <= 2) return 70 */\n    tag_254:\n        /* \"contract.sol\":14602:14603  3 */\n      0x03\n        /* \"contract.sol\":14589:14598  lastDigit */\n      dup2\n        /* \"contract.sol\":14589:14603  lastDigit <= 3 */\n      gt\n        /* \"contract.sol\":14585:14614  if (lastDigit <= 3) return 60 */\n      tag_255\n      jumpi\n      pop\n        /* \"contract.sol\":14612:14614  60 */\n      0x3c\n      swap4\n        /* \"contract.sol\":14290:14841  function hasBeanTaxed(address adr) public view returns (uint256) {... */\n      swap3\n      pop\n      pop\n      pop\n      jump\t// out\n        /* \"contract.sol\":14585:14614  if (lastDigit <= 3) return 60 */\n    tag_255:\n        /* \"contract.sol\":14642:14643  4 */\n      0x04\n        /* \"contract.sol\":14629:14638  lastDigit */\n      dup2\n        /* \"contract.sol\":14629:14643  lastDigit <= 4 */\n      gt\n        /* \"contract.sol\":14625:14654  if (lastDigit <= 4) return 50 */\n      tag_256\n      jumpi\n      pop\n        /* \"contract.sol\":14652:14654  50 */\n      0x32\n      swap4\n        /* \"contract.sol\":14290:14841  function hasBeanTaxed(address adr) public view returns (uint256) {... */\n      swap3\n      pop\n      pop\n      pop\n      jump\t// out\n        /* \"contract.sol\":14625:14654  if (lastDigit <= 4) return 50 */\n    tag_256:\n        /* \"contract.sol\":14682:14683  5 */\n      0x05\n        /* \"contract.sol\":14669:14678  lastDigit */\n      dup2\n        /* \"contract.sol\":14669:14683  lastDigit <= 5 */\n      gt\n        /* \"contract.sol\":14665:14694  if (lastDigit <= 5) return 40 */\n      tag_257\n      jumpi\n      pop\n        /* \"contract.sol\":14692:14694  40 */\n      0x28\n      swap4\n        /* \"contract.sol\":14290:14841  function hasBeanTaxed(address adr) public view returns (uint256) {... */\n      swap3\n      pop\n      pop\n      pop\n      jump\t// out\n        /* \"contract.sol\":14665:14694  if (lastDigit <= 5) return 40 */\n    tag_257:\n        /* \"contract.sol\":14722:14723  6 */\n      0x06\n        /* \"contract.sol\":14709:14718  lastDigit */\n      dup2\n        /* \"contract.sol\":14709:14723  lastDigit <= 6 */\n      gt\n        /* \"contract.sol\":14705:14734  if (lastDigit <= 6) return 30 */\n      tag_258\n      jumpi\n      pop\n        /* \"contract.sol\":14732:14734  30 */\n      0x1e\n      swap4\n        /* \"contract.sol\":14290:14841  function hasBeanTaxed(address adr) public view returns (uint256) {... */\n      swap3\n      pop\n      pop\n      pop\n      jump\t// out\n        /* \"contract.sol\":14705:14734  if (lastDigit <= 6) return 30 */\n    tag_258:\n        /* \"contract.sol\":14762:14763  7 */\n      0x07\n        /* \"contract.sol\":14749:14758  lastDigit */\n      dup2\n        /* \"contract.sol\":14749:14763  lastDigit <= 7 */\n      gt\n        /* \"contract.sol\":14745:14774  if (lastDigit <= 7) return 20 */\n      tag_259\n      jumpi\n      pop\n        /* \"contract.sol\":14772:14774  20 */\n      0x14\n      swap4\n        /* \"contract.sol\":14290:14841  function hasBeanTaxed(address adr) public view returns (uint256) {... */\n      swap3\n      pop\n      pop\n      pop\n      jump\t// out\n        /* \"contract.sol\":14745:14774  if (lastDigit <= 7) return 20 */\n    tag_259:\n        /* \"contract.sol\":14802:14803  8 */\n      0x08\n        /* \"contract.sol\":14789:14798  lastDigit */\n      dup2\n        /* \"contract.sol\":14789:14803  lastDigit <= 8 */\n      gt\n        /* \"contract.sol\":14785:14814  if (lastDigit <= 8) return 10 */\n      tag_260\n      jumpi\n      pop\n        /* \"contract.sol\":14812:14814  10 */\n      0x0a\n      swap4\n        /* \"contract.sol\":14290:14841  function hasBeanTaxed(address adr) public view returns (uint256) {... */\n      swap3\n      pop\n      pop\n      pop\n      jump\t// out\n        /* \"contract.sol\":14785:14814  if (lastDigit <= 8) return 10 */\n    tag_260:\n      pop\n        /* \"contract.sol\":14832:14833  0 */\n      0x00\n      swap4\n        /* \"contract.sol\":14290:14841  function hasBeanTaxed(address adr) public view returns (uint256) {... */\n      swap3\n      pop\n      pop\n      pop\n      jump\t// out\n        /* \"contract.sol\":17325:17445  function contractBalance() public view returns (uint256) {... */\n    tag_78:\n        /* \"contract.sol\":17407:17411  BUSD */\n      sload(0x02)\n        /* \"contract.sol\":17400:17437  IERC20(BUSD).balanceOf(address(this)) */\n      mload(0x40)\n      shl(0xe0, 0x70a08231)\n      dup2\n      mstore\n        /* \"contract.sol\":17431:17435  this */\n      address\n        /* \"contract.sol\":17400:17437  IERC20(BUSD).balanceOf(address(this)) */\n      0x04\n      dup3\n      add\n        /* \"#utility.yul\":292:366   */\n      mstore\n        /* \"contract.sol\":17373:17380  uint256 */\n      0x00\n      swap2\n      sub(shl(0xa0, 0x01), 0x01)\n        /* \"contract.sol\":17407:17411  BUSD */\n      and\n      swap1\n        /* \"contract.sol\":17400:17422  IERC20(BUSD).balanceOf */\n      0x70a08231\n      swap1\n        /* \"#utility.yul\":265:283   */\n      0x24\n      add\n        /* \"contract.sol\":17400:17437  IERC20(BUSD).balanceOf(address(this)) */\n      0x20\n      mload(0x40)\n      dup1\n      dup4\n      sub\n      dup2\n      dup7\n      gas\n      staticcall\n      iszero\n      dup1\n      iszero\n      tag_264\n      jumpi\n      returndatasize\n      0x00\n      dup1\n      returndatacopy\n      revert(0x00, returndatasize)\n    tag_264:\n      pop\n      pop\n      pop\n      pop\n      mload(0x40)\n      returndatasize\n      not(0x1f)\n      0x1f\n      dup3\n      add\n      and\n      dup3\n      add\n      dup1\n      0x40\n      mstore\n      pop\n      dup2\n      add\n      swap1\n      tag_265\n      swap2\n      swap1\n      tag_266\n      jump\t// in\n    tag_265:\n        /* \"contract.sol\":17393:17437  return IERC20(BUSD).balanceOf(address(this)) */\n      swap1\n      pop\n        /* \"contract.sol\":17325:17445  function contractBalance() public view returns (uint256) {... */\n      swap1\n      jump\t// out\n        /* \"contract.sol\":15265:15429  function userBonusEligibleReferrals(... */\n    tag_88:\n      sub(shl(0xa0, 0x01), 0x01)\n        /* \"contract.sol\":15387:15398  bakers[adr] */\n      dup2\n      and\n      0x00\n      swap1\n      dup2\n      mstore\n        /* \"contract.sol\":15387:15393  bakers */\n      0x14\n        /* \"contract.sol\":15387:15398  bakers[adr] */\n      0x20\n      swap1\n      dup2\n      mstore\n      0x40\n      swap2\n      dup3\n      swap1\n      keccak256\n        /* \"contract.sol\":15387:15421  bakers[adr].bonusEligibleReferrals */\n      0x06\n      add\n        /* \"contract.sol\":15380:15421  return bakers[adr].bonusEligibleReferrals */\n      dup1\n      sload\n      dup4\n      mload\n      dup2\n      dup5\n      mul\n      dup2\n      add\n      dup5\n      add\n      swap1\n      swap5\n      mstore\n      dup1\n      dup5\n      mstore\n        /* \"contract.sol\":15351:15367  address[] memory */\n      0x60\n      swap4\n        /* \"contract.sol\":15380:15421  return bakers[adr].bonusEligibleReferrals */\n      swap3\n      dup4\n      add\n        /* \"contract.sol\":15387:15421  bakers[adr].bonusEligibleReferrals */\n      dup3\n        /* \"contract.sol\":15380:15421  return bakers[adr].bonusEligibleReferrals */\n      dup3\n      dup1\n      iszero\n      tag_177\n      jumpi\n      0x20\n      mul\n      dup3\n      add\n      swap2\n      swap1\n      0x00\n      mstore\n      keccak256(0x00, 0x20)\n      swap1\n      dup2\n      sload\n      sub(shl(0xa0, 0x01), 0x01)\n      and\n      dup2\n      mstore\n      0x01\n      swap1\n      swap2\n      add\n      swap1\n      0x20\n      add\n      dup1\n      dup4\n      gt\n      tag_178\n      jumpi\n      pop\n      pop\n      pop\n      pop\n      pop\n      swap1\n      pop\n        /* \"contract.sol\":15265:15429  function userBonusEligibleReferrals(... */\n      swap2\n      swap1\n      pop\n      jump\t// out\n        /* \"contract.sol\":19433:19517  function initializeContract() public onlyOwner {... */\n    tag_91:\n        /* \"contract.sol\":1427:1433  _owner */\n      and(sub(shl(0xa0, 0x01), 0x01), sload(0x00))\n        /* \"contract.sol\":682:692  msg.sender */\n      caller\n        /* \"contract.sol\":1427:1449  _owner == _msgSender() */\n      eq\n        /* \"contract.sol\":1419:1486  require(_owner == _msgSender(), \"Ownable: caller is not the owner\") */\n      tag_273\n      jumpi\n      mload(0x40)\n      shl(0xe5, 0x461bcd)\n      dup2\n      mstore\n        /* \"#utility.yul\":5978:5980   */\n      0x20\n        /* \"contract.sol\":1419:1486  require(_owner == _msgSender(), \"Ownable: caller is not the owner\") */\n      0x04\n      dup3\n      add\n        /* \"#utility.yul\":5960:5981   */\n      dup2\n      swap1\n      mstore\n        /* \"#utility.yul\":5997:6015   */\n      0x24\n      dup3\n      add\n        /* \"#utility.yul\":5990:6020   */\n      mstore\n        /* \"#utility.yul\":6056:6090   */\n      0x4f776e61626c653a2063616c6c6572206973206e6f7420746865206f776e6572\n        /* \"#utility.yul\":6036:6054   */\n      0x44\n      dup3\n      add\n        /* \"#utility.yul\":6029:6091   */\n      mstore\n        /* \"#utility.yul\":6108:6126   */\n      0x64\n      add\n        /* \"contract.sol\":1419:1486  require(_owner == _msgSender(), \"Ownable: caller is not the owner\") */\n      tag_138\n        /* \"#utility.yul\":5776:6132   */\n      jump\n        /* \"contract.sol\":1419:1486  require(_owner == _msgSender(), \"Ownable: caller is not the owner\") */\n    tag_273:\n        /* \"contract.sol\":19505:19509  true */\n      0x01\n        /* \"contract.sol\":19491:19509  initialized = true */\n      dup1\n      sload\n      0xffffffffffffffffffffff00ffffffffffffffffffffffffffffffffffffffff\n      and\n      shl(0xa0, 0x01)\n      or\n      swap1\n      sstore\n        /* \"contract.sol\":19433:19517  function initializeContract() public onlyOwner {... */\n      jump\t// out\n        /* \"contract.sol\":16135:16278  function maxTvlReached(address adr) public view returns (bool) {... */\n    tag_94:\n        /* \"contract.sol\":16192:16196  bool */\n      0x00\n        /* \"contract.sol\":16237:16270  bnbToBeans(MAX_WALLET_TVL_IN_BNB) */\n      tag_277\n        /* \"contract.sol\":16248:16269  MAX_WALLET_TVL_IN_BNB */\n      sload(0x0f)\n        /* \"contract.sol\":16237:16247  bnbToBeans */\n      tag_209\n        /* \"contract.sol\":16237:16270  bnbToBeans(MAX_WALLET_TVL_IN_BNB) */\n      jump\t// in\n    tag_277:\n      sub(shl(0xa0, 0x01), 0x01)\n        /* \"contract.sol\":16216:16227  bakers[adr] */\n      swap1\n      swap3\n      and\n      0x00\n      swap1\n      dup2\n      mstore\n        /* \"contract.sol\":16216:16222  bakers */\n      0x14\n        /* \"contract.sol\":16216:16227  bakers[adr] */\n      0x20\n      mstore\n      0x40\n      swap1\n      keccak256\n        /* \"contract.sol\":16216:16233  bakers[adr].beans */\n      0x01\n      add\n      sload\n        /* \"contract.sol\":16216:16270  bakers[adr].beans >= bnbToBeans(MAX_WALLET_TVL_IN_BNB) */\n      swap2\n      swap1\n      swap2\n      lt\n      iszero\n      swap2\n        /* \"contract.sol\":16135:16278  function maxTvlReached(address adr) public view returns (bool) {... */\n      swap1\n      pop\n      jump\t// out\n        /* \"contract.sol\":11953:12011  function bake() public {... */\n    tag_101:\n        /* \"contract.sol\":11987:12003  handleBake(true) */\n      tag_279\n        /* \"contract.sol\":11998:12002  true */\n      0x01\n        /* \"contract.sol\":11987:11997  handleBake */\n      tag_235\n        /* \"contract.sol\":11987:12003  handleBake(true) */\n      jump\t// in\n    tag_279:\n        /* \"contract.sol\":11953:12011  function bake() public {... */\n      jump\t// out\n        /* \"contract.sol\":17453:17926  function dailyReward(address adr) public view returns (uint256) {... */\n    tag_104:\n      sub(shl(0xa0, 0x01), 0x01)\n        /* \"contract.sol\":17553:17564  bakers[adr] */\n      dup2\n      and\n        /* \"contract.sol\":17508:17515  uint256 */\n      0x00\n        /* \"contract.sol\":17553:17564  bakers[adr] */\n      swap1\n      dup2\n      mstore\n        /* \"contract.sol\":17553:17559  bakers */\n      0x14\n        /* \"contract.sol\":17553:17564  bakers[adr] */\n      0x20\n      mstore\n      0x40\n      dup2\n      keccak256\n        /* \"contract.sol\":17553:17587  bakers[adr].bonusEligibleReferrals */\n      0x06\n      add\n        /* \"contract.sol\":17553:17594  bakers[adr].bonusEligibleReferrals.length */\n      sload\n        /* \"contract.sol\":17626:17628  10 */\n      0x0a\n        /* \"contract.sol\":17609:17628  referralsCount < 10 */\n      dup2\n      lt\n        /* \"contract.sol\":17605:17642  if (referralsCount < 10) return 35000 */\n      iszero\n      tag_281\n      jumpi\n      pop\n        /* \"contract.sol\":17637:17642  35000 */\n      0x88b8\n      swap3\n        /* \"contract.sol\":17453:17926  function dailyReward(address adr) public view returns (uint256) {... */\n      swap2\n      pop\n      pop\n      jump\t// out\n        /* \"contract.sol\":17605:17642  if (referralsCount < 10) return 35000 */\n    tag_281:\n        /* \"contract.sol\":17674:17676  25 */\n      0x19\n        /* \"contract.sol\":17657:17671  referralsCount */\n      dup2\n        /* \"contract.sol\":17657:17676  referralsCount < 25 */\n      lt\n        /* \"contract.sol\":17653:17692  if (referralsCount < 25) return (40000) */\n      iszero\n      tag_282\n      jumpi\n      pop\n        /* \"contract.sol\":17686:17691  40000 */\n      0x9c40\n      swap3\n        /* \"contract.sol\":17453:17926  function dailyReward(address adr) public view returns (uint256) {... */\n      swap2\n      pop\n      pop\n      jump\t// out\n        /* \"contract.sol\":17653:17692  if (referralsCount < 25) return (40000) */\n    tag_282:\n        /* \"contract.sol\":17724:17726  50 */\n      0x32\n        /* \"contract.sol\":17707:17721  referralsCount */\n      dup2\n        /* \"contract.sol\":17707:17726  referralsCount < 50 */\n      lt\n        /* \"contract.sol\":17703:17742  if (referralsCount < 50) return (45000) */\n      iszero\n      tag_283\n      jumpi\n      pop\n        /* \"contract.sol\":17736:17741  45000 */\n      0xafc8\n      swap3\n        /* \"contract.sol\":17453:17926  function dailyReward(address adr) public view returns (uint256) {... */\n      swap2\n      pop\n      pop\n      jump\t// out\n        /* \"contract.sol\":17703:17742  if (referralsCount < 50) return (45000) */\n    tag_283:\n        /* \"contract.sol\":17774:17777  100 */\n      0x64\n        /* \"contract.sol\":17757:17771  referralsCount */\n      dup2\n        /* \"contract.sol\":17757:17777  referralsCount < 100 */\n      lt\n        /* \"contract.sol\":17753:17793  if (referralsCount < 100) return (50000) */\n      iszero\n      tag_284\n      jumpi\n      pop\n        /* \"contract.sol\":17787:17792  50000 */\n      0xc350\n      swap3\n        /* \"contract.sol\":17453:17926  function dailyReward(address adr) public view returns (uint256) {... */\n      swap2\n      pop\n      pop\n      jump\t// out\n        /* \"contract.sol\":17753:17793  if (referralsCount < 100) return (50000) */\n    tag_284:\n        /* \"contract.sol\":17825:17828  150 */\n      0x96\n        /* \"contract.sol\":17808:17822  referralsCount */\n      dup2\n        /* \"contract.sol\":17808:17828  referralsCount < 150 */\n      lt\n        /* \"contract.sol\":17804:17844  if (referralsCount < 150) return (55000) */\n      iszero\n      tag_285\n      jumpi\n      pop\n        /* \"contract.sol\":17838:17843  55000 */\n      0xd6d8\n      swap3\n        /* \"contract.sol\":17453:17926  function dailyReward(address adr) public view returns (uint256) {... */\n      swap2\n      pop\n      pop\n      jump\t// out\n        /* \"contract.sol\":17804:17844  if (referralsCount < 150) return (55000) */\n    tag_285:\n        /* \"contract.sol\":17876:17879  250 */\n      0xfa\n        /* \"contract.sol\":17859:17873  referralsCount */\n      dup2\n        /* \"contract.sol\":17859:17879  referralsCount < 250 */\n      lt\n        /* \"contract.sol\":17855:17895  if (referralsCount < 250) return (60000) */\n      iszero\n      tag_286\n      jumpi\n      pop\n        /* \"contract.sol\":17889:17894  60000 */\n      0xea60\n      swap3\n        /* \"contract.sol\":17453:17926  function dailyReward(address adr) public view returns (uint256) {... */\n      swap2\n      pop\n      pop\n      jump\t// out\n        /* \"contract.sol\":17855:17895  if (referralsCount < 250) return (60000) */\n    tag_286:\n      pop\n        /* \"contract.sol\":17913:17918  65000 */\n      0xfde8\n      swap3\n        /* \"contract.sol\":17453:17926  function dailyReward(address adr) public view returns (uint256) {... */\n      swap2\n      pop\n      pop\n      jump\t// out\n        /* \"contract.sol\":16410:16615  function bnbRewards(address adr) public view returns (uint256) {... */\n    tag_111:\n        /* \"contract.sol\":16464:16471  uint256 */\n      0x00\n        /* \"contract.sol\":16484:16505  uint256 beansRewarded */\n      dup1\n        /* \"contract.sol\":16508:16526  rewardedBeans(adr) */\n      tag_288\n        /* \"contract.sol\":16522:16525  adr */\n      dup4\n        /* \"contract.sol\":16508:16521  rewardedBeans */\n      tag_145\n        /* \"contract.sol\":16508:16526  rewardedBeans(adr) */\n      jump\t// in\n    tag_288:\n        /* \"contract.sol\":16484:16526  uint256 beansRewarded = rewardedBeans(adr) */\n      swap1\n      pop\n        /* \"contract.sol\":16537:16553  uint256 bnbinWei */\n      0x00\n        /* \"contract.sol\":16556:16581  beansToBnb(beansRewarded) */\n      tag_289\n        /* \"contract.sol\":16567:16580  beansRewarded */\n      dup3\n        /* \"contract.sol\":16556:16566  beansToBnb */\n      tag_147\n        /* \"contract.sol\":16556:16581  beansToBnb(beansRewarded) */\n      jump\t// in\n    tag_289:\n        /* \"contract.sol\":16537:16581  uint256 bnbinWei = beansToBnb(beansRewarded) */\n      swap5\n        /* \"contract.sol\":16410:16615  function bnbRewards(address adr) public view returns (uint256) {... */\n      swap4\n      pop\n      pop\n      pop\n      pop\n      jump\t// out\n        /* \"contract.sol\":13644:13769  function maxPayout(address adr) public view returns (uint256) {... */\n    tag_115:\n      sub(shl(0xa0, 0x01), 0x01)\n        /* \"contract.sol\":13733:13744  bakers[adr] */\n      dup2\n      and\n        /* \"contract.sol\":13697:13704  uint256 */\n      0x00\n        /* \"contract.sol\":13733:13744  bakers[adr] */\n      swap1\n      dup2\n      mstore\n        /* \"contract.sol\":13733:13739  bakers */\n      0x14\n        /* \"contract.sol\":13733:13744  bakers[adr] */\n      0x20\n      mstore\n      0x40\n      dup2\n      keccak256\n        /* \"contract.sol\":13733:13757  bakers[adr].totalDeposit */\n      0x08\n      add\n      sload\n        /* \"contract.sol\":13724:13761  Math.mul(bakers[adr].totalDeposit, 3) */\n      tag_291\n      swap1\n        /* \"contract.sol\":13759:13760  3 */\n      0x03\n        /* \"contract.sol\":13724:13732  Math.mul */\n      tag_292\n        /* \"contract.sol\":13724:13761  Math.mul(bakers[adr].totalDeposit, 3) */\n      jump\t// in\n    tag_291:\n        /* \"contract.sol\":13717:13761  return Math.mul(bakers[adr].totalDeposit, 3) */\n      swap3\n        /* \"contract.sol\":13644:13769  function maxPayout(address adr) public view returns (uint256) {... */\n      swap2\n      pop\n      pop\n      jump\t// out\n        /* \"contract.sol\":13503:13636  function maxPayoutReached(address adr) public view returns (bool) {... */\n    tag_122:\n        /* \"contract.sol\":13563:13567  bool */\n      0x00\n        /* \"contract.sol\":13614:13628  maxPayout(adr) */\n      tag_294\n        /* \"contract.sol\":13624:13627  adr */\n      dup3\n        /* \"contract.sol\":13614:13623  maxPayout */\n      tag_115\n        /* \"contract.sol\":13614:13628  maxPayout(adr) */\n      jump\t// in\n    tag_294:\n      sub(shl(0xa0, 0x01), 0x01)\n        /* \"contract.sol\":13587:13598  bakers[adr] */\n      swap1\n      swap3\n      and\n      0x00\n      swap1\n      dup2\n      mstore\n        /* \"contract.sol\":13587:13593  bakers */\n      0x14\n        /* \"contract.sol\":13587:13598  bakers[adr] */\n      0x20\n      mstore\n      0x40\n      swap1\n      keccak256\n        /* \"contract.sol\":13587:13610  bakers[adr].totalPayout */\n      0x09\n      add\n      sload\n        /* \"contract.sol\":13587:13628  bakers[adr].totalPayout >= maxPayout(adr) */\n      swap2\n      swap1\n      swap2\n      lt\n      iszero\n      swap2\n        /* \"contract.sol\":13503:13636  function maxPayoutReached(address adr) public view returns (bool) {... */\n      swap1\n      pop\n      jump\t// out\n        /* \"contract.sol\":1656:1763  function transferOwnership(address newOwner) public onlyOwner {... */\n    tag_130:\n        /* \"contract.sol\":1427:1433  _owner */\n      and(sub(shl(0xa0, 0x01), 0x01), sload(0x00))\n        /* \"contract.sol\":682:692  msg.sender */\n      caller\n        /* \"contract.sol\":1427:1449  _owner == _msgSender() */\n      eq\n        /* \"contract.sol\":1419:1486  require(_owner == _msgSender(), \"Ownable: caller is not the owner\") */\n      tag_298\n      jumpi\n      mload(0x40)\n      shl(0xe5, 0x461bcd)\n      dup2\n      mstore\n        /* \"#utility.yul\":5978:5980   */\n      0x20\n        /* \"contract.sol\":1419:1486  require(_owner == _msgSender(), \"Ownable: caller is not the owner\") */\n      0x04\n      dup3\n      add\n        /* \"#utility.yul\":5960:5981   */\n      dup2\n      swap1\n      mstore\n        /* \"#utility.yul\":5997:6015   */\n      0x24\n      dup3\n      add\n        /* \"#utility.yul\":5990:6020   */\n      mstore\n        /* \"#utility.yul\":6056:6090   */\n      0x4f776e61626c653a2063616c6c6572206973206e6f7420746865206f776e6572\n        /* \"#utility.yul\":6036:6054   */\n      0x44\n      dup3\n      add\n        /* \"#utility.yul\":6029:6091   */\n      mstore\n        /* \"#utility.yul\":6108:6126   */\n      0x64\n      add\n        /* \"contract.sol\":1419:1486  require(_owner == _msgSender(), \"Ownable: caller is not the owner\") */\n      tag_138\n        /* \"#utility.yul\":5776:6132   */\n      jump\n        /* \"contract.sol\":1419:1486  require(_owner == _msgSender(), \"Ownable: caller is not the owner\") */\n    tag_298:\n        /* \"contract.sol\":1727:1755  _transferOwnership(newOwner) */\n      tag_301\n        /* \"contract.sol\":1746:1754  newOwner */\n      dup2\n        /* \"contract.sol\":1727:1745  _transferOwnership */\n      tag_302\n        /* \"contract.sol\":1727:1755  _transferOwnership(newOwner) */\n      jump\t// in\n    tag_301:\n        /* \"contract.sol\":1656:1763  function transferOwnership(address newOwner) public onlyOwner {... */\n      pop\n      jump\t// out\n        /* \"contract.sol\":14849:15257  function secondsSinceLastEat(address adr) public view returns (uint256) {... */\n    tag_133:\n      sub(shl(0xa0, 0x01), 0x01)\n        /* \"contract.sol\":14964:14975  bakers[adr] */\n      dup2\n      and\n        /* \"contract.sol\":14912:14919  uint256 */\n      0x00\n        /* \"contract.sol\":14964:14975  bakers[adr] */\n      swap1\n      dup2\n      mstore\n        /* \"contract.sol\":14964:14970  bakers */\n      0x14\n        /* \"contract.sol\":14964:14975  bakers[adr] */\n      0x20\n      mstore\n      0x40\n      dup2\n      keccak256\n        /* \"contract.sol\":14964:14981  bakers[adr].ateAt */\n      0x03\n      add\n      sload\n        /* \"contract.sol\":14996:15018  bakers[adr].ateAt == 0 */\n      dup1\n      dup3\n      sub\n        /* \"contract.sol\":14992:15095  if (bakers[adr].ateAt == 0) {... */\n      tag_304\n      jumpi\n      pop\n      sub(shl(0xa0, 0x01), 0x01)\n        /* \"contract.sol\":15059:15070  bakers[adr] */\n      dup3\n      and\n      0x00\n      swap1\n      dup2\n      mstore\n        /* \"contract.sol\":15059:15065  bakers */\n      0x14\n        /* \"contract.sol\":15059:15070  bakers[adr] */\n      0x20\n      mstore\n      0x40\n      swap1\n      keccak256\n        /* \"contract.sol\":15059:15083  bakers[adr].firstDeposit */\n      0x07\n      add\n      sload\n        /* \"contract.sol\":14992:15095  if (bakers[adr].ateAt == 0) {... */\n    tag_304:\n        /* \"contract.sol\":15107:15128  uint256 secondsPassed */\n      0x00\n        /* \"contract.sol\":15131:15216  Math.sub(... */\n      tag_289\n        /* \"contract.sol\":15154:15169  block.timestamp */\n      timestamp\n        /* \"contract.sol\":15184:15205  lastAteOrFirstDeposit */\n      dup4\n        /* \"contract.sol\":15131:15139  Math.sub */\n      tag_151\n        /* \"contract.sol\":15131:15216  Math.sub(... */\n      jump\t// in\n        /* \"contract.sol\":18353:18858  function rewardedBeans(address adr) private view returns (uint256) {... */\n    tag_145:\n        /* \"contract.sol\":18411:18418  uint256 */\n      0x00\n        /* \"contract.sol\":18431:18452  uint256 secondsPassed */\n      dup1\n        /* \"contract.sol\":18455:18482  secondsSinceLastAction(adr) */\n      tag_307\n        /* \"contract.sol\":18478:18481  adr */\n      dup4\n        /* \"contract.sol\":18455:18477  secondsSinceLastAction */\n      tag_308\n        /* \"contract.sol\":18455:18482  secondsSinceLastAction(adr) */\n      jump\t// in\n    tag_307:\n        /* \"contract.sol\":18431:18482  uint256 secondsPassed = secondsSinceLastAction(adr) */\n      swap1\n      pop\n        /* \"contract.sol\":18493:18518  uint256 dailyRewardFactor */\n      0x00\n        /* \"contract.sol\":18521:18537  dailyReward(adr) */\n      tag_309\n        /* \"contract.sol\":18533:18536  adr */\n      dup5\n        /* \"contract.sol\":18521:18532  dailyReward */\n      tag_104\n        /* \"contract.sol\":18521:18537  dailyReward(adr) */\n      jump\t// in\n    tag_309:\n        /* \"contract.sol\":18493:18537  uint256 dailyRewardFactor = dailyReward(adr) */\n      swap1\n      pop\n        /* \"contract.sol\":18548:18569  uint256 beansRewarded */\n      0x00\n        /* \"contract.sol\":18572:18676  calcBeansReward(... */\n      tag_310\n        /* \"contract.sol\":18602:18615  secondsPassed */\n      dup4\n        /* \"contract.sol\":18630:18647  dailyRewardFactor */\n      dup4\n        /* \"contract.sol\":18662:18665  adr */\n      dup8\n        /* \"contract.sol\":18572:18587  calcBeansReward */\n      tag_311\n        /* \"contract.sol\":18572:18676  calcBeansReward(... */\n      jump\t// in\n    tag_310:\n        /* \"contract.sol\":18548:18676  uint256 beansRewarded = calcBeansReward(... */\n      swap1\n      pop\n        /* \"contract.sol\":18710:18746  bnbToBeans(MAX_DAILY_REWARDS_IN_BNB) */\n      tag_312\n        /* \"contract.sol\":18721:18745  MAX_DAILY_REWARDS_IN_BNB */\n      sload(0x10)\n        /* \"contract.sol\":18710:18720  bnbToBeans */\n      tag_209\n        /* \"contract.sol\":18710:18746  bnbToBeans(MAX_DAILY_REWARDS_IN_BNB) */\n      jump\t// in\n    tag_312:\n        /* \"contract.sol\":18693:18706  beansRewarded */\n      dup2\n        /* \"contract.sol\":18693:18746  beansRewarded >= bnbToBeans(MAX_DAILY_REWARDS_IN_BNB) */\n      lt\n        /* \"contract.sol\":18689:18818  if (beansRewarded >= bnbToBeans(MAX_DAILY_REWARDS_IN_BNB)) {... */\n      tag_289\n      jumpi\n        /* \"contract.sol\":18770:18806  bnbToBeans(MAX_DAILY_REWARDS_IN_BNB) */\n      tag_314\n        /* \"contract.sol\":18781:18805  MAX_DAILY_REWARDS_IN_BNB */\n      sload(0x10)\n        /* \"contract.sol\":18770:18780  bnbToBeans */\n      tag_209\n        /* \"contract.sol\":18770:18806  bnbToBeans(MAX_DAILY_REWARDS_IN_BNB) */\n      jump\t// in\n    tag_314:\n        /* \"contract.sol\":18763:18806  return bnbToBeans(MAX_DAILY_REWARDS_IN_BNB) */\n      swap6\n        /* \"contract.sol\":18353:18858  function rewardedBeans(address adr) private view returns (uint256) {... */\n      swap5\n      pop\n      pop\n      pop\n      pop\n      pop\n      jump\t// out\n        /* \"contract.sol\":16783:16954  function beansToBnb(uint256 beansToCalc) private view returns (uint256) {... */\n    tag_147:\n        /* \"contract.sol\":16907:16919  BNB_PER_BEAN */\n      sload(0x0c)\n        /* \"contract.sol\":16846:16853  uint256 */\n      0x00\n      swap1\n      dup2\n      swap1\n        /* \"contract.sol\":16885:16920  Math.mul(beansToCalc, BNB_PER_BEAN) */\n      tag_239\n      swap1\n        /* \"contract.sol\":16894:16905  beansToCalc */\n      dup5\n      swap1\n        /* \"contract.sol\":16907:16919  BNB_PER_BEAN */\n      0xffffffffffffffffffffffffffffffffff\n      and\n        /* \"contract.sol\":16885:16893  Math.mul */\n      tag_292\n        /* \"contract.sol\":16885:16920  Math.mul(beansToCalc, BNB_PER_BEAN) */\n      jump\t// in\n        /* \"contract.sol\":17143:17317  function percentFromAmount(... */\n    tag_149:\n        /* \"contract.sol\":17246:17253  uint256 */\n      0x00\n        /* \"contract.sol\":17273:17309  Math.div(Math.mul(amount, fee), 100) */\n      tag_239\n        /* \"contract.sol\":17282:17303  Math.mul(amount, fee) */\n      tag_319\n        /* \"contract.sol\":17291:17297  amount */\n      dup5\n        /* \"contract.sol\":17299:17302  fee */\n      dup5\n        /* \"contract.sol\":17282:17290  Math.mul */\n      tag_292\n        /* \"contract.sol\":17282:17303  Math.mul(amount, fee) */\n      jump\t// in\n    tag_319:\n        /* \"contract.sol\":17305:17308  100 */\n      0x64\n        /* \"contract.sol\":17273:17281  Math.div */\n      tag_320\n        /* \"contract.sol\":17273:17309  Math.div(Math.mul(amount, fee), 100) */\n      jump\t// in\n        /* \"contract.sol\":4869:4967  function sub(uint256 a, uint256 b) internal pure returns (uint256) {... */\n    tag_151:\n        /* \"contract.sol\":4927:4934  uint256 */\n      0x00\n        /* \"contract.sol\":4954:4959  a - b */\n      tag_239\n        /* \"contract.sol\":4958:4959  b */\n      dup3\n        /* \"contract.sol\":4954:4955  a */\n      dup5\n        /* \"contract.sol\":4954:4959  a - b */\n      tag_323\n      jump\t// in\n        /* \"contract.sol\":14071:14282  function calcGiveAwayAmount(... */\n    tag_153:\n        /* \"contract.sol\":14188:14195  uint256 */\n      0x00\n        /* \"contract.sol\":14216:14273  percentFromAmount(bnbWithdrawalAmount, hasBeanTaxed(adr)) */\n      tag_239\n        /* \"contract.sol\":14234:14253  bnbWithdrawalAmount */\n      dup3\n        /* \"contract.sol\":14255:14272  hasBeanTaxed(adr) */\n      tag_326\n        /* \"contract.sol\":14268:14271  adr */\n      dup6\n        /* \"contract.sol\":14255:14267  hasBeanTaxed */\n      tag_75\n        /* \"contract.sol\":14255:14272  hasBeanTaxed(adr) */\n      jump\t// in\n    tag_326:\n        /* \"contract.sol\":14216:14233  percentFromAmount */\n      tag_149\n        /* \"contract.sol\":14216:14273  percentFromAmount(bnbWithdrawalAmount, hasBeanTaxed(adr)) */\n      jump\t// in\n        /* \"contract.sol\":13777:14063  function addWithdrawalTaxes(... */\n    tag_155:\n        /* \"contract.sol\":13894:13901  uint256 */\n      0x00\n        /* \"contract.sol\":13934:14055  percentFromAmount(... */\n      tag_239\n        /* \"contract.sol\":13970:13989  bnbWithdrawalAmount */\n      dup3\n        /* \"contract.sol\":14008:14040  Math.sub(100, hasBeanTaxed(adr)) */\n      tag_326\n        /* \"contract.sol\":14017:14020  100 */\n      0x64\n        /* \"contract.sol\":14022:14039  hasBeanTaxed(adr) */\n      tag_330\n        /* \"contract.sol\":14035:14038  adr */\n      dup8\n        /* \"contract.sol\":14022:14034  hasBeanTaxed */\n      tag_75\n        /* \"contract.sol\":14022:14039  hasBeanTaxed(adr) */\n      jump\t// in\n    tag_330:\n        /* \"contract.sol\":14008:14016  Math.sub */\n      tag_151\n        /* \"contract.sol\":14008:14040  Math.sub(100, hasBeanTaxed(adr)) */\n      jump\t// in\n        /* \"contract.sol\":4763:4861  function add(uint256 a, uint256 b) internal pure returns (uint256) {... */\n    tag_158:\n        /* \"contract.sol\":4821:4828  uint256 */\n      0x00\n        /* \"contract.sol\":4848:4853  a + b */\n      tag_239\n        /* \"contract.sol\":4852:4853  b */\n      dup3\n        /* \"contract.sol\":4848:4849  a */\n      dup5\n        /* \"contract.sol\":4848:4853  a + b */\n      tag_333\n      jump\t// in\n        /* \"contract.sol\":10618:11125  function sendFees(uint256 totalFee, uint256 giveAway) private {... */\n    tag_167:\n        /* \"contract.sol\":10733:10740  DEV_FEE */\n      sload(0x0c)\n        /* \"contract.sol\":10691:10702  uint256 dev */\n      0x00\n      swap1\n        /* \"contract.sol\":10705:10741  percentFromAmount(totalFee, DEV_FEE) */\n      tag_335\n      swap1\n        /* \"contract.sol\":10723:10731  totalFee */\n      dup5\n      swap1\n        /* \"contract.sol\":10733:10740  DEV_FEE */\n      0x01000000000000000000000000000000000000000000000000\n      swap1\n      div\n      0xffff\n      and\n        /* \"contract.sol\":10705:10722  percentFromAmount */\n      tag_149\n        /* \"contract.sol\":10705:10741  percentFromAmount(totalFee, DEV_FEE) */\n      jump\t// in\n    tag_335:\n        /* \"contract.sol\":10800:10813  MARKETING_FEE */\n      sload(0x0c)\n        /* \"contract.sol\":10691:10741  uint256 dev = percentFromAmount(totalFee, DEV_FEE) */\n      swap1\n      swap2\n      pop\n        /* \"contract.sol\":10752:10769  uint256 marketing */\n      0x00\n      swap1\n        /* \"contract.sol\":10772:10814  percentFromAmount(totalFee, MARKETING_FEE) */\n      tag_336\n      swap1\n        /* \"contract.sol\":10790:10798  totalFee */\n      dup6\n      swap1\n        /* \"contract.sol\":10800:10813  MARKETING_FEE */\n      0x010000000000000000000000000000000000000000000000000000\n      swap1\n      div\n      0xffff\n      and\n        /* \"contract.sol\":10772:10789  percentFromAmount */\n      tag_149\n        /* \"contract.sol\":10772:10814  percentFromAmount(totalFee, MARKETING_FEE) */\n      jump\t// in\n    tag_336:\n        /* \"contract.sol\":10867:10874  CEO_FEE */\n      sload(0x0c)\n        /* \"contract.sol\":10752:10814  uint256 marketing = percentFromAmount(totalFee, MARKETING_FEE) */\n      swap1\n      swap2\n      pop\n        /* \"contract.sol\":10825:10836  uint256 ceo */\n      0x00\n      swap1\n        /* \"contract.sol\":10839:10875  percentFromAmount(totalFee, CEO_FEE) */\n      tag_337\n      swap1\n        /* \"contract.sol\":10857:10865  totalFee */\n      dup7\n      swap1\n      shl(0xe0, 0x01)\n        /* \"contract.sol\":10867:10874  CEO_FEE */\n      swap1\n      div\n      0xff\n      and\n        /* \"contract.sol\":10839:10856  percentFromAmount */\n      tag_149\n        /* \"contract.sol\":10839:10875  percentFromAmount(totalFee, CEO_FEE) */\n      jump\t// in\n    tag_337:\n        /* \"contract.sol\":10895:10899  BUSD */\n      sload(0x02)\n        /* \"contract.sol\":10910:10914  _dev */\n      sload(0x07)\n        /* \"contract.sol\":10888:10920  IERC20(BUSD).transfer(_dev, dev) */\n      mload(0x40)\n      shl(0xe0, 0xa9059cbb)\n      dup2\n      mstore\n      sub(shl(0xa0, 0x01), 0x01)\n        /* \"contract.sol\":10910:10914  _dev */\n      swap2\n      dup3\n      and\n        /* \"contract.sol\":10888:10920  IERC20(BUSD).transfer(_dev, dev) */\n      0x04\n      dup3\n      add\n        /* \"#utility.yul\":5113:5187   */\n      mstore\n        /* \"#utility.yul\":5203:5221   */\n      0x24\n      dup2\n      add\n        /* \"#utility.yul\":5196:5230   */\n      dup8\n      swap1\n      mstore\n        /* \"contract.sol\":10825:10875  uint256 ceo = percentFromAmount(totalFee, CEO_FEE) */\n      swap3\n      swap4\n      pop\n        /* \"contract.sol\":10895:10899  BUSD */\n      and\n      swap1\n        /* \"contract.sol\":10888:10909  IERC20(BUSD).transfer */\n      0xa9059cbb\n      swap1\n        /* \"#utility.yul\":5086:5104   */\n      0x44\n      add\n        /* \"contract.sol\":10888:10920  IERC20(BUSD).transfer(_dev, dev) */\n      0x20\n      mload(0x40)\n      dup1\n      dup4\n      sub\n      dup2\n      0x00\n      dup8\n      gas\n      call\n      iszero\n      dup1\n      iszero\n      tag_340\n      jumpi\n      returndatasize\n      0x00\n      dup1\n      returndatacopy\n      revert(0x00, returndatasize)\n    tag_340:\n      pop\n      pop\n      pop\n      pop\n      mload(0x40)\n      returndatasize\n      not(0x1f)\n      0x1f\n      dup3\n      add\n      and\n      dup3\n      add\n      dup1\n      0x40\n      mstore\n      pop\n      dup2\n      add\n      swap1\n      tag_341\n      swap2\n      swap1\n      tag_173\n      jump\t// in\n    tag_341:\n      pop\n        /* \"contract.sol\":10938:10942  BUSD */\n      sload(0x02)\n        /* \"contract.sol\":10953:10963  _marketing */\n      sload(0x08)\n        /* \"contract.sol\":10931:10975  IERC20(BUSD).transfer(_marketing, marketing) */\n      mload(0x40)\n      shl(0xe0, 0xa9059cbb)\n      dup2\n      mstore\n      sub(shl(0xa0, 0x01), 0x01)\n        /* \"contract.sol\":10953:10963  _marketing */\n      swap2\n      dup3\n      and\n        /* \"contract.sol\":10931:10975  IERC20(BUSD).transfer(_marketing, marketing) */\n      0x04\n      dup3\n      add\n        /* \"#utility.yul\":5113:5187   */\n      mstore\n        /* \"#utility.yul\":5203:5221   */\n      0x24\n      dup2\n      add\n        /* \"#utility.yul\":5196:5230   */\n      dup6\n      swap1\n      mstore\n        /* \"contract.sol\":10938:10942  BUSD */\n      swap2\n      and\n      swap1\n        /* \"contract.sol\":10931:10952  IERC20(BUSD).transfer */\n      0xa9059cbb\n      swap1\n        /* \"#utility.yul\":5086:5104   */\n      0x44\n      add\n        /* \"contract.sol\":10931:10975  IERC20(BUSD).transfer(_marketing, marketing) */\n      0x20\n      mload(0x40)\n      dup1\n      dup4\n      sub\n      dup2\n      0x00\n      dup8\n      gas\n      call\n      iszero\n      dup1\n      iszero\n      tag_344\n      jumpi\n      returndatasize\n      0x00\n      dup1\n      returndatacopy\n      revert(0x00, returndatasize)\n    tag_344:\n      pop\n      pop\n      pop\n      pop\n      mload(0x40)\n      returndatasize\n      not(0x1f)\n      0x1f\n      dup3\n      add\n      and\n      dup3\n      add\n      dup1\n      0x40\n      mstore\n      pop\n      dup2\n      add\n      swap1\n      tag_345\n      swap2\n      swap1\n      tag_173\n      jump\t// in\n    tag_345:\n      pop\n        /* \"contract.sol\":10993:10997  BUSD */\n      sload(0x02)\n        /* \"contract.sol\":11008:11012  _ceo */\n      sload(0x09)\n        /* \"contract.sol\":10986:11018  IERC20(BUSD).transfer(_ceo, ceo) */\n      mload(0x40)\n      shl(0xe0, 0xa9059cbb)\n      dup2\n      mstore\n      sub(shl(0xa0, 0x01), 0x01)\n        /* \"contract.sol\":11008:11012  _ceo */\n      swap2\n      dup3\n      and\n        /* \"contract.sol\":10986:11018  IERC20(BUSD).transfer(_ceo, ceo) */\n      0x04\n      dup3\n      add\n        /* \"#utility.yul\":5113:5187   */\n      mstore\n        /* \"#utility.yul\":5203:5221   */\n      0x24\n      dup2\n      add\n        /* \"#utility.yul\":5196:5230   */\n      dup5\n      swap1\n      mstore\n        /* \"contract.sol\":10993:10997  BUSD */\n      swap2\n      and\n      swap1\n        /* \"contract.sol\":10986:11007  IERC20(BUSD).transfer */\n      0xa9059cbb\n      swap1\n        /* \"#utility.yul\":5086:5104   */\n      0x44\n      add\n        /* \"contract.sol\":10986:11018  IERC20(BUSD).transfer(_ceo, ceo) */\n      0x20\n      mload(0x40)\n      dup1\n      dup4\n      sub\n      dup2\n      0x00\n      dup8\n      gas\n      call\n      iszero\n      dup1\n      iszero\n      tag_348\n      jumpi\n      returndatasize\n      0x00\n      dup1\n      returndatacopy\n      revert(0x00, returndatasize)\n    tag_348:\n      pop\n      pop\n      pop\n      pop\n      mload(0x40)\n      returndatasize\n      not(0x1f)\n      0x1f\n      dup3\n      add\n      and\n      dup3\n      add\n      dup1\n      0x40\n      mstore\n      pop\n      dup2\n      add\n      swap1\n      tag_349\n      swap2\n      swap1\n      tag_173\n      jump\t// in\n    tag_349:\n      pop\n        /* \"contract.sol\":11035:11047  giveAway > 0 */\n      dup4\n      iszero\n        /* \"contract.sol\":11031:11118  if (giveAway > 0) {... */\n      tag_350\n      jumpi\n        /* \"contract.sol\":11071:11075  BUSD */\n      sload(0x02)\n        /* \"contract.sol\":11086:11095  _giveAway */\n      sload(0x0a)\n        /* \"contract.sol\":11064:11106  IERC20(BUSD).transfer(_giveAway, giveAway) */\n      mload(0x40)\n      shl(0xe0, 0xa9059cbb)\n      dup2\n      mstore\n      sub(shl(0xa0, 0x01), 0x01)\n        /* \"contract.sol\":11086:11095  _giveAway */\n      swap2\n      dup3\n      and\n        /* \"contract.sol\":11064:11106  IERC20(BUSD).transfer(_giveAway, giveAway) */\n      0x04\n      dup3\n      add\n        /* \"#utility.yul\":5113:5187   */\n      mstore\n        /* \"#utility.yul\":5203:5221   */\n      0x24\n      dup2\n      add\n        /* \"#utility.yul\":5196:5230   */\n      dup8\n      swap1\n      mstore\n        /* \"contract.sol\":11071:11075  BUSD */\n      swap2\n      and\n      swap1\n        /* \"contract.sol\":11064:11085  IERC20(BUSD).transfer */\n      0xa9059cbb\n      swap1\n        /* \"#utility.yul\":5086:5104   */\n      0x44\n      add\n        /* \"contract.sol\":11064:11106  IERC20(BUSD).transfer(_giveAway, giveAway) */\n      0x20\n      mload(0x40)\n      dup1\n      dup4\n      sub\n      dup2\n      0x00\n      dup8\n      gas\n      call\n      iszero\n      dup1\n      iszero\n      tag_353\n      jumpi\n      returndatasize\n      0x00\n      dup1\n      returndatacopy\n      revert(0x00, returndatasize)\n    tag_353:\n      pop\n      pop\n      pop\n      pop\n      mload(0x40)\n      returndatasize\n      not(0x1f)\n      0x1f\n      dup3\n      add\n      and\n      dup3\n      add\n      dup1\n      0x40\n      mstore\n      pop\n      dup2\n      add\n      swap1\n      tag_354\n      swap2\n      swap1\n      tag_173\n      jump\t// in\n    tag_354:\n      pop\n        /* \"contract.sol\":11031:11118  if (giveAway > 0) {... */\n    tag_350:\n        /* \"contract.sol\":10680:11125  {... */\n      pop\n      pop\n      pop\n        /* \"contract.sol\":10618:11125  function sendFees(uint256 totalFee, uint256 giveAway) private {... */\n      pop\n      pop\n      jump\t// out\n        /* \"contract.sol\":16962:17135  function bnbToBeans(uint256 bnbInWei) private view returns (uint256) {... */\n    tag_209:\n        /* \"contract.sol\":17084:17096  BNB_PER_BEAN */\n      sload(0x0c)\n        /* \"contract.sol\":17022:17029  uint256 */\n      0x00\n      swap1\n      dup2\n      swap1\n        /* \"contract.sol\":17065:17097  Math.div(bnbInWei, BNB_PER_BEAN) */\n      tag_239\n      swap1\n        /* \"contract.sol\":17074:17082  bnbInWei */\n      dup5\n      swap1\n        /* \"contract.sol\":17084:17096  BNB_PER_BEAN */\n      0xffffffffffffffffffffffffffffffffff\n      and\n        /* \"contract.sol\":17065:17073  Math.div */\n      tag_320\n        /* \"contract.sol\":17065:17097  Math.div(bnbInWei, BNB_PER_BEAN) */\n      jump\t// in\n        /* \"contract.sol\":15770:16127  function addBeans(... */\n    tag_211:\n      sub(shl(0xa0, 0x01), 0x01)\n        /* \"contract.sol\":15918:15929  bakers[adr] */\n      dup3\n      and\n        /* \"contract.sol\":15868:15875  uint256 */\n      0x00\n        /* \"contract.sol\":15918:15929  bakers[adr] */\n      swap1\n      dup2\n      mstore\n        /* \"contract.sol\":15918:15924  bakers */\n      0x14\n        /* \"contract.sol\":15918:15929  bakers[adr] */\n      0x20\n      mstore\n      0x40\n      dup2\n      keccak256\n        /* \"contract.sol\":15918:15935  bakers[adr].beans */\n      0x01\n      add\n      sload\n        /* \"contract.sol\":15868:15875  uint256 */\n      dup2\n      swap1\n        /* \"contract.sol\":15909:15948  Math.add(bakers[adr].beans, beansToAdd) */\n      tag_359\n      swap1\n        /* \"contract.sol\":15937:15947  beansToAdd */\n      dup5\n        /* \"contract.sol\":15909:15917  Math.add */\n      tag_158\n        /* \"contract.sol\":15909:15948  Math.add(bakers[adr].beans, beansToAdd) */\n      jump\t// in\n    tag_359:\n        /* \"contract.sol\":15888:15948  uint256 totalBeans = Math.add(bakers[adr].beans, beansToAdd) */\n      swap1\n      pop\n        /* \"contract.sol\":15959:15975  uint256 maxBeans */\n      0x00\n        /* \"contract.sol\":15978:16011  bnbToBeans(MAX_WALLET_TVL_IN_BNB) */\n      tag_360\n        /* \"contract.sol\":15989:16010  MAX_WALLET_TVL_IN_BNB */\n      sload(0x0f)\n        /* \"contract.sol\":15978:15988  bnbToBeans */\n      tag_209\n        /* \"contract.sol\":15978:16011  bnbToBeans(MAX_WALLET_TVL_IN_BNB) */\n      jump\t// in\n    tag_360:\n        /* \"contract.sol\":15959:16011  uint256 maxBeans = bnbToBeans(MAX_WALLET_TVL_IN_BNB) */\n      swap1\n      pop\n        /* \"contract.sol\":16040:16048  maxBeans */\n      dup1\n        /* \"contract.sol\":16026:16036  totalBeans */\n      dup3\n        /* \"contract.sol\":16026:16048  totalBeans >= maxBeans */\n      lt\n        /* \"contract.sol\":16022:16092  if (totalBeans >= maxBeans) {... */\n      tag_361\n      jumpi\n        /* \"contract.sol\":16072:16080  maxBeans */\n      swap2\n      pop\n        /* \"contract.sol\":16065:16080  return maxBeans */\n      tag_291\n      swap1\n      pop\n      jump\n        /* \"contract.sol\":16022:16092  if (totalBeans >= maxBeans) {... */\n    tag_361:\n      pop\n        /* \"contract.sol\":16109:16119  totalBeans */\n      swap4\n        /* \"contract.sol\":15770:16127  function addBeans(... */\n      swap3\n      pop\n      pop\n      pop\n      jump\t// out\n        /* \"contract.sol\":10216:10610  function refExists(... */\n    tag_230:\n        /* \"contract.sol\":10311:10315  bool */\n      0x00\n      dup1\n        /* \"contract.sol\":10328:10578  for (... */\n    tag_363:\n      sub(shl(0xa0, 0x01), 0x01)\n        /* \"contract.sol\":10379:10393  bakers[upline] */\n      dup4\n      and\n      0x00\n      swap1\n      dup2\n      mstore\n        /* \"contract.sol\":10379:10385  bakers */\n      0x14\n        /* \"contract.sol\":10379:10393  bakers[upline] */\n      0x20\n      mstore\n      0x40\n      swap1\n      keccak256\n        /* \"contract.sol\":10379:10416  bakers[upline].bonusEligibleReferrals */\n      0x06\n      add\n        /* \"contract.sol\":10379:10423  bakers[upline].bonusEligibleReferrals.length */\n      sload\n        /* \"contract.sol\":10375:10423  i < bakers[upline].bonusEligibleReferrals.length */\n      dup2\n      lt\n        /* \"contract.sol\":10328:10578  for (... */\n      iszero\n      tag_260\n      jumpi\n      sub(shl(0xa0, 0x01), 0x01)\n        /* \"contract.sol\":10472:10486  bakers[upline] */\n      dup4\n      dup2\n      and\n      0x00\n      swap1\n      dup2\n      mstore\n        /* \"contract.sol\":10472:10478  bakers */\n      0x14\n        /* \"contract.sol\":10472:10486  bakers[upline] */\n      0x20\n      mstore\n      0x40\n      swap1\n      keccak256\n        /* \"contract.sol\":10472:10509  bakers[upline].bonusEligibleReferrals */\n      0x06\n      add\n        /* \"contract.sol\":10472:10512  bakers[upline].bonusEligibleReferrals[i] */\n      dup1\n      sload\n        /* \"contract.sol\":10472:10519  bakers[upline].bonusEligibleReferrals[i] == ref */\n      swap2\n      dup7\n      and\n      swap2\n        /* \"contract.sol\":10510:10511  i */\n      dup4\n      swap1\n        /* \"contract.sol\":10472:10512  bakers[upline].bonusEligibleReferrals[i] */\n      dup2\n      lt\n      tag_367\n      jumpi\n      tag_367\n      tag_368\n      jump\t// in\n    tag_367:\n      0x00\n      swap2\n      dup3\n      mstore\n      0x20\n      swap1\n      swap2\n      keccak256\n      add\n      sload\n      sub(shl(0xa0, 0x01), 0x01)\n      and\n        /* \"contract.sol\":10472:10519  bakers[upline].bonusEligibleReferrals[i] == ref */\n      sub\n        /* \"contract.sol\":10468:10567  if (bakers[upline].bonusEligibleReferrals[i] == ref) {... */\n      tag_370\n      jumpi\n        /* \"contract.sol\":10547:10551  true */\n      0x01\n        /* \"contract.sol\":10540:10551  return true */\n      swap2\n      pop\n      pop\n      jump(tag_291)\n        /* \"contract.sol\":10468:10567  if (bakers[upline].bonusEligibleReferrals[i] == ref) {... */\n    tag_370:\n        /* \"contract.sol\":10438:10441  i++ */\n      dup1\n      tag_371\n      dup2\n      tag_225\n      jump\t// in\n    tag_371:\n      swap2\n      pop\n      pop\n        /* \"contract.sol\":10328:10578  for (... */\n      jump(tag_363)\n        /* \"contract.sol\":11133:11945  function handleBake(bool onlyRebaking) private {... */\n    tag_235:\n        /* \"contract.sol\":11220:11230  msg.sender */\n      caller\n        /* \"contract.sol\":11191:11210  Baker storage baker */\n      0x00\n        /* \"contract.sol\":11213:11231  bakers[msg.sender] */\n      swap1\n      dup2\n      mstore\n        /* \"contract.sol\":11213:11219  bakers */\n      0x14\n        /* \"contract.sol\":11213:11231  bakers[msg.sender] */\n      0x20\n      mstore\n      0x40\n      swap1\n      keccak256\n        /* \"contract.sol\":11264:11273  baker.adr */\n      dup1\n      sload\n        /* \"contract.sol\":11250:11274  maxTvlReached(baker.adr) */\n      tag_373\n      swap1\n      sub(shl(0xa0, 0x01), 0x01)\n        /* \"contract.sol\":11264:11273  baker.adr */\n      and\n        /* \"contract.sol\":11250:11263  maxTvlReached */\n      tag_94\n        /* \"contract.sol\":11250:11274  maxTvlReached(baker.adr) */\n      jump\t// in\n    tag_373:\n        /* \"contract.sol\":11250:11283  maxTvlReached(baker.adr) == false */\n      iszero\n        /* \"contract.sol\":11242:11312  require(maxTvlReached(baker.adr) == false, \"Total wallet TVL reached\") */\n      tag_374\n      jumpi\n      mload(0x40)\n      shl(0xe5, 0x461bcd)\n      dup2\n      mstore\n        /* \"#utility.yul\":9345:9347   */\n      0x20\n        /* \"contract.sol\":11242:11312  require(maxTvlReached(baker.adr) == false, \"Total wallet TVL reached\") */\n      0x04\n      dup3\n      add\n        /* \"#utility.yul\":9327:9348   */\n      mstore\n        /* \"#utility.yul\":9384:9386   */\n      0x18\n        /* \"#utility.yul\":9364:9382   */\n      0x24\n      dup3\n      add\n        /* \"#utility.yul\":9357:9387   */\n      mstore\n        /* \"#utility.yul\":9423:9449   */\n      0x546f74616c2077616c6c65742054564c20726561636865640000000000000000\n        /* \"#utility.yul\":9403:9421   */\n      0x44\n      dup3\n      add\n        /* \"#utility.yul\":9396:9450   */\n      mstore\n        /* \"#utility.yul\":9467:9485   */\n      0x64\n      add\n        /* \"contract.sol\":11242:11312  require(maxTvlReached(baker.adr) == false, \"Total wallet TVL reached\") */\n      tag_138\n        /* \"#utility.yul\":9143:9491   */\n      jump\n        /* \"contract.sol\":11242:11312  require(maxTvlReached(baker.adr) == false, \"Total wallet TVL reached\") */\n    tag_374:\n        /* \"contract.sol\":11343:11352  baker.adr */\n      dup1\n      sload\n      sub(shl(0xa0, 0x01), 0x01)\n      and\n        /* \"contract.sol\":16341:16345  bool */\n      0x00\n        /* \"contract.sol\":16365:16376  bakers[adr] */\n      swap1\n      dup2\n      mstore\n        /* \"contract.sol\":16365:16371  bakers */\n      0x14\n        /* \"contract.sol\":16365:16376  bakers[adr] */\n      0x20\n      mstore\n      0x40\n      swap1\n      keccak256\n        /* \"contract.sol\":16365:16389  bakers[adr].firstDeposit */\n      0x07\n      add\n      sload\n        /* \"contract.sol\":11323:11382  require(hasInvested(baker.adr), \"Must be invested to bake\") */\n      tag_378\n      jumpi\n      mload(0x40)\n      shl(0xe5, 0x461bcd)\n      dup2\n      mstore\n        /* \"#utility.yul\":9698:9700   */\n      0x20\n        /* \"contract.sol\":11323:11382  require(hasInvested(baker.adr), \"Must be invested to bake\") */\n      0x04\n      dup3\n      add\n        /* \"#utility.yul\":9680:9701   */\n      mstore\n        /* \"#utility.yul\":9737:9739   */\n      0x18\n        /* \"#utility.yul\":9717:9735   */\n      0x24\n      dup3\n      add\n        /* \"#utility.yul\":9710:9740   */\n      mstore\n        /* \"#utility.yul\":9776:9802   */\n      0x4d75737420626520696e76657374656420746f2062616b650000000000000000\n        /* \"#utility.yul\":9756:9774   */\n      0x44\n      dup3\n      add\n        /* \"#utility.yul\":9749:9803   */\n      mstore\n        /* \"#utility.yul\":9820:9838   */\n      0x64\n      add\n        /* \"contract.sol\":11323:11382  require(hasInvested(baker.adr), \"Must be invested to bake\") */\n      tag_138\n        /* \"#utility.yul\":9496:9844   */\n      jump\n        /* \"contract.sol\":11323:11382  require(hasInvested(baker.adr), \"Must be invested to bake\") */\n    tag_378:\n        /* \"contract.sol\":11397:11417  onlyRebaking == true */\n      dup2\n      iszero\n      iszero\n        /* \"contract.sol\":11413:11417  true */\n      0x01\n        /* \"contract.sol\":11397:11417  onlyRebaking == true */\n      sub\n        /* \"contract.sol\":11393:11607  if (onlyRebaking == true) {... */\n      tag_384\n      jumpi\n        /* \"contract.sol\":11500:11508  MIN_BAKE */\n      sload(0x0e)\n        /* \"contract.sol\":11485:11494  baker.adr */\n      dup2\n      sload\n        /* \"contract.sol\":11460:11496  beansToBnb(rewardedBeans(baker.adr)) */\n      tag_382\n      swap1\n        /* \"contract.sol\":11471:11495  rewardedBeans(baker.adr) */\n      tag_383\n      swap1\n      sub(shl(0xa0, 0x01), 0x01)\n        /* \"contract.sol\":11485:11494  baker.adr */\n      and\n        /* \"contract.sol\":11471:11484  rewardedBeans */\n      tag_145\n        /* \"contract.sol\":11471:11495  rewardedBeans(baker.adr) */\n      jump\t// in\n    tag_383:\n        /* \"contract.sol\":11460:11470  beansToBnb */\n      tag_147\n        /* \"contract.sol\":11460:11496  beansToBnb(rewardedBeans(baker.adr)) */\n      jump\t// in\n    tag_382:\n        /* \"contract.sol\":11460:11508  beansToBnb(rewardedBeans(baker.adr)) >= MIN_BAKE */\n      lt\n      iszero\n        /* \"contract.sol\":11434:11595  require(... */\n      tag_384\n      jumpi\n      mload(0x40)\n      shl(0xe5, 0x461bcd)\n      dup2\n      mstore\n        /* \"#utility.yul\":10051:10053   */\n      0x20\n        /* \"contract.sol\":11434:11595  require(... */\n      0x04\n      dup3\n      add\n        /* \"#utility.yul\":10033:10054   */\n      mstore\n        /* \"#utility.yul\":10090:10092   */\n      0x33\n        /* \"#utility.yul\":10070:10088   */\n      0x24\n      dup3\n      add\n        /* \"#utility.yul\":10063:10093   */\n      mstore\n        /* \"#utility.yul\":10129:10163   */\n      0x52657761726473206d75737420626520657175616c206f722068696768657220\n        /* \"#utility.yul\":10109:10127   */\n      0x44\n      dup3\n      add\n        /* \"#utility.yul\":10102:10164   */\n      mstore\n        /* \"#utility.yul\":10200:10221   */\n      0x7468616e2031204255534420746f2062616b6500000000000000000000000000\n        /* \"#utility.yul\":10180:10198   */\n      0x64\n      dup3\n      add\n        /* \"#utility.yul\":10173:10222   */\n      mstore\n        /* \"#utility.yul\":10239:10258   */\n      0x84\n      add\n        /* \"contract.sol\":11434:11595  require(... */\n      tag_138\n        /* \"#utility.yul\":9849:10264   */\n      jump\n        /* \"contract.sol\":11434:11595  require(... */\n    tag_384:\n        /* \"contract.sol\":11639:11650  baker.beans */\n      0x01\n      dup2\n      add\n      sload\n        /* \"contract.sol\":11702:11711  baker.adr */\n      dup2\n      sload\n        /* \"contract.sol\":11619:11636  uint256 beansFrom */\n      0x00\n      swap1\n        /* \"contract.sol\":11688:11712  rewardedBeans(baker.adr) */\n      tag_387\n      swap1\n      sub(shl(0xa0, 0x01), 0x01)\n        /* \"contract.sol\":11702:11711  baker.adr */\n      and\n        /* \"contract.sol\":11688:11701  rewardedBeans */\n      tag_145\n        /* \"contract.sol\":11688:11712  rewardedBeans(baker.adr) */\n      jump\t// in\n    tag_387:\n        /* \"contract.sol\":11755:11764  baker.adr */\n      dup4\n      sload\n        /* \"contract.sol\":11661:11712  uint256 beansFromRewards = rewardedBeans(baker.adr) */\n      swap1\n      swap2\n      pop\n        /* \"contract.sol\":11725:11743  uint256 totalBeans */\n      0x00\n      swap1\n        /* \"contract.sol\":11746:11783  addBeans(baker.adr, beansFromRewards) */\n      tag_388\n      swap1\n      sub(shl(0xa0, 0x01), 0x01)\n        /* \"contract.sol\":11755:11764  baker.adr */\n      and\n        /* \"contract.sol\":11661:11712  uint256 beansFromRewards = rewardedBeans(baker.adr) */\n      dup4\n        /* \"contract.sol\":11746:11754  addBeans */\n      tag_211\n        /* \"contract.sol\":11746:11783  addBeans(baker.adr, beansFromRewards) */\n      jump\t// in\n    tag_388:\n        /* \"contract.sol\":11794:11805  baker.beans */\n      0x01\n      dup6\n      add\n        /* \"contract.sol\":11794:11818  baker.beans = totalBeans */\n      dup2\n      swap1\n      sstore\n        /* \"contract.sol\":11845:11860  block.timestamp */\n      timestamp\n        /* \"contract.sol\":11829:11842  baker.bakedAt */\n      0x02\n      dup7\n      add\n        /* \"contract.sol\":11829:11860  baker.bakedAt = block.timestamp */\n      sstore\n        /* \"contract.sol\":11900:11912  baker.upline */\n      0x04\n      dup6\n      add\n      sload\n        /* \"contract.sol\":11878:11937  EmitBaked(msg.sender, baker.upline, beansFrom, baker.beans) */\n      0x40\n      dup1\n      mload\n        /* \"#utility.yul\":5697:5722   */\n      dup7\n      dup2\n      mstore\n        /* \"#utility.yul\":5753:5755   */\n      0x20\n        /* \"#utility.yul\":5738:5756   */\n      dup2\n      add\n        /* \"#utility.yul\":5731:5765   */\n      dup5\n      swap1\n      mstore\n        /* \"contract.sol\":11794:11818  baker.beans = totalBeans */\n      swap3\n      swap4\n      pop\n      sub(shl(0xa0, 0x01), 0x01)\n        /* \"contract.sol\":11900:11912  baker.upline */\n      swap1\n      swap2\n      and\n      swap2\n        /* \"contract.sol\":11888:11898  msg.sender */\n      caller\n      swap2\n        /* \"contract.sol\":11878:11937  EmitBaked(msg.sender, baker.upline, beansFrom, baker.beans) */\n      0x144eadb70fbf00231c7bb85902ea300bd9d39344bf8978d9838527f4e2b875ea\n      swap2\n        /* \"#utility.yul\":5670:5688   */\n      add\n        /* \"contract.sol\":11878:11937  EmitBaked(msg.sender, baker.upline, beansFrom, baker.beans) */\n      mload(0x40)\n      dup1\n      swap2\n      sub\n      swap1\n      log3\n        /* \"contract.sol\":11180:11945  {... */\n      pop\n      pop\n      pop\n      pop\n        /* \"contract.sol\":11133:11945  function handleBake(bool onlyRebaking) private {... */\n      pop\n      jump\t// out\n        /* \"contract.sol\":15567:15762  function daysSinceLastEat(address adr) private view returns (uint256) {... */\n    tag_249:\n        /* \"contract.sol\":15628:15635  uint256 */\n      0x00\n        /* \"contract.sol\":15648:15669  uint256 secondsPassed */\n      dup1\n        /* \"contract.sol\":15672:15696  secondsSinceLastEat(adr) */\n      tag_391\n        /* \"contract.sol\":15692:15695  adr */\n      dup4\n        /* \"contract.sol\":15672:15691  secondsSinceLastEat */\n      tag_133\n        /* \"contract.sol\":15672:15696  secondsSinceLastEat(adr) */\n      jump\t// in\n    tag_391:\n        /* \"contract.sol\":15738:15753  SECONDS_PER_DAY */\n      sload(0x0c)\n        /* \"contract.sol\":15648:15696  uint256 secondsPassed = secondsSinceLastEat(adr) */\n      swap1\n      swap2\n      pop\n        /* \"contract.sol\":15714:15754  Math.div(secondsPassed, SECONDS_PER_DAY) */\n      tag_239\n      swap1\n        /* \"contract.sol\":15648:15696  uint256 secondsPassed = secondsSinceLastEat(adr) */\n      dup3\n      swap1\n      shl(0x88, 0x01)\n        /* \"contract.sol\":15738:15753  SECONDS_PER_DAY */\n      swap1\n      div\n      0xffffffff\n      and\n        /* \"contract.sol\":15714:15722  Math.div */\n      tag_320\n        /* \"contract.sol\":15714:15754  Math.div(secondsPassed, SECONDS_PER_DAY) */\n      jump\t// in\n        /* \"contract.sol\":4975:5073  function mul(uint256 a, uint256 b) internal pure returns (uint256) {... */\n    tag_292:\n        /* \"contract.sol\":5033:5040  uint256 */\n      0x00\n        /* \"contract.sol\":5060:5065  a * b */\n      tag_239\n        /* \"contract.sol\":5064:5065  b */\n      dup3\n        /* \"contract.sol\":5060:5061  a */\n      dup5\n        /* \"contract.sol\":5060:5065  a * b */\n      tag_395\n      jump\t// in\n        /* \"contract.sol\":1771:1994  function _transferOwnership(address newOwner) internal {... */\n    tag_302:\n      sub(shl(0xa0, 0x01), 0x01)\n        /* \"contract.sol\":1843:1865  newOwner != address(0) */\n      dup2\n      and\n        /* \"contract.sol\":1835:1908  require(newOwner != address(0), \"Ownable: new owner is the zero address\") */\n      tag_397\n      jumpi\n      mload(0x40)\n      shl(0xe5, 0x461bcd)\n      dup2\n      mstore\n        /* \"#utility.yul\":10644:10646   */\n      0x20\n        /* \"contract.sol\":1835:1908  require(newOwner != address(0), \"Ownable: new owner is the zero address\") */\n      0x04\n      dup3\n      add\n        /* \"#utility.yul\":10626:10647   */\n      mstore\n        /* \"#utility.yul\":10683:10685   */\n      0x26\n        /* \"#utility.yul\":10663:10681   */\n      0x24\n      dup3\n      add\n        /* \"#utility.yul\":10656:10686   */\n      mstore\n        /* \"#utility.yul\":10722:10756   */\n      0x4f776e61626c653a206e6577206f776e657220697320746865207a65726f2061\n        /* \"#utility.yul\":10702:10720   */\n      0x44\n      dup3\n      add\n        /* \"#utility.yul\":10695:10757   */\n      mstore\n        /* \"#utility.yul\":10793:10801   */\n      0x6464726573730000000000000000000000000000000000000000000000000000\n        /* \"#utility.yul\":10773:10791   */\n      0x64\n      dup3\n      add\n        /* \"#utility.yul\":10766:10802   */\n      mstore\n        /* \"#utility.yul\":10819:10838   */\n      0x84\n      add\n        /* \"contract.sol\":1835:1908  require(newOwner != address(0), \"Ownable: new owner is the zero address\") */\n      tag_138\n        /* \"#utility.yul\":10442:10844   */\n      jump\n        /* \"contract.sol\":1835:1908  require(newOwner != address(0), \"Ownable: new owner is the zero address\") */\n    tag_397:\n        /* \"contract.sol\":1943:1949  _owner */\n      0x00\n      dup1\n      sload\n        /* \"contract.sol\":1922:1960  OwnershipTransferred(_owner, newOwner) */\n      mload(0x40)\n      sub(shl(0xa0, 0x01), 0x01)\n      dup1\n      dup6\n      and\n      swap4\n        /* \"contract.sol\":1943:1949  _owner */\n      swap3\n      and\n      swap2\n        /* \"contract.sol\":1922:1960  OwnershipTransferred(_owner, newOwner) */\n      0x8be0079c531659141344cd1fd0a4f28419497f9722a3daafe3b4186f6b6457e0\n      swap2\n      log3\n        /* \"contract.sol\":1969:1975  _owner */\n      0x00\n        /* \"contract.sol\":1969:1986  _owner = newOwner */\n      dup1\n      sload\n      not(sub(shl(0xa0, 0x01), 0x01))\n      and\n      sub(shl(0xa0, 0x01), 0x01)\n      swap3\n      swap1\n      swap3\n      and\n      swap2\n      swap1\n      swap2\n      or\n      swap1\n      sstore\n        /* \"contract.sol\":1771:1994  function _transferOwnership(address newOwner) internal {... */\n      jump\t// out\n        /* \"contract.sol\":17934:18345  function secondsSinceLastAction(... */\n    tag_308:\n      sub(shl(0xa0, 0x01), 0x01)\n        /* \"contract.sol\":18061:18072  bakers[adr] */\n      dup2\n      and\n        /* \"contract.sol\":18017:18024  uint256 */\n      0x00\n        /* \"contract.sol\":18061:18072  bakers[adr] */\n      swap1\n      dup2\n      mstore\n        /* \"contract.sol\":18061:18067  bakers */\n      0x14\n        /* \"contract.sol\":18061:18072  bakers[adr] */\n      0x20\n      mstore\n      0x40\n      dup2\n      keccak256\n        /* \"contract.sol\":18061:18080  bakers[adr].bakedAt */\n      0x02\n      add\n      sload\n        /* \"contract.sol\":18095:18113  lastTimeStamp == 0 */\n      dup1\n      dup3\n      sub\n        /* \"contract.sol\":18091:18175  if (lastTimeStamp == 0) {... */\n      tag_401\n      jumpi\n      pop\n      sub(shl(0xa0, 0x01), 0x01)\n        /* \"contract.sol\":18146:18157  bakers[adr] */\n      dup3\n      and\n      0x00\n      swap1\n      dup2\n      mstore\n        /* \"contract.sol\":18146:18152  bakers */\n      0x14\n        /* \"contract.sol\":18146:18157  bakers[adr] */\n      0x20\n      mstore\n      0x40\n      swap1\n      keccak256\n        /* \"contract.sol\":18146:18163  bakers[adr].ateAt */\n      0x03\n      add\n      sload\n        /* \"contract.sol\":18091:18175  if (lastTimeStamp == 0) {... */\n    tag_401:\n        /* \"contract.sol\":18191:18204  lastTimeStamp */\n      dup1\n        /* \"contract.sol\":18208:18209  0 */\n      0x00\n        /* \"contract.sol\":18191:18209  lastTimeStamp == 0 */\n      sub\n        /* \"contract.sol\":18187:18278  if (lastTimeStamp == 0) {... */\n      tag_402\n      jumpi\n      pop\n      sub(shl(0xa0, 0x01), 0x01)\n        /* \"contract.sol\":18242:18253  bakers[adr] */\n      dup3\n      and\n      0x00\n      swap1\n      dup2\n      mstore\n        /* \"contract.sol\":18242:18248  bakers */\n      0x14\n        /* \"contract.sol\":18242:18253  bakers[adr] */\n      0x20\n      mstore\n      0x40\n      swap1\n      keccak256\n        /* \"contract.sol\":18242:18266  bakers[adr].firstDeposit */\n      0x07\n      add\n      sload\n        /* \"contract.sol\":18187:18278  if (lastTimeStamp == 0) {... */\n    tag_402:\n        /* \"contract.sol\":18297:18337  Math.sub(block.timestamp, lastTimeStamp) */\n      tag_239\n        /* \"contract.sol\":18306:18321  block.timestamp */\n      timestamp\n        /* \"contract.sol\":18323:18336  lastTimeStamp */\n      dup3\n        /* \"contract.sol\":18297:18305  Math.sub */\n      tag_151\n        /* \"contract.sol\":18297:18337  Math.sub(block.timestamp, lastTimeStamp) */\n      jump\t// in\n        /* \"contract.sol\":18866:19425  function calcBeansReward(... */\n    tag_311:\n      sub(shl(0xa0, 0x01), 0x01)\n        /* \"contract.sol\":19095:19106  bakers[adr] */\n      dup2\n      and\n        /* \"contract.sol\":19010:19017  uint256 */\n      0x00\n        /* \"contract.sol\":19095:19106  bakers[adr] */\n      swap1\n      dup2\n      mstore\n        /* \"contract.sol\":19095:19101  bakers */\n      0x14\n        /* \"contract.sol\":19095:19106  bakers[adr] */\n      0x20\n      mstore\n      0x40\n      dup2\n      keccak256\n        /* \"contract.sol\":19095:19112  bakers[adr].beans */\n      0x01\n      add\n      sload\n        /* \"contract.sol\":19010:19017  uint256 */\n      dup2\n      swap1\n        /* \"contract.sol\":19054:19167  percentFromAmount(... */\n      tag_405\n      swap1\n        /* \"contract.sol\":19086:19124  Math.mul(bakers[adr].beans, 100000000) */\n      tag_406\n      swap1\n        /* \"contract.sol\":19114:19123  100000000 */\n      0x05f5e100\n        /* \"contract.sol\":19086:19094  Math.mul */\n      tag_292\n        /* \"contract.sol\":19086:19124  Math.mul(bakers[adr].beans, 100000000) */\n      jump\t// in\n    tag_406:\n        /* \"contract.sol\":19139:19156  dailyRewardFactor */\n      dup6\n        /* \"contract.sol\":19054:19071  percentFromAmount */\n      tag_149\n        /* \"contract.sol\":19054:19167  percentFromAmount(... */\n      jump\t// in\n    tag_405:\n        /* \"contract.sol\":19229:19244  SECONDS_PER_DAY */\n      sload(0x0c)\n        /* \"contract.sol\":19030:19167  uint256 rewardsPerDay = percentFromAmount(... */\n      swap1\n      swap2\n      pop\n        /* \"contract.sol\":19178:19202  uint256 rewardsPerSecond */\n      0x00\n      swap1\n        /* \"contract.sol\":19205:19245  Math.div(rewardsPerDay, SECONDS_PER_DAY) */\n      tag_407\n      swap1\n        /* \"contract.sol\":19030:19167  uint256 rewardsPerDay = percentFromAmount(... */\n      dup4\n      swap1\n      shl(0x88, 0x01)\n        /* \"contract.sol\":19229:19244  SECONDS_PER_DAY */\n      swap1\n      div\n      0xffffffff\n      and\n        /* \"contract.sol\":19205:19213  Math.div */\n      tag_320\n        /* \"contract.sol\":19205:19245  Math.div(rewardsPerDay, SECONDS_PER_DAY) */\n      jump\t// in\n    tag_407:\n        /* \"contract.sol\":19178:19245  uint256 rewardsPerSecond = Math.div(rewardsPerDay, SECONDS_PER_DAY) */\n      swap1\n      pop\n        /* \"contract.sol\":19256:19277  uint256 beansRewarded */\n      0x00\n        /* \"contract.sol\":19280:19321  Math.mul(rewardsPerSecond, secondsPassed) */\n      tag_408\n        /* \"contract.sol\":19289:19305  rewardsPerSecond */\n      dup3\n        /* \"contract.sol\":19307:19320  secondsPassed */\n      dup9\n        /* \"contract.sol\":19280:19288  Math.mul */\n      tag_292\n        /* \"contract.sol\":19280:19321  Math.mul(rewardsPerSecond, secondsPassed) */\n      jump\t// in\n    tag_408:\n        /* \"contract.sol\":19256:19321  uint256 beansRewarded = Math.mul(rewardsPerSecond, secondsPassed) */\n      swap1\n      pop\n        /* \"contract.sol\":19348:19386  Math.div(beansRewarded, 1000000000000) */\n      tag_409\n        /* \"contract.sol\":19357:19370  beansRewarded */\n      dup2\n        /* \"contract.sol\":19372:19385  1000000000000 */\n      0xe8d4a51000\n        /* \"contract.sol\":19348:19356  Math.div */\n      tag_320\n        /* \"contract.sol\":19348:19386  Math.div(beansRewarded, 1000000000000) */\n      jump\t// in\n    tag_409:\n        /* \"contract.sol\":19332:19386  beansRewarded = Math.div(beansRewarded, 1000000000000) */\n      swap8\n        /* \"contract.sol\":18866:19425  function calcBeansReward(... */\n      swap7\n      pop\n      pop\n      pop\n      pop\n      pop\n      pop\n      pop\n      jump\t// out\n        /* \"contract.sol\":5081:5179  function div(uint256 a, uint256 b) internal pure returns (uint256) {... */\n    tag_320:\n        /* \"contract.sol\":5139:5146  uint256 */\n      0x00\n        /* \"contract.sol\":5166:5171  a / b */\n      tag_239\n        /* \"contract.sol\":5170:5171  b */\n      dup3\n        /* \"contract.sol\":5166:5167  a */\n      dup5\n        /* \"contract.sol\":5166:5171  a / b */\n      tag_412\n      jump\t// in\n        /* \"#utility.yul\":377:557   */\n    tag_45:\n        /* \"#utility.yul\":436:442   */\n      0x00\n        /* \"#utility.yul\":489:491   */\n      0x20\n        /* \"#utility.yul\":477:486   */\n      dup3\n        /* \"#utility.yul\":468:475   */\n      dup5\n        /* \"#utility.yul\":464:487   */\n      sub\n        /* \"#utility.yul\":460:492   */\n      slt\n        /* \"#utility.yul\":457:509   */\n      iszero\n      tag_423\n      jumpi\n        /* \"#utility.yul\":505:506   */\n      0x00\n        /* \"#utility.yul\":502:503   */\n      dup1\n        /* \"#utility.yul\":495:507   */\n      revert\n        /* \"#utility.yul\":457:509   */\n    tag_423:\n      pop\n        /* \"#utility.yul\":528:551   */\n      calldataload\n      swap2\n        /* \"#utility.yul\":377:557   */\n      swap1\n      pop\n      jump\t// out\n        /* \"#utility.yul\":562:758   */\n    tag_414:\n        /* \"#utility.yul\":630:650   */\n      dup1\n      calldataload\n      sub(shl(0xa0, 0x01), 0x01)\n        /* \"#utility.yul\":679:733   */\n      dup2\n      and\n        /* \"#utility.yul\":669:734   */\n      dup2\n      eq\n        /* \"#utility.yul\":659:752   */\n      tag_425\n      jumpi\n        /* \"#utility.yul\":748:749   */\n      0x00\n        /* \"#utility.yul\":745:746   */\n      dup1\n        /* \"#utility.yul\":738:750   */\n      revert\n        /* \"#utility.yul\":659:752   */\n    tag_425:\n        /* \"#utility.yul\":562:758   */\n      swap2\n      swap1\n      pop\n      jump\t// out\n        /* \"#utility.yul\":763:949   */\n    tag_53:\n        /* \"#utility.yul\":822:828   */\n      0x00\n        /* \"#utility.yul\":875:877   */\n      0x20\n        /* \"#utility.yul\":863:872   */\n      dup3\n        /* \"#utility.yul\":854:861   */\n      dup5\n        /* \"#utility.yul\":850:873   */\n      sub\n        /* \"#utility.yul\":846:878   */\n      slt\n        /* \"#utility.yul\":843:895   */\n      iszero\n      tag_427\n      jumpi\n        /* \"#utility.yul\":891:892   */\n      0x00\n        /* \"#utility.yul\":888:889   */\n      dup1\n        /* \"#utility.yul\":881:893   */\n      revert\n        /* \"#utility.yul\":843:895   */\n    tag_427:\n        /* \"#utility.yul\":914:943   */\n      tag_239\n        /* \"#utility.yul\":933:942   */\n      dup3\n        /* \"#utility.yul\":914:943   */\n      tag_414\n      jump\t// in\n        /* \"#utility.yul\":954:1635   */\n    tag_56:\n        /* \"#utility.yul\":1125:1127   */\n      0x20\n        /* \"#utility.yul\":1177:1198   */\n      dup1\n      dup3\n      mstore\n        /* \"#utility.yul\":1247:1260   */\n      dup3\n      mload\n        /* \"#utility.yul\":1150:1168   */\n      dup3\n      dup3\n      add\n        /* \"#utility.yul\":1269:1291   */\n      dup2\n      swap1\n      mstore\n        /* \"#utility.yul\":1096:1100   */\n      0x00\n      swap2\n        /* \"#utility.yul\":1125:1127   */\n      swap1\n        /* \"#utility.yul\":1348:1363   */\n      dup5\n      dup3\n      add\n      swap1\n        /* \"#utility.yul\":1322:1324   */\n      0x40\n        /* \"#utility.yul\":1307:1325   */\n      dup6\n      add\n      swap1\n        /* \"#utility.yul\":1096:1100   */\n      dup5\n        /* \"#utility.yul\":1391:1609   */\n    tag_430:\n        /* \"#utility.yul\":1405:1411   */\n      dup2\n        /* \"#utility.yul\":1402:1403   */\n      dup2\n        /* \"#utility.yul\":1399:1412   */\n      lt\n        /* \"#utility.yul\":1391:1609   */\n      iszero\n      tag_432\n      jumpi\n        /* \"#utility.yul\":1470:1483   */\n      dup4\n      mload\n      sub(shl(0xa0, 0x01), 0x01)\n        /* \"#utility.yul\":1466:1528   */\n      and\n        /* \"#utility.yul\":1454:1529   */\n      dup4\n      mstore\n        /* \"#utility.yul\":1584:1599   */\n      swap3\n      dup5\n      add\n      swap3\n        /* \"#utility.yul\":1549:1561   */\n      swap2\n      dup5\n      add\n      swap2\n        /* \"#utility.yul\":1427:1428   */\n      0x01\n        /* \"#utility.yul\":1420:1429   */\n      add\n        /* \"#utility.yul\":1391:1609   */\n      jump(tag_430)\n    tag_432:\n      pop\n        /* \"#utility.yul\":1626:1629   */\n      swap1\n      swap7\n        /* \"#utility.yul\":954:1635   */\n      swap6\n      pop\n      pop\n      pop\n      pop\n      pop\n      pop\n      jump\t// out\n        /* \"#utility.yul\":1640:1894   */\n    tag_61:\n        /* \"#utility.yul\":1708:1714   */\n      0x00\n        /* \"#utility.yul\":1716:1722   */\n      dup1\n        /* \"#utility.yul\":1769:1771   */\n      0x40\n        /* \"#utility.yul\":1757:1766   */\n      dup4\n        /* \"#utility.yul\":1748:1755   */\n      dup6\n        /* \"#utility.yul\":1744:1767   */\n      sub\n        /* \"#utility.yul\":1740:1772   */\n      slt\n        /* \"#utility.yul\":1737:1789   */\n      iszero\n      tag_434\n      jumpi\n        /* \"#utility.yul\":1785:1786   */\n      0x00\n        /* \"#utility.yul\":1782:1783   */\n      dup1\n        /* \"#utility.yul\":1775:1787   */\n      revert\n        /* \"#utility.yul\":1737:1789   */\n    tag_434:\n        /* \"#utility.yul\":1808:1837   */\n      tag_435\n        /* \"#utility.yul\":1827:1836   */\n      dup4\n        /* \"#utility.yul\":1808:1837   */\n      tag_414\n      jump\t// in\n    tag_435:\n        /* \"#utility.yul\":1798:1837   */\n      swap5\n        /* \"#utility.yul\":1884:1886   */\n      0x20\n        /* \"#utility.yul\":1869:1887   */\n      swap4\n      swap1\n      swap4\n      add\n        /* \"#utility.yul\":1856:1888   */\n      calldataload\n      swap4\n      pop\n      pop\n      pop\n        /* \"#utility.yul\":1640:1894   */\n      jump\t// out\n        /* \"#utility.yul\":2177:2661   */\n    tag_416:\n        /* \"#utility.yul\":2230:2233   */\n      0x00\n        /* \"#utility.yul\":2268:2273   */\n      dup2\n        /* \"#utility.yul\":2262:2274   */\n      mload\n        /* \"#utility.yul\":2295:2301   */\n      dup1\n        /* \"#utility.yul\":2290:2293   */\n      dup5\n        /* \"#utility.yul\":2283:2302   */\n      mstore\n        /* \"#utility.yul\":2321:2325   */\n      0x20\n        /* \"#utility.yul\":2350:2352   */\n      dup1\n        /* \"#utility.yul\":2345:2348   */\n      dup6\n        /* \"#utility.yul\":2341:2353   */\n      add\n        /* \"#utility.yul\":2334:2353   */\n      swap5\n      pop\n        /* \"#utility.yul\":2387:2389   */\n      dup1\n        /* \"#utility.yul\":2380:2385   */\n      dup5\n        /* \"#utility.yul\":2376:2390   */\n      add\n        /* \"#utility.yul\":2408:2409   */\n      0x00\n        /* \"#utility.yul\":2418:2636   */\n    tag_439:\n        /* \"#utility.yul\":2432:2438   */\n      dup4\n        /* \"#utility.yul\":2429:2430   */\n      dup2\n        /* \"#utility.yul\":2426:2439   */\n      lt\n        /* \"#utility.yul\":2418:2636   */\n      iszero\n      tag_441\n      jumpi\n        /* \"#utility.yul\":2497:2510   */\n      dup2\n      mload\n      sub(shl(0xa0, 0x01), 0x01)\n        /* \"#utility.yul\":2493:2555   */\n      and\n        /* \"#utility.yul\":2481:2556   */\n      dup8\n      mstore\n        /* \"#utility.yul\":2576:2588   */\n      swap6\n      dup3\n      add\n      swap6\n        /* \"#utility.yul\":2611:2626   */\n      swap1\n      dup3\n      add\n      swap1\n        /* \"#utility.yul\":2454:2455   */\n      0x01\n        /* \"#utility.yul\":2447:2456   */\n      add\n        /* \"#utility.yul\":2418:2636   */\n      jump(tag_439)\n    tag_441:\n      pop\n        /* \"#utility.yul\":2652:2655   */\n      swap5\n      swap6\n        /* \"#utility.yul\":2177:2661   */\n      swap5\n      pop\n      pop\n      pop\n      pop\n      pop\n      jump\t// out\n        /* \"#utility.yul\":2666:4034   */\n    tag_72:\n        /* \"#utility.yul\":2839:2841   */\n      0x20\n        /* \"#utility.yul\":2828:2837   */\n      dup2\n        /* \"#utility.yul\":2821:2842   */\n      mstore\n        /* \"#utility.yul\":2851:2904   */\n      tag_443\n        /* \"#utility.yul\":2900:2902   */\n      0x20\n        /* \"#utility.yul\":2889:2898   */\n      dup3\n        /* \"#utility.yul\":2885:2903   */\n      add\n        /* \"#utility.yul\":2876:2882   */\n      dup4\n        /* \"#utility.yul\":2870:2883   */\n      mload\n      sub(shl(0xa0, 0x01), 0x01)\n        /* \"#utility.yul\":80:134   */\n      and\n        /* \"#utility.yul\":68:135   */\n      swap1\n      mstore\n        /* \"#utility.yul\":14:141   */\n      jump\n        /* \"#utility.yul\":2851:2904   */\n    tag_443:\n        /* \"#utility.yul\":2958:2960   */\n      0x20\n        /* \"#utility.yul\":2950:2956   */\n      dup3\n        /* \"#utility.yul\":2946:2961   */\n      add\n        /* \"#utility.yul\":2940:2962   */\n      mload\n        /* \"#utility.yul\":2935:2937   */\n      0x40\n        /* \"#utility.yul\":2924:2933   */\n      dup3\n        /* \"#utility.yul\":2920:2938   */\n      add\n        /* \"#utility.yul\":2913:2963   */\n      mstore\n        /* \"#utility.yul\":3017:3019   */\n      0x40\n        /* \"#utility.yul\":3009:3015   */\n      dup3\n        /* \"#utility.yul\":3005:3020   */\n      add\n        /* \"#utility.yul\":2999:3021   */\n      mload\n        /* \"#utility.yul\":2994:2996   */\n      0x60\n        /* \"#utility.yul\":2983:2992   */\n      dup3\n        /* \"#utility.yul\":2979:2997   */\n      add\n        /* \"#utility.yul\":2972:3022   */\n      mstore\n        /* \"#utility.yul\":3077:3079   */\n      0x60\n        /* \"#utility.yul\":3069:3075   */\n      dup3\n        /* \"#utility.yul\":3065:3080   */\n      add\n        /* \"#utility.yul\":3059:3081   */\n      mload\n        /* \"#utility.yul\":3053:3056   */\n      0x80\n        /* \"#utility.yul\":3042:3051   */\n      dup3\n        /* \"#utility.yul\":3038:3057   */\n      add\n        /* \"#utility.yul\":3031:3082   */\n      mstore\n        /* \"#utility.yul\":2802:2806   */\n      0x00\n        /* \"#utility.yul\":3129:3132   */\n      0x80\n        /* \"#utility.yul\":3121:3127   */\n      dup4\n        /* \"#utility.yul\":3117:3133   */\n      add\n        /* \"#utility.yul\":3111:3134   */\n      mload\n        /* \"#utility.yul\":3143:3196   */\n      tag_444\n        /* \"#utility.yul\":3191:3194   */\n      0xa0\n        /* \"#utility.yul\":3180:3189   */\n      dup5\n        /* \"#utility.yul\":3176:3195   */\n      add\n        /* \"#utility.yul\":3162:3174   */\n      dup3\n      sub(shl(0xa0, 0x01), 0x01)\n        /* \"#utility.yul\":80:134   */\n      and\n        /* \"#utility.yul\":68:135   */\n      swap1\n      mstore\n        /* \"#utility.yul\":14:141   */\n      jump\n        /* \"#utility.yul\":3143:3196   */\n    tag_444:\n      pop\n        /* \"#utility.yul\":3245:3248   */\n      0xa0\n        /* \"#utility.yul\":3233:3249   */\n      dup4\n      add\n        /* \"#utility.yul\":3227:3250   */\n      mload\n        /* \"#utility.yul\":2151:2164   */\n      dup1\n      iszero\n        /* \"#utility.yul\":2144:2165   */\n      iszero\n        /* \"#utility.yul\":3306:3309   */\n      0xc0\n        /* \"#utility.yul\":3291:3310   */\n      dup5\n      add\n        /* \"#utility.yul\":2132:2166   */\n      mstore\n        /* \"#utility.yul\":3259:3311   */\n      pop\n        /* \"#utility.yul\":3360:3363   */\n      0xc0\n        /* \"#utility.yul\":3352:3358   */\n      dup4\n        /* \"#utility.yul\":3348:3364   */\n      add\n        /* \"#utility.yul\":3342:3365   */\n      mload\n        /* \"#utility.yul\":3384:3390   */\n      0x0160\n        /* \"#utility.yul\":3427:3429   */\n      dup1\n        /* \"#utility.yul\":3421:3424   */\n      0xe0\n        /* \"#utility.yul\":3410:3419   */\n      dup6\n        /* \"#utility.yul\":3406:3425   */\n      add\n        /* \"#utility.yul\":3399:3430   */\n      mstore\n        /* \"#utility.yul\":3453:3518   */\n      tag_446\n        /* \"#utility.yul\":3513:3516   */\n      0x0180\n        /* \"#utility.yul\":3502:3511   */\n      dup6\n        /* \"#utility.yul\":3498:3517   */\n      add\n        /* \"#utility.yul\":3482:3496   */\n      dup4\n        /* \"#utility.yul\":3453:3518   */\n      tag_416\n      jump\t// in\n    tag_446:\n        /* \"#utility.yul\":3439:3518   */\n      swap2\n      pop\n        /* \"#utility.yul\":3567:3570   */\n      0xe0\n        /* \"#utility.yul\":3559:3565   */\n      dup6\n        /* \"#utility.yul\":3555:3571   */\n      add\n        /* \"#utility.yul\":3549:3572   */\n      mload\n        /* \"#utility.yul\":3591:3594   */\n      0x0100\n        /* \"#utility.yul\":3662:3664   */\n      0x1f\n        /* \"#utility.yul\":3658:3665   */\n      not\n        /* \"#utility.yul\":3646:3655   */\n      dup7\n        /* \"#utility.yul\":3638:3644   */\n      dup6\n        /* \"#utility.yul\":3634:3656   */\n      sub\n        /* \"#utility.yul\":3630:3666   */\n      add\n        /* \"#utility.yul\":3625:3627   */\n      dup2\n        /* \"#utility.yul\":3614:3623   */\n      dup8\n        /* \"#utility.yul\":3610:3628   */\n      add\n        /* \"#utility.yul\":3603:3667   */\n      mstore\n        /* \"#utility.yul\":3690:3742   */\n      tag_447\n        /* \"#utility.yul\":3735:3741   */\n      dup5\n        /* \"#utility.yul\":3719:3733   */\n      dup4\n        /* \"#utility.yul\":3690:3742   */\n      tag_416\n      jump\t// in\n    tag_447:\n        /* \"#utility.yul\":3767:3782   */\n      swap1\n      dup8\n      add\n        /* \"#utility.yul\":3761:3783   */\n      mload\n        /* \"#utility.yul\":3802:3805   */\n      0x0120\n        /* \"#utility.yul\":3821:3839   */\n      dup8\n      dup2\n      add\n        /* \"#utility.yul\":3814:3844   */\n      swap2\n      swap1\n      swap2\n      mstore\n        /* \"#utility.yul\":3869:3884   */\n      dup8\n      add\n        /* \"#utility.yul\":3863:3885   */\n      mload\n        /* \"#utility.yul\":3904:3907   */\n      0x0140\n        /* \"#utility.yul\":3923:3941   */\n      dup1\n      dup9\n      add\n        /* \"#utility.yul\":3916:3946   */\n      swap2\n      swap1\n      swap2\n      mstore\n        /* \"#utility.yul\":3988:4003   */\n      swap1\n      swap7\n      add\n        /* \"#utility.yul\":3982:4004   */\n      mload\n        /* \"#utility.yul\":3962:3980   */\n      swap2\n      swap1\n      swap5\n      add\n        /* \"#utility.yul\":3955:4005   */\n      mstore\n      pop\n        /* \"#utility.yul\":3676:3742   */\n      swap2\n      swap3\n        /* \"#utility.yul\":2666:4034   */\n      swap2\n      pop\n      pop\n      jump\t// out\n        /* \"#utility.yul\":5241:5518   */\n    tag_173:\n        /* \"#utility.yul\":5308:5314   */\n      0x00\n        /* \"#utility.yul\":5361:5363   */\n      0x20\n        /* \"#utility.yul\":5349:5358   */\n      dup3\n        /* \"#utility.yul\":5340:5347   */\n      dup5\n        /* \"#utility.yul\":5336:5359   */\n      sub\n        /* \"#utility.yul\":5332:5364   */\n      slt\n        /* \"#utility.yul\":5329:5381   */\n      iszero\n      tag_453\n      jumpi\n        /* \"#utility.yul\":5377:5378   */\n      0x00\n        /* \"#utility.yul\":5374:5375   */\n      dup1\n        /* \"#utility.yul\":5367:5379   */\n      revert\n        /* \"#utility.yul\":5329:5381   */\n    tag_453:\n        /* \"#utility.yul\":5409:5418   */\n      dup2\n        /* \"#utility.yul\":5403:5419   */\n      mload\n        /* \"#utility.yul\":5462:5467   */\n      dup1\n        /* \"#utility.yul\":5455:5468   */\n      iszero\n        /* \"#utility.yul\":5448:5469   */\n      iszero\n        /* \"#utility.yul\":5441:5446   */\n      dup2\n        /* \"#utility.yul\":5438:5470   */\n      eq\n        /* \"#utility.yul\":5428:5488   */\n      tag_239\n      jumpi\n        /* \"#utility.yul\":5484:5485   */\n      0x00\n        /* \"#utility.yul\":5481:5482   */\n      dup1\n        /* \"#utility.yul\":5474:5486   */\n      revert\n        /* \"#utility.yul\":7714:7841   */\n    tag_417:\n        /* \"#utility.yul\":7775:7785   */\n      0x4e487b71\n        /* \"#utility.yul\":7770:7773   */\n      0xe0\n        /* \"#utility.yul\":7766:7786   */\n      shl\n        /* \"#utility.yul\":7763:7764   */\n      0x00\n        /* \"#utility.yul\":7756:7787   */\n      mstore\n        /* \"#utility.yul\":7806:7810   */\n      0x11\n        /* \"#utility.yul\":7803:7804   */\n      0x04\n        /* \"#utility.yul\":7796:7811   */\n      mstore\n        /* \"#utility.yul\":7830:7834   */\n      0x24\n        /* \"#utility.yul\":7827:7828   */\n      0x00\n        /* \"#utility.yul\":7820:7835   */\n      revert\n        /* \"#utility.yul\":7846:7981   */\n    tag_225:\n        /* \"#utility.yul\":7885:7888   */\n      0x00\n        /* \"#utility.yul\":7906:7923   */\n      0x01\n      dup3\n      add\n        /* \"#utility.yul\":7903:7946   */\n      tag_464\n      jumpi\n        /* \"#utility.yul\":7926:7944   */\n      tag_464\n      tag_417\n      jump\t// in\n    tag_464:\n      pop\n        /* \"#utility.yul\":7973:7974   */\n      0x01\n        /* \"#utility.yul\":7962:7975   */\n      add\n      swap1\n        /* \"#utility.yul\":7846:7981   */\n      jump\t// out\n        /* \"#utility.yul\":8310:8437   */\n    tag_418:\n        /* \"#utility.yul\":8371:8381   */\n      0x4e487b71\n        /* \"#utility.yul\":8366:8369   */\n      0xe0\n        /* \"#utility.yul\":8362:8382   */\n      shl\n        /* \"#utility.yul\":8359:8360   */\n      0x00\n        /* \"#utility.yul\":8352:8383   */\n      mstore\n        /* \"#utility.yul\":8402:8406   */\n      0x12\n        /* \"#utility.yul\":8399:8400   */\n      0x04\n        /* \"#utility.yul\":8392:8407   */\n      mstore\n        /* \"#utility.yul\":8426:8430   */\n      0x24\n        /* \"#utility.yul\":8423:8424   */\n      0x00\n        /* \"#utility.yul\":8416:8431   */\n      revert\n        /* \"#utility.yul\":8442:8554   */\n    tag_251:\n        /* \"#utility.yul\":8474:8475   */\n      0x00\n        /* \"#utility.yul\":8500:8501   */\n      dup3\n        /* \"#utility.yul\":8490:8525   */\n      tag_469\n      jumpi\n        /* \"#utility.yul\":8505:8523   */\n      tag_469\n      tag_418\n      jump\t// in\n    tag_469:\n      pop\n        /* \"#utility.yul\":8539:8548   */\n      mod\n      swap1\n        /* \"#utility.yul\":8442:8554   */\n      jump\t// out\n        /* \"#utility.yul\":8559:8743   */\n    tag_266:\n        /* \"#utility.yul\":8629:8635   */\n      0x00\n        /* \"#utility.yul\":8682:8684   */\n      0x20\n        /* \"#utility.yul\":8670:8679   */\n      dup3\n        /* \"#utility.yul\":8661:8668   */\n      dup5\n        /* \"#utility.yul\":8657:8680   */\n      sub\n        /* \"#utility.yul\":8653:8685   */\n      slt\n        /* \"#utility.yul\":8650:8702   */\n      iszero\n      tag_471\n      jumpi\n        /* \"#utility.yul\":8698:8699   */\n      0x00\n        /* \"#utility.yul\":8695:8696   */\n      dup1\n        /* \"#utility.yul\":8688:8700   */\n      revert\n        /* \"#utility.yul\":8650:8702   */\n    tag_471:\n      pop\n        /* \"#utility.yul\":8721:8737   */\n      mload\n      swap2\n        /* \"#utility.yul\":8559:8743   */\n      swap1\n      pop\n      jump\t// out\n        /* \"#utility.yul\":8748:8876   */\n    tag_323:\n        /* \"#utility.yul\":8815:8824   */\n      dup2\n      dup2\n      sub\n        /* \"#utility.yul\":8836:8847   */\n      dup2\n      dup2\n      gt\n        /* \"#utility.yul\":8833:8870   */\n      iszero\n      tag_291\n      jumpi\n        /* \"#utility.yul\":8850:8868   */\n      tag_291\n      tag_417\n      jump\t// in\n        /* \"#utility.yul\":8881:9006   */\n    tag_333:\n        /* \"#utility.yul\":8946:8955   */\n      dup1\n      dup3\n      add\n        /* \"#utility.yul\":8967:8977   */\n      dup1\n      dup3\n      gt\n        /* \"#utility.yul\":8964:9000   */\n      iszero\n      tag_291\n      jumpi\n        /* \"#utility.yul\":8980:8998   */\n      tag_291\n      tag_417\n      jump\t// in\n        /* \"#utility.yul\":9011:9138   */\n    tag_368:\n        /* \"#utility.yul\":9072:9082   */\n      0x4e487b71\n        /* \"#utility.yul\":9067:9070   */\n      0xe0\n        /* \"#utility.yul\":9063:9083   */\n      shl\n        /* \"#utility.yul\":9060:9061   */\n      0x00\n        /* \"#utility.yul\":9053:9084   */\n      mstore\n        /* \"#utility.yul\":9103:9107   */\n      0x32\n        /* \"#utility.yul\":9100:9101   */\n      0x04\n        /* \"#utility.yul\":9093:9108   */\n      mstore\n        /* \"#utility.yul\":9127:9131   */\n      0x24\n        /* \"#utility.yul\":9124:9125   */\n      0x00\n        /* \"#utility.yul\":9117:9132   */\n      revert\n        /* \"#utility.yul\":10269:10437   */\n    tag_395:\n        /* \"#utility.yul\":10342:10351   */\n      dup1\n      dup3\n      mul\n        /* \"#utility.yul\":10373:10382   */\n      dup2\n      iszero\n        /* \"#utility.yul\":10390:10405   */\n      dup3\n      dup3\n      div\n        /* \"#utility.yul\":10384:10406   */\n      dup5\n      eq\n        /* \"#utility.yul\":10370:10407   */\n      or\n        /* \"#utility.yul\":10360:10431   */\n      tag_291\n      jumpi\n        /* \"#utility.yul\":10411:10429   */\n      tag_291\n      tag_417\n      jump\t// in\n        /* \"#utility.yul\":10849:10969   */\n    tag_412:\n        /* \"#utility.yul\":10889:10890   */\n      0x00\n        /* \"#utility.yul\":10915:10916   */\n      dup3\n        /* \"#utility.yul\":10905:10940   */\n      tag_488\n      jumpi\n        /* \"#utility.yul\":10920:10938   */\n      tag_488\n      tag_418\n      jump\t// in\n    tag_488:\n      pop\n        /* \"#utility.yul\":10954:10963   */\n      div\n      swap1\n        /* \"#utility.yul\":10849:10969   */\n      jump\t// out\n\n    auxdata: 0xa264697066735822122086454d27f6985dc2fcef3128cb542fa79817f377a5133a86ce648d88ef65a44264736f6c63430008110033\n}\n",
    "bytecode": {
      "linkReferences": {},
      "object": "60806040526001805460ff60a01b1981169091556002805473e9e7cea3dedca5984780bafc599bd69add087d566001600160a01b0319918216179091556003805473ca4ee92973e4b06ebdace430a2f380198f027b569083168117909155600480547362d563fe47c570d22c927a6b19183b5b6e77e945908416811790915560058054735f5fe741a43e9a2b9e4bc31583f71e15eba30ef990851681179091556006805473644c002ab8222f198133afe7a0046351bc80467d90861681179091556007805486169094179093556008805485169092179091556009805484169091179055600a805483169091179055600b80546001600160a01b0390931692909116919091179055600c80547fff00000000000000000000000000000000000000000000000000000000000000167e0505420013000a05010100015180000000000000000000000000e8d4a5100017905568056bc75e2d63100000600d55678ac7230489e80000600e5569152d02c7e14af6800000600f556901605d9ee98627100000601055680ad78ebc5ac620000060115534801561019e57600080fd5b50600080546001600160a01b031916339081178255604051909182917f8be0079c531659141344cd1fd0a4f28419497f9722a3daafe3b4186f6b6457e0908290a350600180546001600160a01b03191633179055611ef8806102016000396000f3fe608060405234801561001057600080fd5b50600436106101b95760003560e01c80639703073c116100f9578063d65cfbbe11610097578063e72aabb511610071578063e72aabb51461039d578063edb9a5c0146103b0578063f2fde38b146103de578063f5c9b7da146103f157600080fd5b8063d65cfbbe14610364578063e300e98b14610377578063e689c4761461038a57600080fd5b8063ad06de62116100d3578063ad06de621461032d578063b0de262e14610336578063cb868f541461033e578063d5e156dc1461035157600080fd5b80639703073c146102ef5780639eb32fdb14610302578063a70ed0571461030a57600080fd5b8063733ba4921161016657806383c4c62b1161014057806383c4c62b146102b05780638b7afe2e146102c35780638da5cb5b146102cb578063933f5d3f146102dc57600080fd5b8063733ba4921461025c5780638055c2171461026f57806381e7e20e1461029057600080fd5b80635639e8cf116101975780635639e8cf146102215780636b277e3714610234578063715018a61461025457600080fd5b806306c18a31146101be578063340a2a4e146101ee5780633b0923aa146101f8575b600080fd5b6001546101d1906001600160a01b031681565b6040516001600160a01b0390911681526020015b60405180910390f35b6101f6610404565b005b6101d1610206366004611bf2565b6012602052600090815260409020546001600160a01b031681565b6003546101d1906001600160a01b031681565b610247610242366004611c27565b6106dc565b6040516101e59190611c42565b6101f6610755565b6101f661026a366004611c8f565b6107f9565b61028261027d366004611c27565b610d4e565b6040519081526020016101e5565b6102a361029e366004611c27565b610d7c565b6040516101e59190611cfd565b6102826102be366004611c27565b610f3c565b610282611005565b6000546001600160a01b03166101d1565b6005546101d1906001600160a01b031681565b6102476102fd366004611c27565b611077565b6101f66110ee565b61031d610318366004611c27565b611178565b60405190151581526020016101e5565b61028260135481565b6101f66111ac565b61028261034c366004611c27565b6111b8565b6006546101d1906001600160a01b031681565b610282610372366004611c27565b611250565b610282610385366004611c27565b611271565b6004546101d1906001600160a01b031681565b61031d6103ab366004611c27565b61129e565b61031d6103be366004611c27565b6001600160a01b0316600090815260146020526040902060070154151590565b6101f66103ec366004611c27565b6112d0565b6102826103ff366004611c27565b611336565b3360009081526014602052604080822080546001600160a01b031683529120600701546104785760405162461bcd60e51b815260206004820152601760248201527f4d75737420626520696e76657374656420746f2065617400000000000000000060448201526064015b60405180910390fd5b805461048c906001600160a01b031661129e565b156104d95760405162461bcd60e51b815260206004820152601b60248201527f596f7520686176652072656163686564206d6178207061796f75740000000000604482015260640161046f565b80546000906104f0906001600160a01b0316611383565b905060006104fd826113d2565b600c5490915060009061052f90839077010000000000000000000000000000000000000000000000900460ff166113f8565b9050600061053d838361140e565b8554909150600090610558906001600160a01b03168361141a565b8654909150610570906001600160a01b03168361142e565b8654909250610587906001600160a01b0316611271565b610595858860090154611447565b106105dd5785546105bc906105b2906001600160a01b0316611271565b876009015461140e565b86549092506105d3906001600160a01b0316611271565b600987015561060c565b85546000906105f5906001600160a01b03168661142e565b9050610605876009015482611447565b6009880155505b426003870181905560028701556106238382611453565b60025460405163a9059cbb60e01b8152336004820152602481018490526001600160a01b039091169063a9059cbb906044016020604051808303816000875af1158015610674573d6000803e3d6000fd5b505050506040513d601f19601f820116820180604052508101906106989190611dc7565b50604080518381526020810187905233917fb113e92e5ecc8d9be9ddb22e2542cbf1ed96ce65136ebec77021e72ce8af16ed910160405180910390a2505050505050565b6001600160a01b03811660009081526014602090815260409182902060050180548351818402810184019094528084526060939283018282801561074957602002820191906000526020600020905b81546001600160a01b0316815260019091019060200180831161072b575b50505050509050919050565b6000546001600160a01b031633146107af5760405162461bcd60e51b815260206004820181905260248201527f4f776e61626c653a2063616c6c6572206973206e6f7420746865206f776e6572604482015260640161046f565b600080546040516001600160a01b03909116907f8be0079c531659141344cd1fd0a4f28419497f9722a3daafe3b4186f6b6457e0908390a3600080546001600160a01b0319169055565b600154600160a01b900460ff1661080f57600080fd5b336000908152601460205260408082206001600160a01b03851683529120600d548310156108a55760405162461bcd60e51b815260206004820152602d60248201527f4465706f73697420646f65736e2774206d65657420746865206d696e696d756d60448201527f20726571756972656d656e747300000000000000000000000000000000000000606482015260840161046f565b600f546108b6836008015485611447565b11156109045760405162461bcd60e51b815260206004820152601960248201527f4d617820746f74616c206465706f736974207265616368656400000000000000604482015260640161046f565b6001600160a01b038416158061092257506001600160a01b03841633145b80610948575080546001600160a01b031660009081526014602052604090206007015415155b6109ba5760405162461bcd60e51b815260206004820152602560248201527f526566206d75737420626520696e766573746f7220746f20736574206173207560448201527f706c696e65000000000000000000000000000000000000000000000000000000606482015260840161046f565b6002546040516323b872dd60e01b8152336004820152306024820152604481018590526001600160a01b03909116906323b872dd906064016020604051808303816000875af1158015610a11573d6000803e3d6000fd5b505050506040513d601f19601f82011682018060405250810190610a359190611dc7565b5081546001600160a01b031916331782556001820154600c54600090610a7990869060ff7501000000000000000000000000000000000000000000909104166113f8565b90506000610a87868361140e565b90506000610a94826116d0565b8654909150600090610aaf906001600160a01b0316836116f6565b600188018190556004880154909150600160a01b900460ff16158015610ade57506001600160a01b0389163314155b8015610af257506001600160a01b03891615155b8015610b0b575060048701546001600160a01b03163314155b15610be6576004870180547fffffffffffffffffffffff000000000000000000000000000000000000000000166001600160a01b03808c1691909117600160a01b17909155600587018054600181018255600091825260209091200180546001600160a01b031916331790558754610b9e91166001600160a01b0316600090815260146020526040902060070154151590565b1515600003610be6576000610bc7610bb58a6116d0565b600c54600160f01b900460ff166113f8565b8754909150610bdf906001600160a01b0316826116f6565b6001880155505b86546001600160a01b031660009081526014602052604081206007015415159003610c5557426007880155865460138054600090815260126020526040812080546001600160a01b0319166001600160a01b0390941693909317909255805491610c4f83611dff565b91905055505b610c63876008015489611447565b60088801556004870154600160a01b900460ff168015610c895750601154876008015410155b8015610caf575086546004880154610cad916001600160a01b039081169116611747565b155b15610cdc57600686018054600181018255600091825260209091200180546001600160a01b031916331790555b610ce7846000611453565b610cf160006117d6565b6001870154604080518a81526020810188905280820192909252516001600160a01b038b169133917f8879552d239927199ffd503b3778d279fea6d215e50781bd537b8b6400483e439181900360600190a3505050505050505050565b6001600160a01b0381166000908152601460205260408120600101548190610d75906113d2565b9392505050565b610ded60405180610160016040528060006001600160a01b0316815260200160008152602001600081526020016000815260200160006001600160a01b0316815260200160001515815260200160608152602001606081526020016000815260200160008152602001600081525090565b6001600160a01b038281166000908152601460209081526040918290208251610160810184528154851681526001820154818401526002820154818501526003820154606082015260048201549485166080820152600160a01b90940460ff16151560a0850152600581018054845181850281018501909552808552919360c0860193909290830182828015610eac57602002820191906000526020600020905b81546001600160a01b03168152600190910190602001808311610e8e575b5050505050815260200160068201805480602002602001604051908101604052809291908181526020018280548015610f0e57602002820191906000526020600020905b81546001600160a01b03168152600190910190602001808311610ef0575b5050505050815260200160078201548152602001600882015481526020016009820154815250509050919050565b600080610f48836119e7565b90506000610f57600a83611e2e565b905060008111610f6b5750605a9392505050565b60018111610f7d575060509392505050565b60028111610f8f575060469392505050565b60038111610fa15750603c9392505050565b60048111610fb3575060329392505050565b60058111610fc5575060289392505050565b60068111610fd75750601e9392505050565b60078111610fe9575060149392505050565b60088111610ffb5750600a9392505050565b5060009392505050565b6002546040516370a0823160e01b81523060048201526000916001600160a01b0316906370a0823190602401602060405180830381865afa15801561104e573d6000803e3d6000fd5b505050506040513d601f19601f820116820180604052508101906110729190611e42565b905090565b6001600160a01b038116600090815260146020908152604091829020600601805483518184028101840190945280845260609392830182828015610749576020028201919060005260206000209081546001600160a01b0316815260019091019060200180831161072b5750505050509050919050565b6000546001600160a01b031633146111485760405162461bcd60e51b815260206004820181905260248201527f4f776e61626c653a2063616c6c6572206973206e6f7420746865206f776e6572604482015260640161046f565b600180547fffffffffffffffffffffff00ffffffffffffffffffffffffffffffffffffffff16600160a01b179055565b6000611185600f546116d0565b6001600160a01b039092166000908152601460205260409020600101549190911015919050565b6111b660016117d6565b565b6001600160a01b038116600090815260146020526040812060060154600a8110156111e757506188b892915050565b60198110156111fa5750619c4092915050565b603281101561120d575061afc892915050565b6064811015611220575061c35092915050565b6096811015611233575061d6d892915050565b60fa811015611246575061ea6092915050565b5061fde892915050565b60008061125c83611383565b90506000611269826113d2565b949350505050565b6001600160a01b038116600090815260146020526040812060080154611298906003611a11565b92915050565b60006112a982611271565b6001600160a01b039092166000908152601460205260409020600901549190911015919050565b6000546001600160a01b0316331461132a5760405162461bcd60e51b815260206004820181905260248201527f4f776e61626c653a2063616c6c6572206973206e6f7420746865206f776e6572604482015260640161046f565b61133381611a1d565b50565b6001600160a01b03811660009081526014602052604081206003015480820361137757506001600160a01b0382166000908152601460205260409020600701545b6000611269428361140e565b60008061138f83611af4565b9050600061139c846111b8565b905060006113ab838387611b65565b90506113b86010546116d0565b8110611269576113c96010546116d0565b95945050505050565b600c546000908190610d7590849070ffffffffffffffffffffffffffffffffff16611a11565b6000610d756114078484611a11565b6064611be6565b6000610d758284611e5b565b6000610d758261142985610f3c565b6113f8565b6000610d7582611429606461144287610f3c565b61140e565b6000610d758284611e6e565b600c546000906114849084907801000000000000000000000000000000000000000000000000900461ffff166113f8565b600c549091506000906114ba9085907a010000000000000000000000000000000000000000000000000000900461ffff166113f8565b600c549091506000906114d8908690600160e01b900460ff166113f8565b60025460075460405163a9059cbb60e01b81526001600160a01b03918216600482015260248101879052929350169063a9059cbb906044016020604051808303816000875af115801561152f573d6000803e3d6000fd5b505050506040513d601f19601f820116820180604052508101906115539190611dc7565b5060025460085460405163a9059cbb60e01b81526001600160a01b0391821660048201526024810185905291169063a9059cbb906044016020604051808303816000875af11580156115a9573d6000803e3d6000fd5b505050506040513d601f19601f820116820180604052508101906115cd9190611dc7565b5060025460095460405163a9059cbb60e01b81526001600160a01b0391821660048201526024810184905291169063a9059cbb906044016020604051808303816000875af1158015611623573d6000803e3d6000fd5b505050506040513d601f19601f820116820180604052508101906116479190611dc7565b5083156116c957600254600a5460405163a9059cbb60e01b81526001600160a01b0391821660048201526024810187905291169063a9059cbb906044016020604051808303816000875af11580156116a3573d6000803e3d6000fd5b505050506040513d601f19601f820116820180604052508101906116c79190611dc7565b505b5050505050565b600c546000908190610d7590849070ffffffffffffffffffffffffffffffffff16611be6565b6001600160a01b038216600090815260146020526040812060010154819061171e9084611447565b9050600061172d600f546116d0565b905080821061173f5791506112989050565b509392505050565b6000805b6001600160a01b038316600090815260146020526040902060060154811015610ffb576001600160a01b038381166000908152601460205260409020600601805491861691839081106117a0576117a0611e81565b6000918252602090912001546001600160a01b0316036117c4576001915050611298565b806117ce81611dff565b91505061174b565b33600090815260146020526040902080546117f9906001600160a01b0316611178565b156118465760405162461bcd60e51b815260206004820152601860248201527f546f74616c2077616c6c65742054564c20726561636865640000000000000000604482015260640161046f565b80546001600160a01b03166000908152601460205260409020600701546118af5760405162461bcd60e51b815260206004820152601860248201527f4d75737420626520696e76657374656420746f2062616b650000000000000000604482015260640161046f565b81151560010361194d57600e5481546118d9906118d4906001600160a01b0316611383565b6113d2565b101561194d5760405162461bcd60e51b815260206004820152603360248201527f52657761726473206d75737420626520657175616c206f72206869676865722060448201527f7468616e2031204255534420746f2062616b6500000000000000000000000000606482015260840161046f565b60018101548154600090611969906001600160a01b0316611383565b8354909150600090611984906001600160a01b0316836116f6565b60018501819055426002860155600485015460408051868152602081018490529293506001600160a01b039091169133917f144eadb70fbf00231c7bb85902ea300bd9d39344bf8978d9838527f4e2b875ea910160405180910390a35050505050565b6000806119f383611336565b600c54909150610d75908290600160881b900463ffffffff16611be6565b6000610d758284611e97565b6001600160a01b038116611a995760405162461bcd60e51b815260206004820152602660248201527f4f776e61626c653a206e6577206f776e657220697320746865207a65726f206160448201527f6464726573730000000000000000000000000000000000000000000000000000606482015260840161046f565b600080546040516001600160a01b03808516939216917f8be0079c531659141344cd1fd0a4f28419497f9722a3daafe3b4186f6b6457e091a3600080546001600160a01b0319166001600160a01b0392909216919091179055565b6001600160a01b038116600090815260146020526040812060020154808203611b3557506001600160a01b0382166000908152601460205260409020600301545b80600003611b5b57506001600160a01b0382166000908152601460205260409020600701545b610d75428261140e565b6001600160a01b0381166000908152601460205260408120600101548190611b9b90611b95906305f5e100611a11565b856113f8565b600c54909150600090611bbc908390600160881b900463ffffffff16611be6565b90506000611bca8288611a11565b9050611bdb8164e8d4a51000611be6565b979650505050505050565b6000610d758284611eae565b600060208284031215611c0457600080fd5b5035919050565b80356001600160a01b0381168114611c2257600080fd5b919050565b600060208284031215611c3957600080fd5b610d7582611c0b565b6020808252825182820181905260009190848201906040850190845b81811015611c835783516001600160a01b031683529284019291840191600101611c5e565b50909695505050505050565b60008060408385031215611ca257600080fd5b611cab83611c0b565b946020939093013593505050565b600081518084526020808501945080840160005b83811015611cf25781516001600160a01b031687529582019590820190600101611ccd565b509495945050505050565b60208152611d176020820183516001600160a01b03169052565b60208201516040820152604082015160608201526060820151608082015260006080830151611d5160a08401826001600160a01b03169052565b5060a083015180151560c08401525060c08301516101608060e0850152611d7c610180850183611cb9565b915060e0850151610100601f198685030181870152611d9b8483611cb9565b908701516101208781019190915287015161014080880191909152909601519190940152509192915050565b600060208284031215611dd957600080fd5b81518015158114610d7557600080fd5b634e487b7160e01b600052601160045260246000fd5b600060018201611e1157611e11611de9565b5060010190565b634e487b7160e01b600052601260045260246000fd5b600082611e3d57611e3d611e18565b500690565b600060208284031215611e5457600080fd5b5051919050565b8181038181111561129857611298611de9565b8082018082111561129857611298611de9565b634e487b7160e01b600052603260045260246000fd5b808202811582820484141761129857611298611de9565b600082611ebd57611ebd611e18565b50049056fea264697066735822122086454d27f6985dc2fcef3128cb542fa79817f377a5133a86ce648d88ef65a44264736f6c63430008110033",
      "opcodes": "PUSH1 0x80 PUSH1 0x40 MSTORE PUSH1 0x1 DUP1 SLOAD PUSH1 0xFF PUSH1 0xA0 SHL NOT DUP2 AND SWAP1 SWAP2 SSTORE PUSH1 0x2 DUP1 SLOAD PUSH20 0xE9E7CEA3DEDCA5984780BAFC599BD69ADD087D56 PUSH1 0x1 PUSH1 0x1 PUSH1 0xA0 SHL SUB NOT SWAP2 DUP3 AND OR SWAP1 SWAP2 SSTORE PUSH1 0x3 DUP1 SLOAD PUSH20 0xCA4EE92973E4B06EBDACE430A2F380198F027B56 SWAP1 DUP4 AND DUP2 OR SWAP1 SWAP2 SSTORE PUSH1 0x4 DUP1 SLOAD PUSH20 0x62D563FE47C570D22C927A6B19183B5B6E77E945 SWAP1 DUP5 AND DUP2 OR SWAP1 SWAP2 SSTORE PUSH1 0x5 DUP1 SLOAD PUSH20 0x5F5FE741A43E9A2B9E4BC31583F71E15EBA30EF9 SWAP1 DUP6 AND DUP2 OR SWAP1 SWAP2 SSTORE PUSH1 0x6 DUP1 SLOAD PUSH20 0x644C002AB8222F198133AFE7A0046351BC80467D SWAP1 DUP7 AND DUP2 OR SWAP1 SWAP2 SSTORE PUSH1 0x7 DUP1 SLOAD DUP7 AND SWAP1 SWAP5 OR SWAP1 SWAP4 SSTORE PUSH1 0x8 DUP1 SLOAD DUP6 AND SWAP1 SWAP3 OR SWAP1 SWAP2 SSTORE PUSH1 0x9 DUP1 SLOAD DUP5 AND SWAP1 SWAP2 OR SWAP1 SSTORE PUSH1 0xA DUP1 SLOAD DUP4 AND SWAP1 SWAP2 OR SWAP1 SSTORE PUSH1 0xB DUP1 SLOAD PUSH1 0x1 PUSH1 0x1 PUSH1 0xA0 SHL SUB SWAP1 SWAP4 AND SWAP3 SWAP1 SWAP2 AND SWAP2 SWAP1 SWAP2 OR SWAP1 SSTORE PUSH1 0xC DUP1 SLOAD PUSH32 0xFF00000000000000000000000000000000000000000000000000000000000000 AND PUSH31 0x505420013000A05010100015180000000000000000000000000E8D4A51000 OR SWAP1 SSTORE PUSH9 0x56BC75E2D63100000 PUSH1 0xD SSTORE PUSH8 0x8AC7230489E80000 PUSH1 0xE SSTORE PUSH10 0x152D02C7E14AF6800000 PUSH1 0xF SSTORE PUSH10 0x1605D9EE98627100000 PUSH1 0x10 SSTORE PUSH9 0xAD78EBC5AC6200000 PUSH1 0x11 SSTORE CALLVALUE DUP1 ISZERO PUSH2 0x19E JUMPI PUSH1 0x0 DUP1 REVERT JUMPDEST POP PUSH1 0x0 DUP1 SLOAD PUSH1 0x1 PUSH1 0x1 PUSH1 0xA0 SHL SUB NOT AND CALLER SWAP1 DUP2 OR DUP3 SSTORE PUSH1 0x40 MLOAD SWAP1 SWAP2 DUP3 SWAP2 PUSH32 0x8BE0079C531659141344CD1FD0A4F28419497F9722A3DAAFE3B4186F6B6457E0 SWAP1 DUP3 SWAP1 LOG3 POP PUSH1 0x1 DUP1 SLOAD PUSH1 0x1 PUSH1 0x1 PUSH1 0xA0 SHL SUB NOT AND CALLER OR SWAP1 SSTORE PUSH2 0x1EF8 DUP1 PUSH2 0x201 PUSH1 0x0 CODECOPY PUSH1 0x0 RETURN INVALID PUSH1 0x80 PUSH1 0x40 MSTORE CALLVALUE DUP1 ISZERO PUSH2 0x10 JUMPI PUSH1 0x0 DUP1 REVERT JUMPDEST POP PUSH1 0x4 CALLDATASIZE LT PUSH2 0x1B9 JUMPI PUSH1 0x0 CALLDATALOAD PUSH1 0xE0 SHR DUP1 PUSH4 0x9703073C GT PUSH2 0xF9 JUMPI DUP1 PUSH4 0xD65CFBBE GT PUSH2 0x97 JUMPI DUP1 PUSH4 0xE72AABB5 GT PUSH2 0x71 JUMPI DUP1 PUSH4 0xE72AABB5 EQ PUSH2 0x39D JUMPI DUP1 PUSH4 0xEDB9A5C0 EQ PUSH2 0x3B0 JUMPI DUP1 PUSH4 0xF2FDE38B EQ PUSH2 0x3DE JUMPI DUP1 PUSH4 0xF5C9B7DA EQ PUSH2 0x3F1 JUMPI PUSH1 0x0 DUP1 REVERT JUMPDEST DUP1 PUSH4 0xD65CFBBE EQ PUSH2 0x364 JUMPI DUP1 PUSH4 0xE300E98B EQ PUSH2 0x377 JUMPI DUP1 PUSH4 0xE689C476 EQ PUSH2 0x38A JUMPI PUSH1 0x0 DUP1 REVERT JUMPDEST DUP1 PUSH4 0xAD06DE62 GT PUSH2 0xD3 JUMPI DUP1 PUSH4 0xAD06DE62 EQ PUSH2 0x32D JUMPI DUP1 PUSH4 0xB0DE262E EQ PUSH2 0x336 JUMPI DUP1 PUSH4 0xCB868F54 EQ PUSH2 0x33E JUMPI DUP1 PUSH4 0xD5E156DC EQ PUSH2 0x351 JUMPI PUSH1 0x0 DUP1 REVERT JUMPDEST DUP1 PUSH4 0x9703073C EQ PUSH2 0x2EF JUMPI DUP1 PUSH4 0x9EB32FDB EQ PUSH2 0x302 JUMPI DUP1 PUSH4 0xA70ED057 EQ PUSH2 0x30A JUMPI PUSH1 0x0 DUP1 REVERT JUMPDEST DUP1 PUSH4 0x733BA492 GT PUSH2 0x166 JUMPI DUP1 PUSH4 0x83C4C62B GT PUSH2 0x140 JUMPI DUP1 PUSH4 0x83C4C62B EQ PUSH2 0x2B0 JUMPI DUP1 PUSH4 0x8B7AFE2E EQ PUSH2 0x2C3 JUMPI DUP1 PUSH4 0x8DA5CB5B EQ PUSH2 0x2CB JUMPI DUP1 PUSH4 0x933F5D3F EQ PUSH2 0x2DC JUMPI PUSH1 0x0 DUP1 REVERT JUMPDEST DUP1 PUSH4 0x733BA492 EQ PUSH2 0x25C JUMPI DUP1 PUSH4 0x8055C217 EQ PUSH2 0x26F JUMPI DUP1 PUSH4 0x81E7E20E EQ PUSH2 0x290 JUMPI PUSH1 0x0 DUP1 REVERT JUMPDEST DUP1 PUSH4 0x5639E8CF GT PUSH2 0x197 JUMPI DUP1 PUSH4 0x5639E8CF EQ PUSH2 0x221 JUMPI DUP1 PUSH4 0x6B277E37 EQ PUSH2 0x234 JUMPI DUP1 PUSH4 0x715018A6 EQ PUSH2 0x254 JUMPI PUSH1 0x0 DUP1 REVERT JUMPDEST DUP1 PUSH4 0x6C18A31 EQ PUSH2 0x1BE JUMPI DUP1 PUSH4 0x340A2A4E EQ PUSH2 0x1EE JUMPI DUP1 PUSH4 0x3B0923AA EQ PUSH2 0x1F8 JUMPI JUMPDEST PUSH1 0x0 DUP1 REVERT JUMPDEST PUSH1 0x1 SLOAD PUSH2 0x1D1 SWAP1 PUSH1 0x1 PUSH1 0x1 PUSH1 0xA0 SHL SUB AND DUP2 JUMP JUMPDEST PUSH1 0x40 MLOAD PUSH1 0x1 PUSH1 0x1 PUSH1 0xA0 SHL SUB SWAP1 SWAP2 AND DUP2 MSTORE PUSH1 0x20 ADD JUMPDEST PUSH1 0x40 MLOAD DUP1 SWAP2 SUB SWAP1 RETURN JUMPDEST PUSH2 0x1F6 PUSH2 0x404 JUMP JUMPDEST STOP JUMPDEST PUSH2 0x1D1 PUSH2 0x206 CALLDATASIZE PUSH1 0x4 PUSH2 0x1BF2 JUMP JUMPDEST PUSH1 0x12 PUSH1 0x20 MSTORE PUSH1 0x0 SWAP1 DUP2 MSTORE PUSH1 0x40 SWAP1 KECCAK256 SLOAD PUSH1 0x1 PUSH1 0x1 PUSH1 0xA0 SHL SUB AND DUP2 JUMP JUMPDEST PUSH1 0x3 SLOAD PUSH2 0x1D1 SWAP1 PUSH1 0x1 PUSH1 0x1 PUSH1 0xA0 SHL SUB AND DUP2 JUMP JUMPDEST PUSH2 0x247 PUSH2 0x242 CALLDATASIZE PUSH1 0x4 PUSH2 0x1C27 JUMP JUMPDEST PUSH2 0x6DC JUMP JUMPDEST PUSH1 0x40 MLOAD PUSH2 0x1E5 SWAP2 SWAP1 PUSH2 0x1C42 JUMP JUMPDEST PUSH2 0x1F6 PUSH2 0x755 JUMP JUMPDEST PUSH2 0x1F6 PUSH2 0x26A CALLDATASIZE PUSH1 0x4 PUSH2 0x1C8F JUMP JUMPDEST PUSH2 0x7F9 JUMP JUMPDEST PUSH2 0x282 PUSH2 0x27D CALLDATASIZE PUSH1 0x4 PUSH2 0x1C27 JUMP JUMPDEST PUSH2 0xD4E JUMP JUMPDEST PUSH1 0x40 MLOAD SWAP1 DUP2 MSTORE PUSH1 0x20 ADD PUSH2 0x1E5 JUMP JUMPDEST PUSH2 0x2A3 PUSH2 0x29E CALLDATASIZE PUSH1 0x4 PUSH2 0x1C27 JUMP JUMPDEST PUSH2 0xD7C JUMP JUMPDEST PUSH1 0x40 MLOAD PUSH2 0x1E5 SWAP2 SWAP1 PUSH2 0x1CFD JUMP JUMPDEST PUSH2 0x282 PUSH2 0x2BE CALLDATASIZE PUSH1 0x4 PUSH2 0x1C27 JUMP JUMPDEST PUSH2 0xF3C JUMP JUMPDEST PUSH2 0x282 PUSH2 0x1005 JUMP JUMPDEST PUSH1 0x0 SLOAD PUSH1 0x1 PUSH1 0x1 PUSH1 0xA0 SHL SUB AND PUSH2 0x1D1 JUMP JUMPDEST PUSH1 0x5 SLOAD PUSH2 0x1D1 SWAP1 PUSH1 0x1 PUSH1 0x1 PUSH1 0xA0 SHL SUB AND DUP2 JUMP JUMPDEST PUSH2 0x247 PUSH2 0x2FD CALLDATASIZE PUSH1 0x4 PUSH2 0x1C27 JUMP JUMPDEST PUSH2 0x1077 JUMP JUMPDEST PUSH2 0x1F6 PUSH2 0x10EE JUMP JUMPDEST PUSH2 0x31D PUSH2 0x318 CALLDATASIZE PUSH1 0x4 PUSH2 0x1C27 JUMP JUMPDEST PUSH2 0x1178 JUMP JUMPDEST PUSH1 0x40 MLOAD SWAP1 ISZERO ISZERO DUP2 MSTORE PUSH1 0x20 ADD PUSH2 0x1E5 JUMP JUMPDEST PUSH2 0x282 PUSH1 0x13 SLOAD DUP2 JUMP JUMPDEST PUSH2 0x1F6 PUSH2 0x11AC JUMP JUMPDEST PUSH2 0x282 PUSH2 0x34C CALLDATASIZE PUSH1 0x4 PUSH2 0x1C27 JUMP JUMPDEST PUSH2 0x11B8 JUMP JUMPDEST PUSH1 0x6 SLOAD PUSH2 0x1D1 SWAP1 PUSH1 0x1 PUSH1 0x1 PUSH1 0xA0 SHL SUB AND DUP2 JUMP JUMPDEST PUSH2 0x282 PUSH2 0x372 CALLDATASIZE PUSH1 0x4 PUSH2 0x1C27 JUMP JUMPDEST PUSH2 0x1250 JUMP JUMPDEST PUSH2 0x282 PUSH2 0x385 CALLDATASIZE PUSH1 0x4 PUSH2 0x1C27 JUMP JUMPDEST PUSH2 0x1271 JUMP JUMPDEST PUSH1 0x4 SLOAD PUSH2 0x1D1 SWAP1 PUSH1 0x1 PUSH1 0x1 PUSH1 0xA0 SHL SUB AND DUP2 JUMP JUMPDEST PUSH2 0x31D PUSH2 0x3AB CALLDATASIZE PUSH1 0x4 PUSH2 0x1C27 JUMP JUMPDEST PUSH2 0x129E JUMP JUMPDEST PUSH2 0x31D PUSH2 0x3BE CALLDATASIZE PUSH1 0x4 PUSH2 0x1C27 JUMP JUMPDEST PUSH1 0x1 PUSH1 0x1 PUSH1 0xA0 SHL SUB AND PUSH1 0x0 SWAP1 DUP2 MSTORE PUSH1 0x14 PUSH1 0x20 MSTORE PUSH1 0x40 SWAP1 KECCAK256 PUSH1 0x7 ADD SLOAD ISZERO ISZERO SWAP1 JUMP JUMPDEST PUSH2 0x1F6 PUSH2 0x3EC CALLDATASIZE PUSH1 0x4 PUSH2 0x1C27 JUMP JUMPDEST PUSH2 0x12D0 JUMP JUMPDEST PUSH2 0x282 PUSH2 0x3FF CALLDATASIZE PUSH1 0x4 PUSH2 0x1C27 JUMP JUMPDEST PUSH2 0x1336 JUMP JUMPDEST CALLER PUSH1 0x0 SWAP1 DUP2 MSTORE PUSH1 0x14 PUSH1 0x20 MSTORE PUSH1 0x40 DUP1 DUP3 KECCAK256 DUP1 SLOAD PUSH1 0x1 PUSH1 0x1 PUSH1 0xA0 SHL SUB AND DUP4 MSTORE SWAP2 KECCAK256 PUSH1 0x7 ADD SLOAD PUSH2 0x478 JUMPI PUSH1 0x40 MLOAD PUSH3 0x461BCD PUSH1 0xE5 SHL DUP2 MSTORE PUSH1 0x20 PUSH1 0x4 DUP3 ADD MSTORE PUSH1 0x17 PUSH1 0x24 DUP3 ADD MSTORE PUSH32 0x4D75737420626520696E76657374656420746F20656174000000000000000000 PUSH1 0x44 DUP3 ADD MSTORE PUSH1 0x64 ADD JUMPDEST PUSH1 0x40 MLOAD DUP1 SWAP2 SUB SWAP1 REVERT JUMPDEST DUP1 SLOAD PUSH2 0x48C SWAP1 PUSH1 0x1 PUSH1 0x1 PUSH1 0xA0 SHL SUB AND PUSH2 0x129E JUMP JUMPDEST ISZERO PUSH2 0x4D9 JUMPI PUSH1 0x40 MLOAD PUSH3 0x461BCD PUSH1 0xE5 SHL DUP2 MSTORE PUSH1 0x20 PUSH1 0x4 DUP3 ADD MSTORE PUSH1 0x1B PUSH1 0x24 DUP3 ADD MSTORE PUSH32 0x596F7520686176652072656163686564206D6178207061796F75740000000000 PUSH1 0x44 DUP3 ADD MSTORE PUSH1 0x64 ADD PUSH2 0x46F JUMP JUMPDEST DUP1 SLOAD PUSH1 0x0 SWAP1 PUSH2 0x4F0 SWAP1 PUSH1 0x1 PUSH1 0x1 PUSH1 0xA0 SHL SUB AND PUSH2 0x1383 JUMP JUMPDEST SWAP1 POP PUSH1 0x0 PUSH2 0x4FD DUP3 PUSH2 0x13D2 JUMP JUMPDEST PUSH1 0xC SLOAD SWAP1 SWAP2 POP PUSH1 0x0 SWAP1 PUSH2 0x52F SWAP1 DUP4 SWAP1 PUSH24 0x10000000000000000000000000000000000000000000000 SWAP1 DIV PUSH1 0xFF AND PUSH2 0x13F8 JUMP JUMPDEST SWAP1 POP PUSH1 0x0 PUSH2 0x53D DUP4 DUP4 PUSH2 0x140E JUMP JUMPDEST DUP6 SLOAD SWAP1 SWAP2 POP PUSH1 0x0 SWAP1 PUSH2 0x558 SWAP1 PUSH1 0x1 PUSH1 0x1 PUSH1 0xA0 SHL SUB AND DUP4 PUSH2 0x141A JUMP JUMPDEST DUP7 SLOAD SWAP1 SWAP2 POP PUSH2 0x570 SWAP1 PUSH1 0x1 PUSH1 0x1 PUSH1 0xA0 SHL SUB AND DUP4 PUSH2 0x142E JUMP JUMPDEST DUP7 SLOAD SWAP1 SWAP3 POP PUSH2 0x587 SWAP1 PUSH1 0x1 PUSH1 0x1 PUSH1 0xA0 SHL SUB AND PUSH2 0x1271 JUMP JUMPDEST PUSH2 0x595 DUP6 DUP9 PUSH1 0x9 ADD SLOAD PUSH2 0x1447 JUMP JUMPDEST LT PUSH2 0x5DD JUMPI DUP6 SLOAD PUSH2 0x5BC SWAP1 PUSH2 0x5B2 SWAP1 PUSH1 0x1 PUSH1 0x1 PUSH1 0xA0 SHL SUB AND PUSH2 0x1271 JUMP JUMPDEST DUP8 PUSH1 0x9 ADD SLOAD PUSH2 0x140E JUMP JUMPDEST DUP7 SLOAD SWAP1 SWAP3 POP PUSH2 0x5D3 SWAP1 PUSH1 0x1 PUSH1 0x1 PUSH1 0xA0 SHL SUB AND PUSH2 0x1271 JUMP JUMPDEST PUSH1 0x9 DUP8 ADD SSTORE PUSH2 0x60C JUMP JUMPDEST DUP6 SLOAD PUSH1 0x0 SWAP1 PUSH2 0x5F5 SWAP1 PUSH1 0x1 PUSH1 0x1 PUSH1 0xA0 SHL SUB AND DUP7 PUSH2 0x142E JUMP JUMPDEST SWAP1 POP PUSH2 0x605 DUP8 PUSH1 0x9 ADD SLOAD DUP3 PUSH2 0x1447 JUMP JUMPDEST PUSH1 0x9 DUP9 ADD SSTORE POP JUMPDEST TIMESTAMP PUSH1 0x3 DUP8 ADD DUP2 SWAP1 SSTORE PUSH1 0x2 DUP8 ADD SSTORE PUSH2 0x623 DUP4 DUP3 PUSH2 0x1453 JUMP JUMPDEST PUSH1 0x2 SLOAD PUSH1 0x40 MLOAD PUSH4 0xA9059CBB PUSH1 0xE0 SHL DUP2 MSTORE CALLER PUSH1 0x4 DUP3 ADD MSTORE PUSH1 0x24 DUP2 ADD DUP5 SWAP1 MSTORE PUSH1 0x1 PUSH1 0x1 PUSH1 0xA0 SHL SUB SWAP1 SWAP2 AND SWAP1 PUSH4 0xA9059CBB SWAP1 PUSH1 0x44 ADD PUSH1 0x20 PUSH1 0x40 MLOAD DUP1 DUP4 SUB DUP2 PUSH1 0x0 DUP8 GAS CALL ISZERO DUP1 ISZERO PUSH2 0x674 JUMPI RETURNDATASIZE PUSH1 0x0 DUP1 RETURNDATACOPY RETURNDATASIZE PUSH1 0x0 REVERT JUMPDEST POP POP POP POP PUSH1 0x40 MLOAD RETURNDATASIZE PUSH1 0x1F NOT PUSH1 0x1F DUP3 ADD AND DUP3 ADD DUP1 PUSH1 0x40 MSTORE POP DUP2 ADD SWAP1 PUSH2 0x698 SWAP2 SWAP1 PUSH2 0x1DC7 JUMP JUMPDEST POP PUSH1 0x40 DUP1 MLOAD DUP4 DUP2 MSTORE PUSH1 0x20 DUP2 ADD DUP8 SWAP1 MSTORE CALLER SWAP2 PUSH32 0xB113E92E5ECC8D9BE9DDB22E2542CBF1ED96CE65136EBEC77021E72CE8AF16ED SWAP2 ADD PUSH1 0x40 MLOAD DUP1 SWAP2 SUB SWAP1 LOG2 POP POP POP POP POP POP JUMP JUMPDEST PUSH1 0x1 PUSH1 0x1 PUSH1 0xA0 SHL SUB DUP2 AND PUSH1 0x0 SWAP1 DUP2 MSTORE PUSH1 0x14 PUSH1 0x20 SWAP1 DUP2 MSTORE PUSH1 0x40 SWAP2 DUP3 SWAP1 KECCAK256 PUSH1 0x5 ADD DUP1 SLOAD DUP4 MLOAD DUP2 DUP5 MUL DUP2 ADD DUP5 ADD SWAP1 SWAP5 MSTORE DUP1 DUP5 MSTORE PUSH1 0x60 SWAP4 SWAP3 DUP4 ADD DUP3 DUP3 DUP1 ISZERO PUSH2 0x749 JUMPI PUSH1 0x20 MUL DUP3 ADD SWAP2 SWAP1 PUSH1 0x0 MSTORE PUSH1 0x20 PUSH1 0x0 KECCAK256 SWAP1 JUMPDEST DUP2 SLOAD PUSH1 0x1 PUSH1 0x1 PUSH1 0xA0 SHL SUB AND DUP2 MSTORE PUSH1 0x1 SWAP1 SWAP2 ADD SWAP1 PUSH1 0x20 ADD DUP1 DUP4 GT PUSH2 0x72B JUMPI JUMPDEST POP POP POP POP POP SWAP1 POP SWAP2 SWAP1 POP JUMP JUMPDEST PUSH1 0x0 SLOAD PUSH1 0x1 PUSH1 0x1 PUSH1 0xA0 SHL SUB AND CALLER EQ PUSH2 0x7AF JUMPI PUSH1 0x40 MLOAD PUSH3 0x461BCD PUSH1 0xE5 SHL DUP2 MSTORE PUSH1 0x20 PUSH1 0x4 DUP3 ADD DUP2 SWAP1 MSTORE PUSH1 0x24 DUP3 ADD MSTORE PUSH32 0x4F776E61626C653A2063616C6C6572206973206E6F7420746865206F776E6572 PUSH1 0x44 DUP3 ADD MSTORE PUSH1 0x64 ADD PUSH2 0x46F JUMP JUMPDEST PUSH1 0x0 DUP1 SLOAD PUSH1 0x40 MLOAD PUSH1 0x1 PUSH1 0x1 PUSH1 0xA0 SHL SUB SWAP1 SWAP2 AND SWAP1 PUSH32 0x8BE0079C531659141344CD1FD0A4F28419497F9722A3DAAFE3B4186F6B6457E0 SWAP1 DUP4 SWAP1 LOG3 PUSH1 0x0 DUP1 SLOAD PUSH1 0x1 PUSH1 0x1 PUSH1 0xA0 SHL SUB NOT AND SWAP1 SSTORE JUMP JUMPDEST PUSH1 0x1 SLOAD PUSH1 0x1 PUSH1 0xA0 SHL SWAP1 DIV PUSH1 0xFF AND PUSH2 0x80F JUMPI PUSH1 0x0 DUP1 REVERT JUMPDEST CALLER PUSH1 0x0 SWAP1 DUP2 MSTORE PUSH1 0x14 PUSH1 0x20 MSTORE PUSH1 0x40 DUP1 DUP3 KECCAK256 PUSH1 0x1 PUSH1 0x1 PUSH1 0xA0 SHL SUB DUP6 AND DUP4 MSTORE SWAP2 KECCAK256 PUSH1 0xD SLOAD DUP4 LT ISZERO PUSH2 0x8A5 JUMPI PUSH1 0x40 MLOAD PUSH3 0x461BCD PUSH1 0xE5 SHL DUP2 MSTORE PUSH1 0x20 PUSH1 0x4 DUP3 ADD MSTORE PUSH1 0x2D PUSH1 0x24 DUP3 ADD MSTORE PUSH32 0x4465706F73697420646F65736E2774206D65657420746865206D696E696D756D PUSH1 0x44 DUP3 ADD MSTORE PUSH32 0x20726571756972656D656E747300000000000000000000000000000000000000 PUSH1 0x64 DUP3 ADD MSTORE PUSH1 0x84 ADD PUSH2 0x46F JUMP JUMPDEST PUSH1 0xF SLOAD PUSH2 0x8B6 DUP4 PUSH1 0x8 ADD SLOAD DUP6 PUSH2 0x1447 JUMP JUMPDEST GT ISZERO PUSH2 0x904 JUMPI PUSH1 0x40 MLOAD PUSH3 0x461BCD PUSH1 0xE5 SHL DUP2 MSTORE PUSH1 0x20 PUSH1 0x4 DUP3 ADD MSTORE PUSH1 0x19 PUSH1 0x24 DUP3 ADD MSTORE PUSH32 0x4D617820746F74616C206465706F736974207265616368656400000000000000 PUSH1 0x44 DUP3 ADD MSTORE PUSH1 0x64 ADD PUSH2 0x46F JUMP JUMPDEST PUSH1 0x1 PUSH1 0x1 PUSH1 0xA0 SHL SUB DUP5 AND ISZERO DUP1 PUSH2 0x922 JUMPI POP PUSH1 0x1 PUSH1 0x1 PUSH1 0xA0 SHL SUB DUP5 AND CALLER EQ JUMPDEST DUP1 PUSH2 0x948 JUMPI POP DUP1 SLOAD PUSH1 0x1 PUSH1 0x1 PUSH1 0xA0 SHL SUB AND PUSH1 0x0 SWAP1 DUP2 MSTORE PUSH1 0x14 PUSH1 0x20 MSTORE PUSH1 0x40 SWAP1 KECCAK256 PUSH1 0x7 ADD SLOAD ISZERO ISZERO JUMPDEST PUSH2 0x9BA JUMPI PUSH1 0x40 MLOAD PUSH3 0x461BCD PUSH1 0xE5 SHL DUP2 MSTORE PUSH1 0x20 PUSH1 0x4 DUP3 ADD MSTORE PUSH1 0x25 PUSH1 0x24 DUP3 ADD MSTORE PUSH32 0x526566206D75737420626520696E766573746F7220746F207365742061732075 PUSH1 0x44 DUP3 ADD MSTORE PUSH32 0x706C696E65000000000000000000000000000000000000000000000000000000 PUSH1 0x64 DUP3 ADD MSTORE PUSH1 0x84 ADD PUSH2 0x46F JUMP JUMPDEST PUSH1 0x2 SLOAD PUSH1 0x40 MLOAD PUSH4 0x23B872DD PUSH1 0xE0 SHL DUP2 MSTORE CALLER PUSH1 0x4 DUP3 ADD MSTORE ADDRESS PUSH1 0x24 DUP3 ADD MSTORE PUSH1 0x44 DUP2 ADD DUP6 SWAP1 MSTORE PUSH1 0x1 PUSH1 0x1 PUSH1 0xA0 SHL SUB SWAP1 SWAP2 AND SWAP1 PUSH4 0x23B872DD SWAP1 PUSH1 0x64 ADD PUSH1 0x20 PUSH1 0x40 MLOAD DUP1 DUP4 SUB DUP2 PUSH1 0x0 DUP8 GAS CALL ISZERO DUP1 ISZERO PUSH2 0xA11 JUMPI RETURNDATASIZE PUSH1 0x0 DUP1 RETURNDATACOPY RETURNDATASIZE PUSH1 0x0 REVERT JUMPDEST POP POP POP POP PUSH1 0x40 MLOAD RETURNDATASIZE PUSH1 0x1F NOT PUSH1 0x1F DUP3 ADD AND DUP3 ADD DUP1 PUSH1 0x40 MSTORE POP DUP2 ADD SWAP1 PUSH2 0xA35 SWAP2 SWAP1 PUSH2 0x1DC7 JUMP JUMPDEST POP DUP2 SLOAD PUSH1 0x1 PUSH1 0x1 PUSH1 0xA0 SHL SUB NOT AND CALLER OR DUP3 SSTORE PUSH1 0x1 DUP3 ADD SLOAD PUSH1 0xC SLOAD PUSH1 0x0 SWAP1 PUSH2 0xA79 SWAP1 DUP7 SWAP1 PUSH1 0xFF PUSH22 0x1000000000000000000000000000000000000000000 SWAP1 SWAP2 DIV AND PUSH2 0x13F8 JUMP JUMPDEST SWAP1 POP PUSH1 0x0 PUSH2 0xA87 DUP7 DUP4 PUSH2 0x140E JUMP JUMPDEST SWAP1 POP PUSH1 0x0 PUSH2 0xA94 DUP3 PUSH2 0x16D0 JUMP JUMPDEST DUP7 SLOAD SWAP1 SWAP2 POP PUSH1 0x0 SWAP1 PUSH2 0xAAF SWAP1 PUSH1 0x1 PUSH1 0x1 PUSH1 0xA0 SHL SUB AND DUP4 PUSH2 0x16F6 JUMP JUMPDEST PUSH1 0x1 DUP9 ADD DUP2 SWAP1 SSTORE PUSH1 0x4 DUP9 ADD SLOAD SWAP1 SWAP2 POP PUSH1 0x1 PUSH1 0xA0 SHL SWAP1 DIV PUSH1 0xFF AND ISZERO DUP1 ISZERO PUSH2 0xADE JUMPI POP PUSH1 0x1 PUSH1 0x1 PUSH1 0xA0 SHL SUB DUP10 AND CALLER EQ ISZERO JUMPDEST DUP1 ISZERO PUSH2 0xAF2 JUMPI POP PUSH1 0x1 PUSH1 0x1 PUSH1 0xA0 SHL SUB DUP10 AND ISZERO ISZERO JUMPDEST DUP1 ISZERO PUSH2 0xB0B JUMPI POP PUSH1 0x4 DUP8 ADD SLOAD PUSH1 0x1 PUSH1 0x1 PUSH1 0xA0 SHL SUB AND CALLER EQ ISZERO JUMPDEST ISZERO PUSH2 0xBE6 JUMPI PUSH1 0x4 DUP8 ADD DUP1 SLOAD PUSH32 0xFFFFFFFFFFFFFFFFFFFFFF000000000000000000000000000000000000000000 AND PUSH1 0x1 PUSH1 0x1 PUSH1 0xA0 SHL SUB DUP1 DUP13 AND SWAP2 SWAP1 SWAP2 OR PUSH1 0x1 PUSH1 0xA0 SHL OR SWAP1 SWAP2 SSTORE PUSH1 0x5 DUP8 ADD DUP1 SLOAD PUSH1 0x1 DUP2 ADD DUP3 SSTORE PUSH1 0x0 SWAP2 DUP3 MSTORE PUSH1 0x20 SWAP1 SWAP2 KECCAK256 ADD DUP1 SLOAD PUSH1 0x1 PUSH1 0x1 PUSH1 0xA0 SHL SUB NOT AND CALLER OR SWAP1 SSTORE DUP8 SLOAD PUSH2 0xB9E SWAP2 AND PUSH1 0x1 PUSH1 0x1 PUSH1 0xA0 SHL SUB AND PUSH1 0x0 SWAP1 DUP2 MSTORE PUSH1 0x14 PUSH1 0x20 MSTORE PUSH1 0x40 SWAP1 KECCAK256 PUSH1 0x7 ADD SLOAD ISZERO ISZERO SWAP1 JUMP JUMPDEST ISZERO ISZERO PUSH1 0x0 SUB PUSH2 0xBE6 JUMPI PUSH1 0x0 PUSH2 0xBC7 PUSH2 0xBB5 DUP11 PUSH2 0x16D0 JUMP JUMPDEST PUSH1 0xC SLOAD PUSH1 0x1 PUSH1 0xF0 SHL SWAP1 DIV PUSH1 0xFF AND PUSH2 0x13F8 JUMP JUMPDEST DUP8 SLOAD SWAP1 SWAP2 POP PUSH2 0xBDF SWAP1 PUSH1 0x1 PUSH1 0x1 PUSH1 0xA0 SHL SUB AND DUP3 PUSH2 0x16F6 JUMP JUMPDEST PUSH1 0x1 DUP9 ADD SSTORE POP JUMPDEST DUP7 SLOAD PUSH1 0x1 PUSH1 0x1 PUSH1 0xA0 SHL SUB AND PUSH1 0x0 SWAP1 DUP2 MSTORE PUSH1 0x14 PUSH1 0x20 MSTORE PUSH1 0x40 DUP2 KECCAK256 PUSH1 0x7 ADD SLOAD ISZERO ISZERO SWAP1 SUB PUSH2 0xC55 JUMPI TIMESTAMP PUSH1 0x7 DUP9 ADD SSTORE DUP7 SLOAD PUSH1 0x13 DUP1 SLOAD PUSH1 0x0 SWAP1 DUP2 MSTORE PUSH1 0x12 PUSH1 0x20 MSTORE PUSH1 0x40 DUP2 KECCAK256 DUP1 SLOAD PUSH1 0x1 PUSH1 0x1 PUSH1 0xA0 SHL SUB NOT AND PUSH1 0x1 PUSH1 0x1 PUSH1 0xA0 SHL SUB SWAP1 SWAP5 AND SWAP4 SWAP1 SWAP4 OR SWAP1 SWAP3 SSTORE DUP1 SLOAD SWAP2 PUSH2 0xC4F DUP4 PUSH2 0x1DFF JUMP JUMPDEST SWAP2 SWAP1 POP SSTORE POP JUMPDEST PUSH2 0xC63 DUP8 PUSH1 0x8 ADD SLOAD DUP10 PUSH2 0x1447 JUMP JUMPDEST PUSH1 0x8 DUP9 ADD SSTORE PUSH1 0x4 DUP8 ADD SLOAD PUSH1 0x1 PUSH1 0xA0 SHL SWAP1 DIV PUSH1 0xFF AND DUP1 ISZERO PUSH2 0xC89 JUMPI POP PUSH1 0x11 SLOAD DUP8 PUSH1 0x8 ADD SLOAD LT ISZERO JUMPDEST DUP1 ISZERO PUSH2 0xCAF JUMPI POP DUP7 SLOAD PUSH1 0x4 DUP9 ADD SLOAD PUSH2 0xCAD SWAP2 PUSH1 0x1 PUSH1 0x1 PUSH1 0xA0 SHL SUB SWAP1 DUP2 AND SWAP2 AND PUSH2 0x1747 JUMP JUMPDEST ISZERO JUMPDEST ISZERO PUSH2 0xCDC JUMPI PUSH1 0x6 DUP7 ADD DUP1 SLOAD PUSH1 0x1 DUP2 ADD DUP3 SSTORE PUSH1 0x0 SWAP2 DUP3 MSTORE PUSH1 0x20 SWAP1 SWAP2 KECCAK256 ADD DUP1 SLOAD PUSH1 0x1 PUSH1 0x1 PUSH1 0xA0 SHL SUB NOT AND CALLER OR SWAP1 SSTORE JUMPDEST PUSH2 0xCE7 DUP5 PUSH1 0x0 PUSH2 0x1453 JUMP JUMPDEST PUSH2 0xCF1 PUSH1 0x0 PUSH2 0x17D6 JUMP JUMPDEST PUSH1 0x1 DUP8 ADD SLOAD PUSH1 0x40 DUP1 MLOAD DUP11 DUP2 MSTORE PUSH1 0x20 DUP2 ADD DUP9 SWAP1 MSTORE DUP1 DUP3 ADD SWAP3 SWAP1 SWAP3 MSTORE MLOAD PUSH1 0x1 PUSH1 0x1 PUSH1 0xA0 SHL SUB DUP12 AND SWAP2 CALLER SWAP2 PUSH32 0x8879552D239927199FFD503B3778D279FEA6D215E50781BD537B8B6400483E43 SWAP2 DUP2 SWAP1 SUB PUSH1 0x60 ADD SWAP1 LOG3 POP POP POP POP POP POP POP POP POP JUMP JUMPDEST PUSH1 0x1 PUSH1 0x1 PUSH1 0xA0 SHL SUB DUP2 AND PUSH1 0x0 SWAP1 DUP2 MSTORE PUSH1 0x14 PUSH1 0x20 MSTORE PUSH1 0x40 DUP2 KECCAK256 PUSH1 0x1 ADD SLOAD DUP2 SWAP1 PUSH2 0xD75 SWAP1 PUSH2 0x13D2 JUMP JUMPDEST SWAP4 SWAP3 POP POP POP JUMP JUMPDEST PUSH2 0xDED PUSH1 0x40 MLOAD DUP1 PUSH2 0x160 ADD PUSH1 0x40 MSTORE DUP1 PUSH1 0x0 PUSH1 0x1 PUSH1 0x1 PUSH1 0xA0 SHL SUB AND DUP2 MSTORE PUSH1 0x20 ADD PUSH1 0x0 DUP2 MSTORE PUSH1 0x20 ADD PUSH1 0x0 DUP2 MSTORE PUSH1 0x20 ADD PUSH1 0x0 DUP2 MSTORE PUSH1 0x20 ADD PUSH1 0x0 PUSH1 0x1 PUSH1 0x1 PUSH1 0xA0 SHL SUB AND DUP2 MSTORE PUSH1 0x20 ADD PUSH1 0x0 ISZERO ISZERO DUP2 MSTORE PUSH1 0x20 ADD PUSH1 0x60 DUP2 MSTORE PUSH1 0x20 ADD PUSH1 0x60 DUP2 MSTORE PUSH1 0x20 ADD PUSH1 0x0 DUP2 MSTORE PUSH1 0x20 ADD PUSH1 0x0 DUP2 MSTORE PUSH1 0x20 ADD PUSH1 0x0 DUP2 MSTORE POP SWAP1 JUMP JUMPDEST PUSH1 0x1 PUSH1 0x1 PUSH1 0xA0 SHL SUB DUP3 DUP2 AND PUSH1 0x0 SWAP1 DUP2 MSTORE PUSH1 0x14 PUSH1 0x20 SWAP1 DUP2 MSTORE PUSH1 0x40 SWAP2 DUP3 SWAP1 KECCAK256 DUP3 MLOAD PUSH2 0x160 DUP2 ADD DUP5 MSTORE DUP2 SLOAD DUP6 AND DUP2 MSTORE PUSH1 0x1 DUP3 ADD SLOAD DUP2 DUP5 ADD MSTORE PUSH1 0x2 DUP3 ADD SLOAD DUP2 DUP6 ADD MSTORE PUSH1 0x3 DUP3 ADD SLOAD PUSH1 0x60 DUP3 ADD MSTORE PUSH1 0x4 DUP3 ADD SLOAD SWAP5 DUP6 AND PUSH1 0x80 DUP3 ADD MSTORE PUSH1 0x1 PUSH1 0xA0 SHL SWAP1 SWAP5 DIV PUSH1 0xFF AND ISZERO ISZERO PUSH1 0xA0 DUP6 ADD MSTORE PUSH1 0x5 DUP2 ADD DUP1 SLOAD DUP5 MLOAD DUP2 DUP6 MUL DUP2 ADD DUP6 ADD SWAP1 SWAP6 MSTORE DUP1 DUP6 MSTORE SWAP2 SWAP4 PUSH1 0xC0 DUP7 ADD SWAP4 SWAP1 SWAP3 SWAP1 DUP4 ADD DUP3 DUP3 DUP1 ISZERO PUSH2 0xEAC JUMPI PUSH1 0x20 MUL DUP3 ADD SWAP2 SWAP1 PUSH1 0x0 MSTORE PUSH1 0x20 PUSH1 0x0 KECCAK256 SWAP1 JUMPDEST DUP2 SLOAD PUSH1 0x1 PUSH1 0x1 PUSH1 0xA0 SHL SUB AND DUP2 MSTORE PUSH1 0x1 SWAP1 SWAP2 ADD SWAP1 PUSH1 0x20 ADD DUP1 DUP4 GT PUSH2 0xE8E JUMPI JUMPDEST POP POP POP POP POP DUP2 MSTORE PUSH1 0x20 ADD PUSH1 0x6 DUP3 ADD DUP1 SLOAD DUP1 PUSH1 0x20 MUL PUSH1 0x20 ADD PUSH1 0x40 MLOAD SWAP1 DUP2 ADD PUSH1 0x40 MSTORE DUP1 SWAP3 SWAP2 SWAP1 DUP2 DUP2 MSTORE PUSH1 0x20 ADD DUP3 DUP1 SLOAD DUP1 ISZERO PUSH2 0xF0E JUMPI PUSH1 0x20 MUL DUP3 ADD SWAP2 SWAP1 PUSH1 0x0 MSTORE PUSH1 0x20 PUSH1 0x0 KECCAK256 SWAP1 JUMPDEST DUP2 SLOAD PUSH1 0x1 PUSH1 0x1 PUSH1 0xA0 SHL SUB AND DUP2 MSTORE PUSH1 0x1 SWAP1 SWAP2 ADD SWAP1 PUSH1 0x20 ADD DUP1 DUP4 GT PUSH2 0xEF0 JUMPI JUMPDEST POP POP POP POP POP DUP2 MSTORE PUSH1 0x20 ADD PUSH1 0x7 DUP3 ADD SLOAD DUP2 MSTORE PUSH1 0x20 ADD PUSH1 0x8 DUP3 ADD SLOAD DUP2 MSTORE PUSH1 0x20 ADD PUSH1 0x9 DUP3 ADD SLOAD DUP2 MSTORE POP POP SWAP1 POP SWAP2 SWAP1 POP JUMP JUMPDEST PUSH1 0x0 DUP1 PUSH2 0xF48 DUP4 PUSH2 0x19E7 JUMP JUMPDEST SWAP1 POP PUSH1 0x0 PUSH2 0xF57 PUSH1 0xA DUP4 PUSH2 0x1E2E JUMP JUMPDEST SWAP1 POP PUSH1 0x0 DUP2 GT PUSH2 0xF6B JUMPI POP PUSH1 0x5A SWAP4 SWAP3 POP POP POP JUMP JUMPDEST PUSH1 0x1 DUP2 GT PUSH2 0xF7D JUMPI POP PUSH1 0x50 SWAP4 SWAP3 POP POP POP JUMP JUMPDEST PUSH1 0x2 DUP2 GT PUSH2 0xF8F JUMPI POP PUSH1 0x46 SWAP4 SWAP3 POP POP POP JUMP JUMPDEST PUSH1 0x3 DUP2 GT PUSH2 0xFA1 JUMPI POP PUSH1 0x3C SWAP4 SWAP3 POP POP POP JUMP JUMPDEST PUSH1 0x4 DUP2 GT PUSH2 0xFB3 JUMPI POP PUSH1 0x32 SWAP4 SWAP3 POP POP POP JUMP JUMPDEST PUSH1 0x5 DUP2 GT PUSH2 0xFC5 JUMPI POP PUSH1 0x28 SWAP4 SWAP3 POP POP POP JUMP JUMPDEST PUSH1 0x6 DUP2 GT PUSH2 0xFD7 JUMPI POP PUSH1 0x1E SWAP4 SWAP3 POP POP POP JUMP JUMPDEST PUSH1 0x7 DUP2 GT PUSH2 0xFE9 JUMPI POP PUSH1 0x14 SWAP4 SWAP3 POP POP POP JUMP JUMPDEST PUSH1 0x8 DUP2 GT PUSH2 0xFFB JUMPI POP PUSH1 0xA SWAP4 SWAP3 POP POP POP JUMP JUMPDEST POP PUSH1 0x0 SWAP4 SWAP3 POP POP POP JUMP JUMPDEST PUSH1 0x2 SLOAD PUSH1 0x40 MLOAD PUSH4 0x70A08231 PUSH1 0xE0 SHL DUP2 MSTORE ADDRESS PUSH1 0x4 DUP3 ADD MSTORE PUSH1 0x0 SWAP2 PUSH1 0x1 PUSH1 0x1 PUSH1 0xA0 SHL SUB AND SWAP1 PUSH4 0x70A08231 SWAP1 PUSH1 0x24 ADD PUSH1 0x20 PUSH1 0x40 MLOAD DUP1 DUP4 SUB DUP2 DUP7 GAS STATICCALL ISZERO DUP1 ISZERO PUSH2 0x104E JUMPI RETURNDATASIZE PUSH1 0x0 DUP1 RETURNDATACOPY RETURNDATASIZE PUSH1 0x0 REVERT JUMPDEST POP POP POP POP PUSH1 0x40 MLOAD RETURNDATASIZE PUSH1 0x1F NOT PUSH1 0x1F DUP3 ADD AND DUP3 ADD DUP1 PUSH1 0x40 MSTORE POP DUP2 ADD SWAP1 PUSH2 0x1072 SWAP2 SWAP1 PUSH2 0x1E42 JUMP JUMPDEST SWAP1 POP SWAP1 JUMP JUMPDEST PUSH1 0x1 PUSH1 0x1 PUSH1 0xA0 SHL SUB DUP2 AND PUSH1 0x0 SWAP1 DUP2 MSTORE PUSH1 0x14 PUSH1 0x20 SWAP1 DUP2 MSTORE PUSH1 0x40 SWAP2 DUP3 SWAP1 KECCAK256 PUSH1 0x6 ADD DUP1 SLOAD DUP4 MLOAD DUP2 DUP5 MUL DUP2 ADD DUP5 ADD SWAP1 SWAP5 MSTORE DUP1 DUP5 MSTORE PUSH1 0x60 SWAP4 SWAP3 DUP4 ADD DUP3 DUP3 DUP1 ISZERO PUSH2 0x749 JUMPI PUSH1 0x20 MUL DUP3 ADD SWAP2 SWAP1 PUSH1 0x0 MSTORE PUSH1 0x20 PUSH1 0x0 KECCAK256 SWAP1 DUP2 SLOAD PUSH1 0x1 PUSH1 0x1 PUSH1 0xA0 SHL SUB AND DUP2 MSTORE PUSH1 0x1 SWAP1 SWAP2 ADD SWAP1 PUSH1 0x20 ADD DUP1 DUP4 GT PUSH2 0x72B JUMPI POP POP POP POP POP SWAP1 POP SWAP2 SWAP1 POP JUMP JUMPDEST PUSH1 0x0 SLOAD PUSH1 0x1 PUSH1 0x1 PUSH1 0xA0 SHL SUB AND CALLER EQ PUSH2 0x1148 JUMPI PUSH1 0x40 MLOAD PUSH3 0x461BCD PUSH1 0xE5 SHL DUP2 MSTORE PUSH1 0x20 PUSH1 0x4 DUP3 ADD DUP2 SWAP1 MSTORE PUSH1 0x24 DUP3 ADD MSTORE PUSH32 0x4F776E61626C653A2063616C6C6572206973206E6F7420746865206F776E6572 PUSH1 0x44 DUP3 ADD MSTORE PUSH1 0x64 ADD PUSH2 0x46F JUMP JUMPDEST PUSH1 0x1 DUP1 SLOAD PUSH32 0xFFFFFFFFFFFFFFFFFFFFFF00FFFFFFFFFFFFFFFFFFFFFFFFFFFFFFFFFFFFFFFF AND PUSH1 0x1 PUSH1 0xA0 SHL OR SWAP1 SSTORE JUMP JUMPDEST PUSH1 0x0 PUSH2 0x1185 PUSH1 0xF SLOAD PUSH2 0x16D0 JUMP JUMPDEST PUSH1 0x1 PUSH1 0x1 PUSH1 0xA0 SHL SUB SWAP1 SWAP3 AND PUSH1 0x0 SWAP1 DUP2 MSTORE PUSH1 0x14 PUSH1 0x20 MSTORE PUSH1 0x40 SWAP1 KECCAK256 PUSH1 0x1 ADD SLOAD SWAP2 SWAP1 SWAP2 LT ISZERO SWAP2 SWAP1 POP JUMP JUMPDEST PUSH2 0x11B6 PUSH1 0x1 PUSH2 0x17D6 JUMP JUMPDEST JUMP JUMPDEST PUSH1 0x1 PUSH1 0x1 PUSH1 0xA0 SHL SUB DUP2 AND PUSH1 0x0 SWAP1 DUP2 MSTORE PUSH1 0x14 PUSH1 0x20 MSTORE PUSH1 0x40 DUP2 KECCAK256 PUSH1 0x6 ADD SLOAD PUSH1 0xA DUP2 LT ISZERO PUSH2 0x11E7 JUMPI POP PUSH2 0x88B8 SWAP3 SWAP2 POP POP JUMP JUMPDEST PUSH1 0x19 DUP2 LT ISZERO PUSH2 0x11FA JUMPI POP PUSH2 0x9C40 SWAP3 SWAP2 POP POP JUMP JUMPDEST PUSH1 0x32 DUP2 LT ISZERO PUSH2 0x120D JUMPI POP PUSH2 0xAFC8 SWAP3 SWAP2 POP POP JUMP JUMPDEST PUSH1 0x64 DUP2 LT ISZERO PUSH2 0x1220 JUMPI POP PUSH2 0xC350 SWAP3 SWAP2 POP POP JUMP JUMPDEST PUSH1 0x96 DUP2 LT ISZERO PUSH2 0x1233 JUMPI POP PUSH2 0xD6D8 SWAP3 SWAP2 POP POP JUMP JUMPDEST PUSH1 0xFA DUP2 LT ISZERO PUSH2 0x1246 JUMPI POP PUSH2 0xEA60 SWAP3 SWAP2 POP POP JUMP JUMPDEST POP PUSH2 0xFDE8 SWAP3 SWAP2 POP POP JUMP JUMPDEST PUSH1 0x0 DUP1 PUSH2 0x125C DUP4 PUSH2 0x1383 JUMP JUMPDEST SWAP1 POP PUSH1 0x0 PUSH2 0x1269 DUP3 PUSH2 0x13D2 JUMP JUMPDEST SWAP5 SWAP4 POP POP POP POP JUMP JUMPDEST PUSH1 0x1 PUSH1 0x1 PUSH1 0xA0 SHL SUB DUP2 AND PUSH1 0x0 SWAP1 DUP2 MSTORE PUSH1 0x14 PUSH1 0x20 MSTORE PUSH1 0x40 DUP2 KECCAK256 PUSH1 0x8 ADD SLOAD PUSH2 0x1298 SWAP1 PUSH1 0x3 PUSH2 0x1A11 JUMP JUMPDEST SWAP3 SWAP2 POP POP JUMP JUMPDEST PUSH1 0x0 PUSH2 0x12A9 DUP3 PUSH2 0x1271 JUMP JUMPDEST PUSH1 0x1 PUSH1 0x1 PUSH1 0xA0 SHL SUB SWAP1 SWAP3 AND PUSH1 0x0 SWAP1 DUP2 MSTORE PUSH1 0x14 PUSH1 0x20 MSTORE PUSH1 0x40 SWAP1 KECCAK256 PUSH1 0x9 ADD SLOAD SWAP2 SWAP1 SWAP2 LT ISZERO SWAP2 SWAP1 POP JUMP JUMPDEST PUSH1 0x0 SLOAD PUSH1 0x1 PUSH1 0x1 PUSH1 0xA0 SHL SUB AND CALLER EQ PUSH2 0x132A JUMPI PUSH1 0x40 MLOAD PUSH3 0x461BCD PUSH1 0xE5 SHL DUP2 MSTORE PUSH1 0x20 PUSH1 0x4 DUP3 ADD DUP2 SWAP1 MSTORE PUSH1 0x24 DUP3 ADD MSTORE PUSH32 0x4F776E61626C653A2063616C6C6572206973206E6F7420746865206F776E6572 PUSH1 0x44 DUP3 ADD MSTORE PUSH1 0x64 ADD PUSH2 0x46F JUMP JUMPDEST PUSH2 0x1333 DUP2 PUSH2 0x1A1D JUMP JUMPDEST POP JUMP JUMPDEST PUSH1 0x1 PUSH1 0x1 PUSH1 0xA0 SHL SUB DUP2 AND PUSH1 0x0 SWAP1 DUP2 MSTORE PUSH1 0x14 PUSH1 0x20 MSTORE PUSH1 0x40 DUP2 KECCAK256 PUSH1 0x3 ADD SLOAD DUP1 DUP3 SUB PUSH2 0x1377 JUMPI POP PUSH1 0x1 PUSH1 0x1 PUSH1 0xA0 SHL SUB DUP3 AND PUSH1 0x0 SWAP1 DUP2 MSTORE PUSH1 0x14 PUSH1 0x20 MSTORE PUSH1 0x40 SWAP1 KECCAK256 PUSH1 0x7 ADD SLOAD JUMPDEST PUSH1 0x0 PUSH2 0x1269 TIMESTAMP DUP4 PUSH2 0x140E JUMP JUMPDEST PUSH1 0x0 DUP1 PUSH2 0x138F DUP4 PUSH2 0x1AF4 JUMP JUMPDEST SWAP1 POP PUSH1 0x0 PUSH2 0x139C DUP5 PUSH2 0x11B8 JUMP JUMPDEST SWAP1 POP PUSH1 0x0 PUSH2 0x13AB DUP4 DUP4 DUP8 PUSH2 0x1B65 JUMP JUMPDEST SWAP1 POP PUSH2 0x13B8 PUSH1 0x10 SLOAD PUSH2 0x16D0 JUMP JUMPDEST DUP2 LT PUSH2 0x1269 JUMPI PUSH2 0x13C9 PUSH1 0x10 SLOAD PUSH2 0x16D0 JUMP JUMPDEST SWAP6 SWAP5 POP POP POP POP POP JUMP JUMPDEST PUSH1 0xC SLOAD PUSH1 0x0 SWAP1 DUP2 SWAP1 PUSH2 0xD75 SWAP1 DUP5 SWAP1 PUSH17 0xFFFFFFFFFFFFFFFFFFFFFFFFFFFFFFFFFF AND PUSH2 0x1A11 JUMP JUMPDEST PUSH1 0x0 PUSH2 0xD75 PUSH2 0x1407 DUP5 DUP5 PUSH2 0x1A11 JUMP JUMPDEST PUSH1 0x64 PUSH2 0x1BE6 JUMP JUMPDEST PUSH1 0x0 PUSH2 0xD75 DUP3 DUP5 PUSH2 0x1E5B JUMP JUMPDEST PUSH1 0x0 PUSH2 0xD75 DUP3 PUSH2 0x1429 DUP6 PUSH2 0xF3C JUMP JUMPDEST PUSH2 0x13F8 JUMP JUMPDEST PUSH1 0x0 PUSH2 0xD75 DUP3 PUSH2 0x1429 PUSH1 0x64 PUSH2 0x1442 DUP8 PUSH2 0xF3C JUMP JUMPDEST PUSH2 0x140E JUMP JUMPDEST PUSH1 0x0 PUSH2 0xD75 DUP3 DUP5 PUSH2 0x1E6E JUMP JUMPDEST PUSH1 0xC SLOAD PUSH1 0x0 SWAP1 PUSH2 0x1484 SWAP1 DUP5 SWAP1 PUSH25 0x1000000000000000000000000000000000000000000000000 SWAP1 DIV PUSH2 0xFFFF AND PUSH2 0x13F8 JUMP JUMPDEST PUSH1 0xC SLOAD SWAP1 SWAP2 POP PUSH1 0x0 SWAP1 PUSH2 0x14BA SWAP1 DUP6 SWAP1 PUSH27 0x10000000000000000000000000000000000000000000000000000 SWAP1 DIV PUSH2 0xFFFF AND PUSH2 0x13F8 JUMP JUMPDEST PUSH1 0xC SLOAD SWAP1 SWAP2 POP PUSH1 0x0 SWAP1 PUSH2 0x14D8 SWAP1 DUP7 SWAP1 PUSH1 0x1 PUSH1 0xE0 SHL SWAP1 DIV PUSH1 0xFF AND PUSH2 0x13F8 JUMP JUMPDEST PUSH1 0x2 SLOAD PUSH1 0x7 SLOAD PUSH1 0x40 MLOAD PUSH4 0xA9059CBB PUSH1 0xE0 SHL DUP2 MSTORE PUSH1 0x1 PUSH1 0x1 PUSH1 0xA0 SHL SUB SWAP2 DUP3 AND PUSH1 0x4 DUP3 ADD MSTORE PUSH1 0x24 DUP2 ADD DUP8 SWAP1 MSTORE SWAP3 SWAP4 POP AND SWAP1 PUSH4 0xA9059CBB SWAP1 PUSH1 0x44 ADD PUSH1 0x20 PUSH1 0x40 MLOAD DUP1 DUP4 SUB DUP2 PUSH1 0x0 DUP8 GAS CALL ISZERO DUP1 ISZERO PUSH2 0x152F JUMPI RETURNDATASIZE PUSH1 0x0 DUP1 RETURNDATACOPY RETURNDATASIZE PUSH1 0x0 REVERT JUMPDEST POP POP POP POP PUSH1 0x40 MLOAD RETURNDATASIZE PUSH1 0x1F NOT PUSH1 0x1F DUP3 ADD AND DUP3 ADD DUP1 PUSH1 0x40 MSTORE POP DUP2 ADD SWAP1 PUSH2 0x1553 SWAP2 SWAP1 PUSH2 0x1DC7 JUMP JUMPDEST POP PUSH1 0x2 SLOAD PUSH1 0x8 SLOAD PUSH1 0x40 MLOAD PUSH4 0xA9059CBB PUSH1 0xE0 SHL DUP2 MSTORE PUSH1 0x1 PUSH1 0x1 PUSH1 0xA0 SHL SUB SWAP2 DUP3 AND PUSH1 0x4 DUP3 ADD MSTORE PUSH1 0x24 DUP2 ADD DUP6 SWAP1 MSTORE SWAP2 AND SWAP1 PUSH4 0xA9059CBB SWAP1 PUSH1 0x44 ADD PUSH1 0x20 PUSH1 0x40 MLOAD DUP1 DUP4 SUB DUP2 PUSH1 0x0 DUP8 GAS CALL ISZERO DUP1 ISZERO PUSH2 0x15A9 JUMPI RETURNDATASIZE PUSH1 0x0 DUP1 RETURNDATACOPY RETURNDATASIZE PUSH1 0x0 REVERT JUMPDEST POP POP POP POP PUSH1 0x40 MLOAD RETURNDATASIZE PUSH1 0x1F NOT PUSH1 0x1F DUP3 ADD AND DUP3 ADD DUP1 PUSH1 0x40 MSTORE POP DUP2 ADD SWAP1 PUSH2 0x15CD SWAP2 SWAP1 PUSH2 0x1DC7 JUMP JUMPDEST POP PUSH1 0x2 SLOAD PUSH1 0x9 SLOAD PUSH1 0x40 MLOAD PUSH4 0xA9059CBB PUSH1 0xE0 SHL DUP2 MSTORE PUSH1 0x1 PUSH1 0x1 PUSH1 0xA0 SHL SUB SWAP2 DUP3 AND PUSH1 0x4 DUP3 ADD MSTORE PUSH1 0x24 DUP2 ADD DUP5 SWAP1 MSTORE SWAP2 AND SWAP1 PUSH4 0xA9059CBB SWAP1 PUSH1 0x44 ADD PUSH1 0x20 PUSH1 0x40 MLOAD DUP1 DUP4 SUB DUP2 PUSH1 0x0 DUP8 GAS CALL ISZERO DUP1 ISZERO PUSH2 0x1623 JUMPI RETURNDATASIZE PUSH1 0x0 DUP1 RETURNDATACOPY RETURNDATASIZE PUSH1 0x0 REVERT JUMPDEST POP POP POP POP PUSH1 0x40 MLOAD RETURNDATASIZE PUSH1 0x1F NOT PUSH1 0x1F DUP3 ADD AND DUP3 ADD DUP1 PUSH1 0x40 MSTORE POP DUP2 ADD SWAP1 PUSH2 0x1647 SWAP2 SWAP1 PUSH2 0x1DC7 JUMP JUMPDEST POP DUP4 ISZERO PUSH2 0x16C9 JUMPI PUSH1 0x2 SLOAD PUSH1 0xA SLOAD PUSH1 0x40 MLOAD PUSH4 0xA9059CBB PUSH1 0xE0 SHL DUP2 MSTORE PUSH1 0x1 PUSH1 0x1 PUSH1 0xA0 SHL SUB SWAP2 DUP3 AND PUSH1 0x4 DUP3 ADD MSTORE PUSH1 0x24 DUP2 ADD DUP8 SWAP1 MSTORE SWAP2 AND SWAP1 PUSH4 0xA9059CBB SWAP1 PUSH1 0x44 ADD PUSH1 0x20 PUSH1 0x40 MLOAD DUP1 DUP4 SUB DUP2 PUSH1 0x0 DUP8 GAS CALL ISZERO DUP1 ISZERO PUSH2 0x16A3 JUMPI RETURNDATASIZE PUSH1 0x0 DUP1 RETURNDATACOPY RETURNDATASIZE PUSH1 0x0 REVERT JUMPDEST POP POP POP POP PUSH1 0x40 MLOAD RETURNDATASIZE PUSH1 0x1F NOT PUSH1 0x1F DUP3 ADD AND DUP3 ADD DUP1 PUSH1 0x40 MSTORE POP DUP2 ADD SWAP1 PUSH2 0x16C7 SWAP2 SWAP1 PUSH2 0x1DC7 JUMP JUMPDEST POP JUMPDEST POP POP POP POP POP JUMP JUMPDEST PUSH1 0xC SLOAD PUSH1 0x0 SWAP1 DUP2 SWAP1 PUSH2 0xD75 SWAP1 DUP5 SWAP1 PUSH17 0xFFFFFFFFFFFFFFFFFFFFFFFFFFFFFFFFFF AND PUSH2 0x1BE6 JUMP JUMPDEST PUSH1 0x1 PUSH1 0x1 PUSH1 0xA0 SHL SUB DUP3 AND PUSH1 0x0 SWAP1 DUP2 MSTORE PUSH1 0x14 PUSH1 0x20 MSTORE PUSH1 0x40 DUP2 KECCAK256 PUSH1 0x1 ADD SLOAD DUP2 SWAP1 PUSH2 0x171E SWAP1 DUP5 PUSH2 0x1447 JUMP JUMPDEST SWAP1 POP PUSH1 0x0 PUSH2 0x172D PUSH1 0xF SLOAD PUSH2 0x16D0 JUMP JUMPDEST SWAP1 POP DUP1 DUP3 LT PUSH2 0x173F JUMPI SWAP2 POP PUSH2 0x1298 SWAP1 POP JUMP JUMPDEST POP SWAP4 SWAP3 POP POP POP JUMP JUMPDEST PUSH1 0x0 DUP1 JUMPDEST PUSH1 0x1 PUSH1 0x1 PUSH1 0xA0 SHL SUB DUP4 AND PUSH1 0x0 SWAP1 DUP2 MSTORE PUSH1 0x14 PUSH1 0x20 MSTORE PUSH1 0x40 SWAP1 KECCAK256 PUSH1 0x6 ADD SLOAD DUP2 LT ISZERO PUSH2 0xFFB JUMPI PUSH1 0x1 PUSH1 0x1 PUSH1 0xA0 SHL SUB DUP4 DUP2 AND PUSH1 0x0 SWAP1 DUP2 MSTORE PUSH1 0x14 PUSH1 0x20 MSTORE PUSH1 0x40 SWAP1 KECCAK256 PUSH1 0x6 ADD DUP1 SLOAD SWAP2 DUP7 AND SWAP2 DUP4 SWAP1 DUP2 LT PUSH2 0x17A0 JUMPI PUSH2 0x17A0 PUSH2 0x1E81 JUMP JUMPDEST PUSH1 0x0 SWAP2 DUP3 MSTORE PUSH1 0x20 SWAP1 SWAP2 KECCAK256 ADD SLOAD PUSH1 0x1 PUSH1 0x1 PUSH1 0xA0 SHL SUB AND SUB PUSH2 0x17C4 JUMPI PUSH1 0x1 SWAP2 POP POP PUSH2 0x1298 JUMP JUMPDEST DUP1 PUSH2 0x17CE DUP2 PUSH2 0x1DFF JUMP JUMPDEST SWAP2 POP POP PUSH2 0x174B JUMP JUMPDEST CALLER PUSH1 0x0 SWAP1 DUP2 MSTORE PUSH1 0x14 PUSH1 0x20 MSTORE PUSH1 0x40 SWAP1 KECCAK256 DUP1 SLOAD PUSH2 0x17F9 SWAP1 PUSH1 0x1 PUSH1 0x1 PUSH1 0xA0 SHL SUB AND PUSH2 0x1178 JUMP JUMPDEST ISZERO PUSH2 0x1846 JUMPI PUSH1 0x40 MLOAD PUSH3 0x461BCD PUSH1 0xE5 SHL DUP2 MSTORE PUSH1 0x20 PUSH1 0x4 DUP3 ADD MSTORE PUSH1 0x18 PUSH1 0x24 DUP3 ADD MSTORE PUSH32 0x546F74616C2077616C6C65742054564C20726561636865640000000000000000 PUSH1 0x44 DUP3 ADD MSTORE PUSH1 0x64 ADD PUSH2 0x46F JUMP JUMPDEST DUP1 SLOAD PUSH1 0x1 PUSH1 0x1 PUSH1 0xA0 SHL SUB AND PUSH1 0x0 SWAP1 DUP2 MSTORE PUSH1 0x14 PUSH1 0x20 MSTORE PUSH1 0x40 SWAP1 KECCAK256 PUSH1 0x7 ADD SLOAD PUSH2 0x18AF JUMPI PUSH1 0x40 MLOAD PUSH3 0x461BCD PUSH1 0xE5 SHL DUP2 MSTORE PUSH1 0x20 PUSH1 0x4 DUP3 ADD MSTORE PUSH1 0x18 PUSH1 0x24 DUP3 ADD MSTORE PUSH32 0x4D75737420626520696E76657374656420746F2062616B650000000000000000 PUSH1 0x44 DUP3 ADD MSTORE PUSH1 0x64 ADD PUSH2 0x46F JUMP JUMPDEST DUP2 ISZERO ISZERO PUSH1 0x1 SUB PUSH2 0x194D JUMPI PUSH1 0xE SLOAD DUP2 SLOAD PUSH2 0x18D9 SWAP1 PUSH2 0x18D4 SWAP1 PUSH1 0x1 PUSH1 0x1 PUSH1 0xA0 SHL SUB AND PUSH2 0x1383 JUMP JUMPDEST PUSH2 0x13D2 JUMP JUMPDEST LT ISZERO PUSH2 0x194D JUMPI PUSH1 0x40 MLOAD PUSH3 0x461BCD PUSH1 0xE5 SHL DUP2 MSTORE PUSH1 0x20 PUSH1 0x4 DUP3 ADD MSTORE PUSH1 0x33 PUSH1 0x24 DUP3 ADD MSTORE PUSH32 0x52657761726473206D75737420626520657175616C206F722068696768657220 PUSH1 0x44 DUP3 ADD MSTORE PUSH32 0x7468616E2031204255534420746F2062616B6500000000000000000000000000 PUSH1 0x64 DUP3 ADD MSTORE PUSH1 0x84 ADD PUSH2 0x46F JUMP JUMPDEST PUSH1 0x1 DUP2 ADD SLOAD DUP2 SLOAD PUSH1 0x0 SWAP1 PUSH2 0x1969 SWAP1 PUSH1 0x1 PUSH1 0x1 PUSH1 0xA0 SHL SUB AND PUSH2 0x1383 JUMP JUMPDEST DUP4 SLOAD SWAP1 SWAP2 POP PUSH1 0x0 SWAP1 PUSH2 0x1984 SWAP1 PUSH1 0x1 PUSH1 0x1 PUSH1 0xA0 SHL SUB AND DUP4 PUSH2 0x16F6 JUMP JUMPDEST PUSH1 0x1 DUP6 ADD DUP2 SWAP1 SSTORE TIMESTAMP PUSH1 0x2 DUP7 ADD SSTORE PUSH1 0x4 DUP6 ADD SLOAD PUSH1 0x40 DUP1 MLOAD DUP7 DUP2 MSTORE PUSH1 0x20 DUP2 ADD DUP5 SWAP1 MSTORE SWAP3 SWAP4 POP PUSH1 0x1 PUSH1 0x1 PUSH1 0xA0 SHL SUB SWAP1 SWAP2 AND SWAP2 CALLER SWAP2 PUSH32 0x144EADB70FBF00231C7BB85902EA300BD9D39344BF8978D9838527F4E2B875EA SWAP2 ADD PUSH1 0x40 MLOAD DUP1 SWAP2 SUB SWAP1 LOG3 POP POP POP POP POP JUMP JUMPDEST PUSH1 0x0 DUP1 PUSH2 0x19F3 DUP4 PUSH2 0x1336 JUMP JUMPDEST PUSH1 0xC SLOAD SWAP1 SWAP2 POP PUSH2 0xD75 SWAP1 DUP3 SWAP1 PUSH1 0x1 PUSH1 0x88 SHL SWAP1 DIV PUSH4 0xFFFFFFFF AND PUSH2 0x1BE6 JUMP JUMPDEST PUSH1 0x0 PUSH2 0xD75 DUP3 DUP5 PUSH2 0x1E97 JUMP JUMPDEST PUSH1 0x1 PUSH1 0x1 PUSH1 0xA0 SHL SUB DUP2 AND PUSH2 0x1A99 JUMPI PUSH1 0x40 MLOAD PUSH3 0x461BCD PUSH1 0xE5 SHL DUP2 MSTORE PUSH1 0x20 PUSH1 0x4 DUP3 ADD MSTORE PUSH1 0x26 PUSH1 0x24 DUP3 ADD MSTORE PUSH32 0x4F776E61626C653A206E6577206F776E657220697320746865207A65726F2061 PUSH1 0x44 DUP3 ADD MSTORE PUSH32 0x6464726573730000000000000000000000000000000000000000000000000000 PUSH1 0x64 DUP3 ADD MSTORE PUSH1 0x84 ADD PUSH2 0x46F JUMP JUMPDEST PUSH1 0x0 DUP1 SLOAD PUSH1 0x40 MLOAD PUSH1 0x1 PUSH1 0x1 PUSH1 0xA0 SHL SUB DUP1 DUP6 AND SWAP4 SWAP3 AND SWAP2 PUSH32 0x8BE0079C531659141344CD1FD0A4F28419497F9722A3DAAFE3B4186F6B6457E0 SWAP2 LOG3 PUSH1 0x0 DUP1 SLOAD PUSH1 0x1 PUSH1 0x1 PUSH1 0xA0 SHL SUB NOT AND PUSH1 0x1 PUSH1 0x1 PUSH1 0xA0 SHL SUB SWAP3 SWAP1 SWAP3 AND SWAP2 SWAP1 SWAP2 OR SWAP1 SSTORE JUMP JUMPDEST PUSH1 0x1 PUSH1 0x1 PUSH1 0xA0 SHL SUB DUP2 AND PUSH1 0x0 SWAP1 DUP2 MSTORE PUSH1 0x14 PUSH1 0x20 MSTORE PUSH1 0x40 DUP2 KECCAK256 PUSH1 0x2 ADD SLOAD DUP1 DUP3 SUB PUSH2 0x1B35 JUMPI POP PUSH1 0x1 PUSH1 0x1 PUSH1 0xA0 SHL SUB DUP3 AND PUSH1 0x0 SWAP1 DUP2 MSTORE PUSH1 0x14 PUSH1 0x20 MSTORE PUSH1 0x40 SWAP1 KECCAK256 PUSH1 0x3 ADD SLOAD JUMPDEST DUP1 PUSH1 0x0 SUB PUSH2 0x1B5B JUMPI POP PUSH1 0x1 PUSH1 0x1 PUSH1 0xA0 SHL SUB DUP3 AND PUSH1 0x0 SWAP1 DUP2 MSTORE PUSH1 0x14 PUSH1 0x20 MSTORE PUSH1 0x40 SWAP1 KECCAK256 PUSH1 0x7 ADD SLOAD JUMPDEST PUSH2 0xD75 TIMESTAMP DUP3 PUSH2 0x140E JUMP JUMPDEST PUSH1 0x1 PUSH1 0x1 PUSH1 0xA0 SHL SUB DUP2 AND PUSH1 0x0 SWAP1 DUP2 MSTORE PUSH1 0x14 PUSH1 0x20 MSTORE PUSH1 0x40 DUP2 KECCAK256 PUSH1 0x1 ADD SLOAD DUP2 SWAP1 PUSH2 0x1B9B SWAP1 PUSH2 0x1B95 SWAP1 PUSH4 0x5F5E100 PUSH2 0x1A11 JUMP JUMPDEST DUP6 PUSH2 0x13F8 JUMP JUMPDEST PUSH1 0xC SLOAD SWAP1 SWAP2 POP PUSH1 0x0 SWAP1 PUSH2 0x1BBC SWAP1 DUP4 SWAP1 PUSH1 0x1 PUSH1 0x88 SHL SWAP1 DIV PUSH4 0xFFFFFFFF AND PUSH2 0x1BE6 JUMP JUMPDEST SWAP1 POP PUSH1 0x0 PUSH2 0x1BCA DUP3 DUP9 PUSH2 0x1A11 JUMP JUMPDEST SWAP1 POP PUSH2 0x1BDB DUP2 PUSH5 0xE8D4A51000 PUSH2 0x1BE6 JUMP JUMPDEST SWAP8 SWAP7 POP POP POP POP POP POP POP JUMP JUMPDEST PUSH1 0x0 PUSH2 0xD75 DUP3 DUP5 PUSH2 0x1EAE JUMP JUMPDEST PUSH1 0x0 PUSH1 0x20 DUP3 DUP5 SUB SLT ISZERO PUSH2 0x1C04 JUMPI PUSH1 0x0 DUP1 REVERT JUMPDEST POP CALLDATALOAD SWAP2 SWAP1 POP JUMP JUMPDEST DUP1 CALLDATALOAD PUSH1 0x1 PUSH1 0x1 PUSH1 0xA0 SHL SUB DUP2 AND DUP2 EQ PUSH2 0x1C22 JUMPI PUSH1 0x0 DUP1 REVERT JUMPDEST SWAP2 SWAP1 POP JUMP JUMPDEST PUSH1 0x0 PUSH1 0x20 DUP3 DUP5 SUB SLT ISZERO PUSH2 0x1C39 JUMPI PUSH1 0x0 DUP1 REVERT JUMPDEST PUSH2 0xD75 DUP3 PUSH2 0x1C0B JUMP JUMPDEST PUSH1 0x20 DUP1 DUP3 MSTORE DUP3 MLOAD DUP3 DUP3 ADD DUP2 SWAP1 MSTORE PUSH1 0x0 SWAP2 SWAP1 DUP5 DUP3 ADD SWAP1 PUSH1 0x40 DUP6 ADD SWAP1 DUP5 JUMPDEST DUP2 DUP2 LT ISZERO PUSH2 0x1C83 JUMPI DUP4 MLOAD PUSH1 0x1 PUSH1 0x1 PUSH1 0xA0 SHL SUB AND DUP4 MSTORE SWAP3 DUP5 ADD SWAP3 SWAP2 DUP5 ADD SWAP2 PUSH1 0x1 ADD PUSH2 0x1C5E JUMP JUMPDEST POP SWAP1 SWAP7 SWAP6 POP POP POP POP POP POP JUMP JUMPDEST PUSH1 0x0 DUP1 PUSH1 0x40 DUP4 DUP6 SUB SLT ISZERO PUSH2 0x1CA2 JUMPI PUSH1 0x0 DUP1 REVERT JUMPDEST PUSH2 0x1CAB DUP4 PUSH2 0x1C0B JUMP JUMPDEST SWAP5 PUSH1 0x20 SWAP4 SWAP1 SWAP4 ADD CALLDATALOAD SWAP4 POP POP POP JUMP JUMPDEST PUSH1 0x0 DUP2 MLOAD DUP1 DUP5 MSTORE PUSH1 0x20 DUP1 DUP6 ADD SWAP5 POP DUP1 DUP5 ADD PUSH1 0x0 JUMPDEST DUP4 DUP2 LT ISZERO PUSH2 0x1CF2 JUMPI DUP2 MLOAD PUSH1 0x1 PUSH1 0x1 PUSH1 0xA0 SHL SUB AND DUP8 MSTORE SWAP6 DUP3 ADD SWAP6 SWAP1 DUP3 ADD SWAP1 PUSH1 0x1 ADD PUSH2 0x1CCD JUMP JUMPDEST POP SWAP5 SWAP6 SWAP5 POP POP POP POP POP JUMP JUMPDEST PUSH1 0x20 DUP2 MSTORE PUSH2 0x1D17 PUSH1 0x20 DUP3 ADD DUP4 MLOAD PUSH1 0x1 PUSH1 0x1 PUSH1 0xA0 SHL SUB AND SWAP1 MSTORE JUMP JUMPDEST PUSH1 0x20 DUP3 ADD MLOAD PUSH1 0x40 DUP3 ADD MSTORE PUSH1 0x40 DUP3 ADD MLOAD PUSH1 0x60 DUP3 ADD MSTORE PUSH1 0x60 DUP3 ADD MLOAD PUSH1 0x80 DUP3 ADD MSTORE PUSH1 0x0 PUSH1 0x80 DUP4 ADD MLOAD PUSH2 0x1D51 PUSH1 0xA0 DUP5 ADD DUP3 PUSH1 0x1 PUSH1 0x1 PUSH1 0xA0 SHL SUB AND SWAP1 MSTORE JUMP JUMPDEST POP PUSH1 0xA0 DUP4 ADD MLOAD DUP1 ISZERO ISZERO PUSH1 0xC0 DUP5 ADD MSTORE POP PUSH1 0xC0 DUP4 ADD MLOAD PUSH2 0x160 DUP1 PUSH1 0xE0 DUP6 ADD MSTORE PUSH2 0x1D7C PUSH2 0x180 DUP6 ADD DUP4 PUSH2 0x1CB9 JUMP JUMPDEST SWAP2 POP PUSH1 0xE0 DUP6 ADD MLOAD PUSH2 0x100 PUSH1 0x1F NOT DUP7 DUP6 SUB ADD DUP2 DUP8 ADD MSTORE PUSH2 0x1D9B DUP5 DUP4 PUSH2 0x1CB9 JUMP JUMPDEST SWAP1 DUP8 ADD MLOAD PUSH2 0x120 DUP8 DUP2 ADD SWAP2 SWAP1 SWAP2 MSTORE DUP8 ADD MLOAD PUSH2 0x140 DUP1 DUP9 ADD SWAP2 SWAP1 SWAP2 MSTORE SWAP1 SWAP7 ADD MLOAD SWAP2 SWAP1 SWAP5 ADD MSTORE POP SWAP2 SWAP3 SWAP2 POP POP JUMP JUMPDEST PUSH1 0x0 PUSH1 0x20 DUP3 DUP5 SUB SLT ISZERO PUSH2 0x1DD9 JUMPI PUSH1 0x0 DUP1 REVERT JUMPDEST DUP2 MLOAD DUP1 ISZERO ISZERO DUP2 EQ PUSH2 0xD75 JUMPI PUSH1 0x0 DUP1 REVERT JUMPDEST PUSH4 0x4E487B71 PUSH1 0xE0 SHL PUSH1 0x0 MSTORE PUSH1 0x11 PUSH1 0x4 MSTORE PUSH1 0x24 PUSH1 0x0 REVERT JUMPDEST PUSH1 0x0 PUSH1 0x1 DUP3 ADD PUSH2 0x1E11 JUMPI PUSH2 0x1E11 PUSH2 0x1DE9 JUMP JUMPDEST POP PUSH1 0x1 ADD SWAP1 JUMP JUMPDEST PUSH4 0x4E487B71 PUSH1 0xE0 SHL PUSH1 0x0 MSTORE PUSH1 0x12 PUSH1 0x4 MSTORE PUSH1 0x24 PUSH1 0x0 REVERT JUMPDEST PUSH1 0x0 DUP3 PUSH2 0x1E3D JUMPI PUSH2 0x1E3D PUSH2 0x1E18 JUMP JUMPDEST POP MOD SWAP1 JUMP JUMPDEST PUSH1 0x0 PUSH1 0x20 DUP3 DUP5 SUB SLT ISZERO PUSH2 0x1E54 JUMPI PUSH1 0x0 DUP1 REVERT JUMPDEST POP MLOAD SWAP2 SWAP1 POP JUMP JUMPDEST DUP2 DUP2 SUB DUP2 DUP2 GT ISZERO PUSH2 0x1298 JUMPI PUSH2 0x1298 PUSH2 0x1DE9 JUMP JUMPDEST DUP1 DUP3 ADD DUP1 DUP3 GT ISZERO PUSH2 0x1298 JUMPI PUSH2 0x1298 PUSH2 0x1DE9 JUMP JUMPDEST PUSH4 0x4E487B71 PUSH1 0xE0 SHL PUSH1 0x0 MSTORE PUSH1 0x32 PUSH1 0x4 MSTORE PUSH1 0x24 PUSH1 0x0 REVERT JUMPDEST DUP1 DUP3 MUL DUP2 ISZERO DUP3 DUP3 DIV DUP5 EQ OR PUSH2 0x1298 JUMPI PUSH2 0x1298 PUSH2 0x1DE9 JUMP JUMPDEST PUSH1 0x0 DUP3 PUSH2 0x1EBD JUMPI PUSH2 0x1EBD PUSH2 0x1E18 JUMP JUMPDEST POP DIV SWAP1 JUMP INVALID LOG2 PUSH5 0x6970667358 0x22 SLT KECCAK256 DUP7 GASLIMIT 0x4D 0x27 0xF6 SWAP9 0x5D 0xC2 0xFC 0xEF BALANCE 0x28 0xCB SLOAD 0x2F 0xA7 SWAP9 OR RETURN PUSH24 0xA5133A86CE648D88EF65A44264736F6C6343000811003300 "
    },
    "gasEstimates": {
      "creation": {
        "codeDepositCost": "1585600",
        "executionCost": "452972",
        "totalCost": "2038572"
      },
      "external": {
        "CEO_ADDRESS()": "2437",
        "DEV_ADDRESS()": "2372",
        "GIVEAWAY_ADDRESS()": "2437",
        "MARKETING_ADDRESS()": "2415",
        "OWNER_ADDRESS()": "2373",
        "bake()": "infinite",
        "bakerAddress(uint256)": "2557",
        "bnbRewards(address)": "infinite",
        "bnbTvl(address)": "infinite",
        "buyBeans(address,uint256)": "infinite",
        "contractBalance()": "infinite",
        "dailyReward(address)": "2815",
        "eat()": "infinite",
        "hasBeanTaxed(address)": "infinite",
        "hasInvested(address)": "2621",
        "initializeContract()": "26579",
        "maxPayout(address)": "infinite",
        "maxPayoutReached(address)": "infinite",
        "maxTvlReached(address)": "infinite",
        "owner()": "2409",
        "renounceOwnership()": "30255",
        "secondsSinceLastEat(address)": "infinite",
        "totalBakers()": "2340",
        "transferOwnership(address)": "30517",
        "user(address)": "infinite",
        "userBonusEligibleReferrals(address)": "infinite",
        "userReferrals(address)": "infinite"
      },
      "internal": {
        "addBeans(address,uint256)": "infinite",
        "addWithdrawalTaxes(address,uint256)": "infinite",
        "beansToBnb(uint256)": "infinite",
        "bnbToBeans(uint256)": "infinite",
        "calcBeansReward(uint256,uint256,address)": "infinite",
        "calcGiveAwayAmount(address,uint256)": "infinite",
        "daysSinceLastEat(address)": "infinite",
        "handleBake(bool)": "infinite",
        "percentFromAmount(uint256,uint256)": "infinite",
        "refExists(address,address)": "infinite",
        "rewardedBeans(address)": "infinite",
        "secondsSinceLastAction(address)": "infinite",
        "sendFees(uint256,uint256)": "infinite"
      }
    },
    "methodIdentifiers": {
      "CEO_ADDRESS()": "933f5d3f",
      "DEV_ADDRESS()": "5639e8cf",
      "GIVEAWAY_ADDRESS()": "d5e156dc",
      "MARKETING_ADDRESS()": "e689c476",
      "OWNER_ADDRESS()": "06c18a31",
      "bake()": "b0de262e",
      "bakerAddress(uint256)": "3b0923aa",
      "bnbRewards(address)": "d65cfbbe",
      "bnbTvl(address)": "8055c217",
      "buyBeans(address,uint256)": "733ba492",
      "contractBalance()": "8b7afe2e",
      "dailyReward(address)": "cb868f54",
      "eat()": "340a2a4e",
      "hasBeanTaxed(address)": "83c4c62b",
      "hasInvested(address)": "edb9a5c0",
      "initializeContract()": "9eb32fdb",
      "maxPayout(address)": "e300e98b",
      "maxPayoutReached(address)": "e72aabb5",
      "maxTvlReached(address)": "a70ed057",
      "owner()": "8da5cb5b",
      "renounceOwnership()": "715018a6",
      "secondsSinceLastEat(address)": "f5c9b7da",
      "totalBakers()": "ad06de62",
      "transferOwnership(address)": "f2fde38b",
      "user(address)": "81e7e20e",
      "userBonusEligibleReferrals(address)": "9703073c",
      "userReferrals(address)": "6b277e37"
    }
  },
  "storageLayout": {
    "storage": [
      {
        "astId": 25,
        "contract": "contract.sol:MinersOasis",
        "label": "_owner",
        "offset": 0,
        "slot": "0",
        "type": "t_address"
      },
      {
        "astId": 308,
        "contract": "contract.sol:MinersOasis",
        "label": "OWNER_ADDRESS",
        "offset": 0,
        "slot": "1",
        "type": "t_address"
      },
      {
        "astId": 311,
        "contract": "contract.sol:MinersOasis",
        "label": "initialized",
        "offset": 20,
        "slot": "1",
        "type": "t_bool"
      },
      {
        "astId": 314,
        "contract": "contract.sol:MinersOasis",
        "label": "BUSD",
        "offset": 0,
        "slot": "2",
        "type": "t_address"
      },
      {
        "astId": 317,
        "contract": "contract.sol:MinersOasis",
        "label": "DEV_ADDRESS",
        "offset": 0,
        "slot": "3",
        "type": "t_address"
      },
      {
        "astId": 320,
        "contract": "contract.sol:MinersOasis",
        "label": "MARKETING_ADDRESS",
        "offset": 0,
        "slot": "4",
        "type": "t_address"
      },
      {
        "astId": 323,
        "contract": "contract.sol:MinersOasis",
        "label": "CEO_ADDRESS",
        "offset": 0,
        "slot": "5",
        "type": "t_address"
      },
      {
        "astId": 326,
        "contract": "contract.sol:MinersOasis",
        "label": "GIVEAWAY_ADDRESS",
        "offset": 0,
        "slot": "6",
        "type": "t_address"
      },
      {
        "astId": 329,
        "contract": "contract.sol:MinersOasis",
        "label": "_dev",
        "offset": 0,
        "slot": "7",
        "type": "t_address"
      },
      {
        "astId": 332,
        "contract": "contract.sol:MinersOasis",
        "label": "_marketing",
        "offset": 0,
        "slot": "8",
        "type": "t_address"
      },
      {
        "astId": 335,
        "contract": "contract.sol:MinersOasis",
        "label": "_ceo",
        "offset": 0,
        "slot": "9",
        "type": "t_address"
      },
      {
        "astId": 338,
        "contract": "contract.sol:MinersOasis",
        "label": "_giveAway",
        "offset": 0,
        "slot": "10",
        "type": "t_address"
      },
      {
        "astId": 341,
        "contract": "contract.sol:MinersOasis",
        "label": "_owner",
        "offset": 0,
        "slot": "11",
        "type": "t_address"
      },
      {
        "astId": 344,
        "contract": "contract.sol:MinersOasis",
        "label": "BNB_PER_BEAN",
        "offset": 0,
        "slot": "12",
        "type": "t_uint136"
      },
      {
        "astId": 347,
        "contract": "contract.sol:MinersOasis",
        "label": "SECONDS_PER_DAY",
        "offset": 17,
        "slot": "12",
        "type": "t_uint32"
      },
      {
        "astId": 350,
        "contract": "contract.sol:MinersOasis",
        "label": "DEPOSIT_FEE",
        "offset": 21,
        "slot": "12",
        "type": "t_uint8"
      },
      {
        "astId": 353,
        "contract": "contract.sol:MinersOasis",
        "label": "AIRDROP_FEE",
        "offset": 22,
        "slot": "12",
        "type": "t_uint8"
      },
      {
        "astId": 356,
        "contract": "contract.sol:MinersOasis",
        "label": "WITHDRAWAL_FEE",
        "offset": 23,
        "slot": "12",
        "type": "t_uint8"
      },
      {
        "astId": 359,
        "contract": "contract.sol:MinersOasis",
        "label": "DEV_FEE",
        "offset": 24,
        "slot": "12",
        "type": "t_uint16"
      },
      {
        "astId": 362,
        "contract": "contract.sol:MinersOasis",
        "label": "MARKETING_FEE",
        "offset": 26,
        "slot": "12",
        "type": "t_uint16"
      },
      {
        "astId": 365,
        "contract": "contract.sol:MinersOasis",
        "label": "CEO_FEE",
        "offset": 28,
        "slot": "12",
        "type": "t_uint8"
      },
      {
        "astId": 368,
        "contract": "contract.sol:MinersOasis",
        "label": "REF_BONUS",
        "offset": 29,
        "slot": "12",
        "type": "t_uint8"
      },
      {
        "astId": 371,
        "contract": "contract.sol:MinersOasis",
        "label": "FIRST_DEPOSIT_REF_BONUS",
        "offset": 30,
        "slot": "12",
        "type": "t_uint8"
      },
      {
        "astId": 374,
        "contract": "contract.sol:MinersOasis",
        "label": "MIN_DEPOSIT",
        "offset": 0,
        "slot": "13",
        "type": "t_uint256"
      },
      {
        "astId": 377,
        "contract": "contract.sol:MinersOasis",
        "label": "MIN_BAKE",
        "offset": 0,
        "slot": "14",
        "type": "t_uint256"
      },
      {
        "astId": 380,
        "contract": "contract.sol:MinersOasis",
        "label": "MAX_WALLET_TVL_IN_BNB",
        "offset": 0,
        "slot": "15",
        "type": "t_uint256"
      },
      {
        "astId": 383,
        "contract": "contract.sol:MinersOasis",
        "label": "MAX_DAILY_REWARDS_IN_BNB",
        "offset": 0,
        "slot": "16",
        "type": "t_uint256"
      },
      {
        "astId": 386,
        "contract": "contract.sol:MinersOasis",
        "label": "MIN_REF_DEPOSIT_FOR_BONUS",
        "offset": 0,
        "slot": "17",
        "type": "t_uint256"
      },
      {
        "astId": 390,
        "contract": "contract.sol:MinersOasis",
        "label": "bakerAddress",
        "offset": 0,
        "slot": "18",
        "type": "t_mapping(t_uint256,t_address)"
      },
      {
        "astId": 392,
        "contract": "contract.sol:MinersOasis",
        "label": "totalBakers",
        "offset": 0,
        "slot": "19",
        "type": "t_uint256"
      },
      {
        "astId": 422,
        "contract": "contract.sol:MinersOasis",
        "label": "bakers",
        "offset": 0,
        "slot": "20",
        "type": "t_mapping(t_address,t_struct(Baker)417_storage)"
      }
    ],
    "types": {
      "t_address": {
        "encoding": "inplace",
        "label": "address",
        "numberOfBytes": "20"
      },
      "t_array(t_address)dyn_storage": {
        "base": "t_address",
        "encoding": "dynamic_array",
        "label": "address[]",
        "numberOfBytes": "32"
      },
      "t_bool": {
        "encoding": "inplace",
        "label": "bool",
        "numberOfBytes": "1"
      },
      "t_mapping(t_address,t_struct(Baker)417_storage)": {
        "encoding": "mapping",
        "key": "t_address",
        "label": "mapping(address => struct MinersOasis.Baker)",
        "numberOfBytes": "32",
        "value": "t_struct(Baker)417_storage"
      },
      "t_mapping(t_uint256,t_address)": {
        "encoding": "mapping",
        "key": "t_uint256",
        "label": "mapping(uint256 => address)",
        "numberOfBytes": "32",
        "value": "t_address"
      },
      "t_struct(Baker)417_storage": {
        "encoding": "inplace",
        "label": "struct MinersOasis.Baker",
        "members": [
          {
            "astId": 394,
            "contract": "contract.sol:MinersOasis",
            "label": "adr",
            "offset": 0,
            "slot": "0",
            "type": "t_address"
          },
          {
            "astId": 396,
            "contract": "contract.sol:MinersOasis",
            "label": "beans",
            "offset": 0,
            "slot": "1",
            "type": "t_uint256"
          },
          {
            "astId": 398,
            "contract": "contract.sol:MinersOasis",
            "label": "bakedAt",
            "offset": 0,
            "slot": "2",
            "type": "t_uint256"
          },
          {
            "astId": 400,
            "contract": "contract.sol:MinersOasis",
            "label": "ateAt",
            "offset": 0,
            "slot": "3",
            "type": "t_uint256"
          },
          {
            "astId": 402,
            "contract": "contract.sol:MinersOasis",
            "label": "upline",
            "offset": 0,
            "slot": "4",
            "type": "t_address"
          },
          {
            "astId": 404,
            "contract": "contract.sol:MinersOasis",
            "label": "hasReferred",
            "offset": 20,
            "slot": "4",
            "type": "t_bool"
          },
          {
            "astId": 407,
            "contract": "contract.sol:MinersOasis",
            "label": "referrals",
            "offset": 0,
            "slot": "5",
            "type": "t_array(t_address)dyn_storage"
          },
          {
            "astId": 410,
            "contract": "contract.sol:MinersOasis",
            "label": "bonusEligibleReferrals",
            "offset": 0,
            "slot": "6",
            "type": "t_array(t_address)dyn_storage"
          },
          {
            "astId": 412,
            "contract": "contract.sol:MinersOasis",
            "label": "firstDeposit",
            "offset": 0,
            "slot": "7",
            "type": "t_uint256"
          },
          {
            "astId": 414,
            "contract": "contract.sol:MinersOasis",
            "label": "totalDeposit",
            "offset": 0,
            "slot": "8",
            "type": "t_uint256"
          },
          {
            "astId": 416,
            "contract": "contract.sol:MinersOasis",
            "label": "totalPayout",
            "offset": 0,
            "slot": "9",
            "type": "t_uint256"
          }
        ],
        "numberOfBytes": "320"
      },
      "t_uint136": {
        "encoding": "inplace",
        "label": "uint136",
        "numberOfBytes": "17"
      },
      "t_uint16": {
        "encoding": "inplace",
        "label": "uint16",
        "numberOfBytes": "2"
      },
      "t_uint256": {
        "encoding": "inplace",
        "label": "uint256",
        "numberOfBytes": "32"
      },
      "t_uint32": {
        "encoding": "inplace",
        "label": "uint32",
        "numberOfBytes": "4"
      },
      "t_uint8": {
        "encoding": "inplace",
        "label": "uint8",
        "numberOfBytes": "1"
      }
    }
  },
  "userdoc": {
    "kind": "user",
    "methods": {},
    "version": 1
  }
}